:020000040800F2
:10000000A04B00209901000831590008F544000870
:100010002D59000835100008616F0008000000002D
:1000200000000000000000000000000001010008C6
:10003000051200080000000045010008F5670008EF
:10004000B3010008B3010008B3010008B3010008C0
:10005000B3010008B3010008B3010008B3010008B0
:10006000B3010008B3010008B3010008B91100088A
:10007000B3010008B3010008B3010008C91100086A
:10008000B3010008B3010008B3010008B301000880
:10009000B3010008B3010008B3010008B301000870
:1000A000B3010008B3010008B3010008B301000860
:1000B000B3010008B3010008B5680008B3010008E7
:1000C000B3010008B3010008B3010008B301000840
:1000D000B3010008516F0008B3010008B301000824
:1000E000B3010008B3010008B3010008DFF80CD029
:1000F00000F018FD00480047B57F0008A04B002025
:10010000224B19680868B0E8F00F80F30988BFF344
:100110006F8F4FF0000080F311884EF00D0E704786
:100120000000000006480068006880F3088862B696
:1001300061B6BFF34F8FBFF36F8F00DF00BF00BF0B
:1001400008ED00E0EFF30980BFF36F8F0F4B1A68E3
:1001500020E9F00F106008B54FF0500080F31188CF
:10016000BFF34F8FBFF36F8F0AF0E8FA4FF0000034
:1001700080F31188BDE8084019680868B0E8F00FFE
:1001800080F30988BFF36F8F704700BF30000020F5
:10019000EFF3058070470000064880470648004797
:1001A000FEE7FEE7FEE7FEE7FEE7FEE7FEE7FEE727
:1001B000FEE7FEE7B1680008ED000008202A04DB36
:1001C000203A21FA02F00021704721FA02F3D040D0
:1001D000C2F120029140084319467047A0F1410145
:1001E000192900D82030704710B5431A934209D21C
:1001F0008318881803E010F8011D03F8011D521E32
:10020000F9D210BD40EA01039B0703D009E008C9F9
:10021000121F08C0042AFAD203E011F8013B00F8CB
:10022000013B521EF9D210BDD2B201E000F8012B01
:10023000491EFBD270470022F6E710B513460A4666
:1002400004461946FFF7F0FF204610BD421E12F883
:10025000013F002BFBD111F8013B02F8013B002BC1
:10026000F9D1704730B505462A460B4612F8010B06
:1002700013F8014B08B1A042F8D01CB1002802D0FD
:100280006D1CF1E7284630BDCAB2401E10F8011FB0
:100290008A4202D00029F9D100207047421C10F890
:1002A000011B0029FBD1801A704730B5044600209D
:1002B000034600E05B1C934203D2E05CCD5C401B34
:1002C000F8D030BD10B5044600E0401C0378002B88
:1002D000FBD100E0401C521E04D311F8013B037017
:1002E000002BF7D100210170204610BD034611F804
:1002F000012B00F8012B002AF9D11846704730B5C0
:1003000005460020034600E05B1C934205D2EC5CEE
:10031000C85C201A01D1002CF6D130BDF0B480EABF
:100320000102D40F4200B2EB410F02D2024608464E
:1003300011464A0042D0C30DDDB2C1F3C752AD1A17
:10034000202D35DAC1F3160141F4000204B1524206
:10035000C5F1200602FA06F12A411044B3EBD05F42
:1003600023D0C4B1012DA0EBC35009DCF0BC4FF089
:10037000004202EAC352DBB200F5000000F0A9BA65
:10038000400000F1807000EBC350A0F1807040EAA3
:10039000D170490009E0490841EAC071A0EBC3509F
:1003A00000F50000400800EBC350F0BC00F088BA34
:1003B0006142012202EB4101001BF6E7F0BC7047ED
:1003C00081F00041AAE780F00040A7E780EA01023F
:1003D00010B502F00043400022D04A001FD0010EA9
:1003E00001EB1261C0F35600C2F3560240F4000064
:1003F00042F40002A0FB022000047F39140400D064
:10040000401C50EA124001D44000491EC2B20C0602
:1004100004EBD010401C4008802A02D003E00020EA
:1004200010BD20F00100002900DA0020184310BDA3
:1004300030B480EA010202F0004530F0004221F0C1
:10044000004013D090B1C30DD40DC2F31601C0F318
:100450001600E41A41F4000140F400027D34914298
:1004600001D3641C00E04900002C02DA30BC0020FB
:1004700070474FF400000023914201D3891A0343CF
:1004800040084FEA4101F7D151B1914202D14FF0FA
:10049000004105E002D24FF0010101E06FF00101DF
:1004A00003EBC450284430BC00F00ABA2DE9FE4FDB
:1004B000804681EA0300C00F0C46009021F0004105
:1004C00023F00045B8EB0200A94105D24046214681
:1004D00090461C460B46024623F00040104347D08E
:1004E000270DC7F30A00C3F30A510290401A019086
:1004F00040286BDAC3F3130040F4801B0098924647
:1005000020B10023D2EB030A63EB0B0B0198594691
:10051000C0F14002504600F0B2F906460D46504682
:100520005946019A00F0BAF910EB08006141002425
:1005300087EA115284EAE7731A4340D0009A62B303
:10054000019A012A4FEA075215DC001B61EB0201F8
:100550004FF0004202EA0752CDE90042001C41F58B
:10056000801132462B4600F0F1F903B0BDE8F08F60
:1005700040462146F9E7001B61EB0201001C41F5F2
:10058000801300185B412018A2F5001747EB030108
:1005900040EAD570B6196D4111E06D084FEA360694
:1005A00045EAC0754FEA0752001B61EB0201001CCF
:1005B00041F5801149084FEA300000195141324697
:1005C0002B4603B0BDE8F04F00F0B1B9009801220E
:1005D00040000023D0EB020263EBE0730098214659
:1005E0004FEAE074B8EB000061EB0401E9E783F047
:1005F00000435BE781F0004158E72DE9FE4F81EAB7
:10060000030404F0004421F0004100944FF0000B7B
:1006100023F0004350EA01045ED052EA03045BD0A9
:10062000C3F30A54C1F30A552C44A4F2F3340194E1
:10063000A0FB0254C1F3130141F48011C3F313036F
:1006400043F4801301FB024400FB034E840A970A23
:1006500044EA815447EA8357A4FB076802958D0A50
:1006600005FB07854FEA932C04FB0C542705029DDC
:100670004FEA065847EA1637B5EB08056EEB070C4C
:10068000870E920E47EA811742EA8312A7FB020106
:10069000B6EB0B0164EB00042B0D43EA0C335E1840
:1006A00044EB1C50DA465146E7FB0201C5F3130444
:1006B0004FEA0B3343EA14534FEA0432019C43EAF6
:1006C0000603A4F10C040294009CCDE900B400F0F0
:1006D0003DF903B0BDE8F08F00200146F9E796230D
:1006E0000022114600F0F5B80EB5C10F80EAE070A7
:1006F0000844CA07002140F233438DE80E000A4641
:100700000B4600F023F903B000BD20F00040C10DFE
:10071000C0F3160040F400007F2901DA0020704782
:10072000962903DCC1F19601C8407047963988408C
:10073000704770B5C1F30A5201F000450024C1F3BF
:10074000130140F2FF3341F480119A4201DA002094
:1007500070BD40F233439A42A2F2334203DC52426C
:10076000FFF72CFD00E090402C43F1D0404270BDDB
:1007700000F0004230F000400AD0C10D01F5607178
:10078000C0F3160042EA0151C20840071143704706
:10079000002001467047000030B5041E71F10004CE
:1007A00004DB4FF00044404264EB0101141E73F17E
:1007B000000405DB1C464FF00043524263EB040388
:1007C000994208BF904230BD002801DBC0F10040D3
:1007D000002901DBC1F1004181427047002801DBA3
:1007E000C0F10040002901DBC1F10041884270479F
:1007F00030B50B46014600202022012409E021FAF1
:1008000002F59D4205D303FA02F5491B04FA02F5ED
:100810002844151EA2F10102F1DC30BD2DE9F05F84
:100820000546002092469B4688460646814640245F
:100830001BE02846414647462246FFF7BFFC534689
:100840005A46C01A914110D311461846224600F06C
:1008500016F82D1A67EB01084F46224601200021A9
:1008600000F00DF817EB00094E41201EA4F1010421
:10087000DFDC484631462A464346BDE8F09F202A41
:1008800004DB203A00FA02F1002070479140C2F1E7
:10089000200320FA03F3194390407047202A06DB17
:1008A000CB17203A41FA02F043EAE07306E041FA3E
:1008B00002F3D040C2F1200291400843194670472C
:1008C0000029A8BF7047401C490008BF20F0010064
:1008D000704710B4B0FA80FC00FA0CF050EA010442
:1008E00004BF10BC704749B1CCF1200421FA04F4D4
:1008F00011FA0CF118BF012121430843A3EB0C01AD
:10090000CB1D4FEA00614FEA102042BF002010BC0F
:10091000704700EBC35010440029A4BF10BC7047BF
:10092000401C490008BF20F0010010BC704710B502
:10093000141E73F1000408DA401C41F10001921802
:100940005B411A4301D120F0010010BD2DE9F04DAB
:1009500092469B4611B1B1FA81F202E0B0FA80F200
:1009600020329046FFF78BFF04460F4640EA0A000C
:1009700041EA0B0153465A46084313D0114653EA45
:10098000010019D0C8F140025046FFF717FC054698
:100990000E46504659464246FFF771FF084305D0C0
:1009A000012004E020463946BDE8F08D00200543D3
:1009B00046EAE0762C4337430A986305E40AA0EB45
:1009C00008000022FD0A44EA47540A3002D50020FC
:1009D0000146E9E7010510196941DDE908450019FB
:1009E0006941BDE8F04DA2E72DE9F04D81EA03042D
:1009F00004F0004B21F0004514464FF0000A23F0AC
:100A0000004150EA050220D054EA01021DD0C5F38E
:100A10000A570246C5F31303C1F31300C1F30A5684
:100A200040F4801543F48013A7EB0608101BD6464C
:100A300008F2FD3873EB050002D308F1010801E06C
:100A400092185B41B8F1000F03DA00200146BDE8BF
:100A5000F08D00204FF48011064684460EE0171BEF
:100A600073EB050705D3121B63EB050306434CEA42
:100A7000010C49084FEA300092185B4150EA010727
:100A8000EDD152EA030012D082EA040083EA0501A4
:100A9000084305D0101BAB4106D20122002306E01B
:100AA00000224FF0004302E06FF0010253101AEBF6
:100AB00006004CEB085110EB0A0041EB0B01BDE8BE
:100AC000F04DFFF734BF70B521F0004303430CD065
:100AD000C1F30A550024D5EB040564EB0403D617D3
:100AE000AD1AB34102DB0020014670BD201841EB76
:100AF000025170BDC1F30A52C1F3130140F2FF333A
:100B000041F480119A4202DA00200146704740F217
:100B100033439A42A2F2334202DC5242FFF74EBB09
:100B2000FFF7ADBE064C074D06E0E06840F001035C
:100B300094E8070098471034AC42F6D3FFF7DAFA8E
:100B400044C8000864C800082DE9F04D00231A4687
:100B50001B1A8A4103DB00200146BDE8F08DC1F37A
:100B60000A52C1F3130141F480154FF0000BD10775
:100B700002D100186D41521E0027044640F2FF11B9
:100B8000384601EB620A3E468046024600204FF49A
:100B90008011FFF713FBC2197141BB1846EB01002E
:100BA000B4EB030C75EB000C04D3E41A65EB000501
:100BB00017460E46241908F101006D41804634287D
:100BC000E3DDF91946EB0600091BA84103D24FF0FB
:100BD000FF32134601E0002213461BEB070046EBF1
:100BE0000A51BDE8F04DFFF7A2BE70B504460025DE
:100BF0002068806800F0010018B32068806820F049
:100C000001002168886001F04FFF054613E001F004
:100C10004BFF401B02280ED92068806800F00100BD
:100C200048B1A06A40F01000A062E06A40F0010004
:100C3000E062012070BD2068806800F0010000289B
:100C4000E5D10020F6E770B505466C6AA06A00F0B1
:100C50005000E0B9A06A40F40070A062206880688B
:100C600000F46020B0F5602F0DD1207B58B9A06A48
:100C700020F48070A062A06A00F4805018B9A06AC5
:100C800040F00100A062204601F0DCF903E0206A98
:100C9000016B2846884770BD70B505466C6AA06A2E
:100CA00040F04000A062E06A40F00400E0622046AC
:100CB00001F0CAF970BD70B50446656A284601F0B6
:100CC000C2F970BD38B504460025002000902068A8
:100CD000806800F0010078BB2068806840F0010067
:100CE00021688860194800681949B0FBF1F000904C
:100CF00002E00098401E009000980028F9D101F011
:100D0000D3FE054619E001F0CFFE401B022814D99E
:100D10002068806800F0010078B9A06A40F01000F7
:100D2000A062E06A40F00100E06200BF002084F8A9
:100D3000240000BF012038BD05E02068806800F075
:100D400001000028DFD00020F5E700002C00002083
:100D500040420F000146024830F811007047000081
:100D6000A800002010B503220349044801F068FAE6
:100D7000034802F05BFE10BDA8000020FC0000202C
:100D8000D00100202DE9F047074689469046DDF85E
:100D900020C0002100220024002600250020044657
:100DA0000246014645E0002601E0491C761C6145EB
:100DB00002D2585C2028F8D0614500D13BE0ACEB72
:100DC0000100022807D3585C0D2804D1481C185C88
:100DD0000A2800D12CE0585C0A2800D128E01EB176
:100DE0006FF02B00BDE8F087585C3D2806D1601CF1
:100DF0000446022802D96FF02B00F3E7585C7F28E5
:100E000006DC585CDFF8E4A01AF800007F2802D165
:100E10006FF02B00E6E7585CDFF8D0A01AF800006E
:100E2000402803DA14B16FF02B00DBE7521C00BF3F
:100E3000491C6145B7D300BF1AB90020C8F80000AB
:100E4000D0E7D00800EB40004FEA400A02F007006C
:100E500000EB40004000C01D0AEBD002121B0FB196
:100E6000914504D2C8F800206FF02900BAE70324A6
:100E70000020064602463D4631E018780D2805D090
:100E800018780A2802D01878202800D125E0187890
:100E9000DFF858A01AF80000402801D1012000E036
:100EA0000020241A1878DFF844A01AF8000066F32E
:100EB0009F100646501C024604280DD1002214B192
:100EC000300C05F8010B012C02D9300A05F8010B92
:100ED000022C01D905F8016B00BF491E5B1C0029DB
:100EE000CBD1E81BC8F8000000207BE7D9C600087A
:100EF0002DE9F04F07468946099C00250026AC469F
:100F0000A846AA4600211CB900201060BDE8F08F59
:100F10000320B4FBF0F04FF0030BB4FBFBFE0BFB24
:100F20001E4BBBF1000F02D04FF0010B01E04FF060
:100F3000000B00EB0B06B6F1804F05D34FF0FF30EE
:100F400010606FF02900E1E7B600701C814500D306
:100F500027B9701C10606FF02900D7E70320B4FB9D
:100F6000F0F000EB40060025394629E013F801CBEC
:100F700013F8018B13F801AB2D484FEA9C0B10F8C6
:100F80000B0001F8010B4FEA0C1000EB281000F0E9
:100F90003F00DFF89CB01BF8000001F8010B4FEA9E
:100FA000880000EBAA1000F03F001BF8000001F8D9
:100FB000010B0AF03F001BF8000001F8010BED1CCB
:100FC000B542D3D3A5422DD213F801CB681CA04261
:100FD00002D213F8010B00E0002080461448CCF345
:100FE000850B10F80B0001F8010B4FEA0C1000EB19
:100FF000281000F03F00DFF838B01BF8000001F8BF
:10100000010B681CA04207D23F2000EA88001BF8B1
:10101000000001F8010B02E03D2001F8010B3D202A
:1010200001F8010BC81B10600020087000BF6DE7BD
:1010300099C6000800BFFEE700B585B000BF1248A2
:10104000806940F00400104988610846806900F01A
:101050000400009000BF00BF0020019002900390A8
:101060000490881501900120029000200390022036
:10107000049001A9054801F077FB01221102034801
:1010800001F00CFD05B000BD001002400008014059
:1010900010B501221102024801F000FD10BD000050
:1010A0000008014010B500224FF48071014801F0A2
:1010B000F5FC10BD000801400025002400F054F8A4
:1010C00003F022FC00BF642216491748006809F0AB
:1010D000B5FE0AF027F9401B42F21071884215D381
:1010E00012A006F013F805F0ABFA60B113A006F0F9
:1010F0000DF818A118A000F089FB4FF4FA6009F070
:10110000D5F903F001FC0AF00DF90546012000F0C5
:1011100049F9044614B1204605F06CF90A2009F09B
:10112000C5F9D0E7943300200800002055706C6F9B
:101130006164204D5154540D0A0000005443502066
:101140004C6F7374205265636F6E6E6563740D0A25
:10115000000000004F4B000041542B434950434CCA
:101160004F53450D0A00000010B500F0FBFA0BA02C
:1011700005F0CCFF4FF480720D490E4802F029FEB5
:101180000C48C06B0068006820F004000949C96B76
:101190000968086000F0A8F910BD00004553502010
:1011A0005461736B2053746172740D0A0000000067
:1011B000A03500201802002010B5024801F084F983
:1011C00010BD00002C01002010B5024801F07CF990
:1011D00010BD0000A802002030B590F84050012456
:1011E000AC40C56B6C60046863604468102C04D12B
:1011F0000468A2600468E16003E00468A160046818
:10120000E26030BD7047000004F094FB44A201216D
:10121000084604F071FC46A20121022004F06CFC97
:1012200047A20121032004F067FC47A2012104200A
:1012300004F062FC00BF4FF0FF32454945480068AA
:1012400009F0FCFD012864D141490868FFF75DFA07
:101250000446022322460921012004F02BFC3C49CC
:101260004868FFF752FA044601232246092102206A
:1012700004F020FC364908683749FFF7A7F805460F
:10128000FFF743FA0446032322460C21012004F011
:1012900011FC2F4948683049FFF798F80546FFF7D9
:1012A00034FA0446032322460B21022004F002FCF8
:1012B0002748007A28B929A20721032004F01CFC42
:1012C00004E028A20721032004F016FC2048407AFD
:1012D000012805D125A20721042004F00DFC18E007
:1012E0001B48407A022805D123A20721042004F0DC
:1012F00003FC0EE01648407A032805D121A20721FD
:10130000042004F0F9FB04E021A20721042004F0EA
:10131000F3FB032005F0EEFEC82009F0C7F88AE7CA
:10132000566F6C746167653A20202E20202056008D
:1013300043757272656E743A202E202020410000A1
:10134000547261636B3A000053746174653A000033
:10135000703300200000002000007A44554E4F43B7
:10136000430000004F434320200000005741524EED
:10137000494E4721000000004641554C5421202091
:10138000000000004552524F522120202000000052
:101390004E4F524D414C20200000000010B500F08F
:1013A000F9F910BD2DE9F047A0B0824688E0802110
:1013B000684600F0A7F90746002F7CDD4548006825
:1013C0003844B0F5806F07DD0020424908604FF4D3
:1013D00080614148FEF72FFF3F493E4A1268881856
:1013E0003A466946FEF700FF3A48006838443949F2
:1013F00008603AA208460168374800F04BFD0446F1
:10140000002C57DB0025A846661D4DE03248805D64
:101410003A2848D1601D10E02F49095C302903DBD0
:101420002D49095C392900DD46E02B49095C30393A
:1014300005EB850201EB4205401CB042ECDB301BA2
:1014400000F10108002D2DDDB5F5407F2ADA214895
:101450000068001BA0EB0800A84222DB04EB080098
:101460001D4A81182A461F48FEF7BEFE00201D496E
:10147000485504EB080000EB050916480068A0EB8E
:101480000902154800EB0901FEF7AEFE114800689D
:10149000A0EB09000F490860124820B0BDE8F087B2
:1014A00009E000BF04E0761C0A4800688642ADDB14
:1014B00000BF00BF00BF00BF0A2008F0F7FF00BF59
:1014C000BAF10000AAF101011FFA81FA7FF46FAFAF
:1014D00000BFE2E7DC000020A03E00202B49504482
:1014E0002C000000A042002010B545A005F00EFE23
:1014F00003E04FF4FA7008F0D9FF43A143A000F0D5
:1015000085F90028F5D143A005F000FE03E04FF473
:10151000FA7008F0CBFF3CA141A000F077F9002859
:10152000F5D141A005F0F2FD03E04FF4FA7008F0A8
:10153000BDFF35A13FA000F069F90028F5D141A019
:1015400005F0E4FD03E04FF4FA7008F0AFFF2EA1C0
:101550003FA000F05BF90028F5D141A005F0D6FDD1
:1015600003E04FF4FA7008F0A1FF27A13FA000F0BC
:101570004DF90028F5D124A140A000F047F940F230
:10158000DC5008F093FF40A005F0C0FD03E040F6FA
:10159000B83008F08BFF3FA140A000F037F90028D9
:1015A000F5D141F2883008F081FF19E045A005F03F
:1015B000ADFD15A131A000F029F94FF47A7008F0C3
:1015C00075FF03E040F6B83008F070FF31A133A09A
:1015D00000F01CF90028F5D141F2883008F066FFD0
:1015E00040F6B83000F062FB0028DFD13DA005F0E6
:1015F0008DFD00F0CFF83EA005F088FD10BD000085
:10160000312E2041540D0A004F4B000041540D0A69
:1016100000000000322E20415445300D0A00000029
:10162000415445300D0A0000332E2043574D4F449E
:10163000450D0A0041542B43574D4F44453D310D54
:101640000A000000342E204349504D55580D0A0021
:1016500041542B4349504D55583D300D0A00000070
:10166000352E204357444843500D0A0041542B4324
:1016700057444843503D312C310D0A0041542B430F
:10168000575141500D0A0000362E2043574A415011
:101690000D0A0000474F54204950000041542B438D
:1016A000574A41503D22332D323031222C223238DC
:1016B000323533373133373233347A6869220D0AA1
:1016C0000000000057694669206E6F7420726561E2
:1016D00064792C207265636F6E6E6563742E2E2E96
:1016E0000D0A000057694669204F4B0D0A000000A3
:1016F0004553503832363620496E6974204F4B0DB1
:101700000A00000070B504460D4600260CB1002DFD
:1017100001DC002070BD08F0ABFD11E00E49088827
:10172000411C0D4A11800D490B5C3146761C6354F7
:1017300010460088B0F5006F02DB002011460880DB
:101740000548008806490988884201D0AE42E5DB99
:1017500008F0B8FD3046DDE7DA000020A0360020B2
:10176000D800002010B500224FF48051084801F045
:1017700095F94FF4FA7008F099FE0122110304481C
:1017800001F08CF941F2883008F090FE10BD0000A5
:10179000000C014010B5174802F0BAFB08F068FDD4
:1017A000002015490880154908804FF4006114484D
:1017B000FEF741FD4FF480711248FEF73CFD08F042
:1017C00081FD00BF00211048006809F0EBFB0128F3
:1017D000F8D04FF480720B49064802F0FAFA054837
:1017E000C06B0068006820F004000249C96B0968FA
:1017F000086010BD18020020DA000020D800002088
:10180000A0360020A03500200C0000202DE9F04774
:10181000ADF5607D06460F460024A146A24606B1FE
:1018200027B901200DF5607DBDE8F0876BA130463A
:10183000FEF718FD08B14FF001096BA13046FEF725
:1018400011FD08B14FF0010A4FF4407120A8FEF7D6
:10185000F2FC4FF0FF316748006809F0A3FBFFF787
:1018600099FF3046FEF71AFD85B24FF47A732A4687
:101870003146614802F0E4FD09F054FD80469CE0E9
:1018800080216846FFF73EFF0546002D72DD2946A0
:10189000684600F0B3FA6019B0F5407F05DB00241C
:1018A0004FF4407120A8FEF7C6FC20A908192A466B
:1018B0006946FEF799FC2C44002020A908553A46B9
:1018C000214620A800F0E6FA002808DB00231A468B
:1018D00019464848006809F0F1F80020A2E7B9F17C
:1018E000000F2DD045A2214620A800F0D3FA0028F1
:1018F00006DA44A2214620A800F0CCFA002808DB32
:1019000000231A4619463B48006809F0D7F8002022
:1019100088E741A2214620A800F0BCFA002806DA98
:1019200042A2214620A800F0B5FA002841DB00239E
:101930001A4619462F48006809F0C0F8012071E7DF
:10194000BAF1000F17D03BA2214620A800F0A2FA5E
:10195000002806DA39A2214620A800F09BFA0028C8
:1019600027DB00231A4619462248006809F0A6F82A
:10197000012057E71DE033A2214620A800F08AFA93
:1019800000280DDA2DA2214620A800F083FA0028B5
:1019900006DA21A2214620A800F07CFA002808DB04
:1019A00000231A4619461348006809F087F80120F9
:1019B00038E70A2008F07AFD00BF09F0B3FCA0EB7D
:1019C0000800B0F5FA5FFFF45BAF00231A46194632
:1019D0000848006809F072F8012023E741542B43BE
:1019E000495053544152540041542B43574A41509B
:1019F000000000001400002018020020434F4E4E4B
:101A000045435400414C524541445920434F4E4EAA
:101A100045435445440000006C696E6B2069732097
:101A20006E6F742076616C69640000006E6F2069CF
:101A3000700000002B43574A41503A004641494C40
:101A4000000000004552524F520000002DE9F041C5
:101A5000ADF5687D07460E46002407B126B9012082
:101A60000DF5687DBDE8F08133467CA220216846F3
:101A700005F05CFB4FF0FF317C48006809F092FAFA
:101A8000FFF78CFC6846FEF709FC85B24FF47A73C9
:101A90002A466946764802F0D3FC09F043FC8046AA
:101AA00000244FF4407128A8FEF7C5FB45E08021D3
:101AB00008A8FFF727FE0546002D3ADD294608A8AD
:101AC00000F09CF96019B0F5407F05DD00244FF46B
:101AD000407128A8FEF7AFFB28A908192A4608A9D3
:101AE000FEF782FB2C4463A2214628A800F0D2F91D
:101AF000002800DB29E060A2214628A800F0CAF9EE
:101B000000280DDA5EA2214628A800F0C3F90028BB
:101B100006DA5DA2214628A800F0BCF9002808DBFF
:101B200000231A4619465148006808F0C7FF0120F3
:101B300096E70A2008F0BAFC00BF09F0F3FBA0EB1F
:101B4000080040F6B8318842B1D300BF49A221460F
:101B500028A800F09FF9002808DA00231A46194641
:101B60004248006808F0AAFF012079E700244FF4FA
:101B7000407128A8FEF75FFB4FF4FA6332463946FE
:101B80003B4802F05DFC09F0CDFB804654E080212B
:101B900008A8FFF7B7FD0546002D49DD294608A82E
:101BA00000F02CF96019B0F5407F05DD00244FF4FA
:101BB000407128A8FEF73FFB28A908192A4608A962
:101BC000FEF712FB2C4435A2214628A800F062F94A
:101BD000002808DB00231A4619462448006808F04C
:101BE0006DFF00203CE72FA2214628A800F052F903
:101BF000002814DA20A2214628A800F04BF900287A
:101C00000DDA1FA2214628A800F044F9002806DAC0
:101C10001DA2214628A800F03DF9002808DB00237A
:101C20001A4619461148006808F048FF012017E7D6
:101C30000A2008F03BFC00BF09F074FBA0EB080091
:101C400041F288318842A2D300231A461946074838
:101C5000006808F033FF012002E7000041542B43E5
:101C6000495053454E443D25640D0A0014000020A0
:101C7000180200203E0000004552524F5200000062
:101C80004641494C000000006C696E6B206973206E
:101C90006E6F742076616C696400000053454E4499
:101CA000204F4B00434C4F5345440000F0B5D1B09A
:101CB000064600244FF4807111A8FEF7BCFA611E9D
:101CC0003A48006809F06EF9FFF764FD4FF47A7343
:101CD0000E2237A13A4802F0B3FB09F023FB074676
:101CE0004FE0402101A8FFF70DFD0546002D44DD22
:101CF0006019B0F5807F05DD00244FF4807111A8D4
:101D0000FEF799FA11A908192A4601A9FEF76CFAFB
:101D10002C44002011A908552AA111A8FEF7A2FA07
:101D200070B92BA111A8FEF79DFA48B92BA111A8F3
:101D3000FEF798FA20B92CA111A8FEF793FA70B11A
:101D40002CA111A8FEF78EFA48B900231A461946AD
:101D50001648006808F0B2FE002051B0F0BD25A181
:101D600011A8FEF77FFA40B100231A4619460F4822
:101D7000006808F0A3FE0120EFE70A2008F096FBB8
:101D800000BF09F0CFFAC11B4FF47A7070434FF4D3
:101D90007A72B0FBF2F08142A3D300231A461946AF
:101DA0000248006808F08AFE0120D6E714000020EF
:101DB00041542B4349505354415455530D0A00008C
:101DC000180200205354415455533A320000000089
:101DD0005354415455533A33000000005354415476
:101DE00055533A34000000005354415455533A358A
:101DF000000000006E6F2069700000002DE9F041C6
:101E0000C0B006460F4600240EB1002F02DC40B0E1
:101E1000BDE8F0814FF480716846FEF70CFA4FF090
:101E2000000821E016F808500D2D00D11AE00A2D07
:101E30000FD1002C15DD00200DF80400694612A01A
:101E400005F064F900244FF480716846FEF7F3F959
:101E500007E0202D05DB7E2D03DC2046641C0DF8F9
:101E6000005000BF08F10108B84501DAFE2CD9DBAB
:101E7000002C06DD00200DF80400694602A005F0E4
:101E800045F900BFC3E700004553503A2025730DC4
:101E90000A0000002DE9F04180460C4617463846FE
:101EA000FEF7FCF90546002C03DD002D01DDAC42F8
:101EB00003DA4FF0FF30BDE8F081002609E008EBBF
:101EC00006002A463946FEF7F0F908B93046F2E72F
:101ED000761C601BB042F2DA4FF0FF30EBE772B6CF
:101EE00000BFFEE738B5024600230020009000BF87
:101EF00092F82400012801D1022038BD012082F887
:101F0000240000BF4868072812D21068406B0C7983
:101F1000641E04EB84051F24AC40A0430D796D1EA4
:101F200005EB85050C68AC4020431468606327E02E
:101F300048680D2812D21068006B0C79E41F04EB7E
:101F400084051F24AC40A0430D79ED1F05EB8505EA
:101F50000C68AC4020431468206311E01068C06A2C
:101F60000C790D3C04EB84051F24AC40A0430D7993
:101F70000D3D05EB85050C68AC4020431468E0621C
:101F800008680A2812D31068C0680C780A3C04EB71
:101F900044050724AC40A0430D780A3D05EB4505F8
:101FA0008C68AC4020431468E0600FE01068006962
:101FB0000C7804EB44050724AC40A0430D7805EBF6
:101FC00045058C68AC4020431468206108681028DF
:101FD00002D00868112827D1174C1068A0421ED1E2
:101FE0001068806800F40000F0B91068806840F460
:101FF00000001468A0600868102815D10F48006818
:102000000F4CB0FBF4F000EB80004000009002E0C9
:102010000098401E009000980028F9D104E0906AD2
:1020200040F020009062012300BF002082F82400CD
:1020300000BF184661E70000002401402C0000208A
:1020400040420F0070477047704700002DE9F04193
:102050000446002700250026A84614B90120BDE843
:10206000F081A06810B1207D00B100BFA06A30B936
:102070000020E06284F82400204600F089F8204621
:10208000FEF7B3FD0746A06A00F01000002873D1E8
:10209000002F71D1A06A20F4885040F00200A062A5
:1020A000E16960680843217B40EA41000643A0687B
:1020B000B0F5807F02D0A068012802D14FF4807073
:1020C00000E000200543207D012811D1207B38B994
:1020D000A069401E4FF4006141EA4030054307E02B
:1020E000A06A40F02000A062E06A40F00100E062D7
:1020F0002068406820F469402843216848602068CF
:10210000806821490840304321688860A068B0F5A4
:10211000807F02D0A068012802D14FF4807000E0D7
:102120000020B0F5807F03D1208A401E4FEA00587E
:102130002068C06A20F4700040EA08002168C86284
:102140002068806811490840B04208D10020E06250
:10215000A06A20F0020040F00100A06211E0A06A35
:1021600020F0020040F01000A062E06A40F00100A0
:10217000E062012705E0FFE7A06A40F01000A062DE
:10218000012738466BE70000FDF7E1FFFE0E1FFF59
:1021900010B586B00446002002900390049005908C
:1021A0002249206888423ED100BF2148806940F41E
:1021B00000701F4988610846806900F40070019032
:1021C00000BF00BF00BF0846806940F0040088617E
:1021D0000846806900F00400019000BF00BF0E2097
:1021E00002900320039002A9124800F0BDFA1248A1
:1021F0001249086000204860002110488160802159
:10220000C160490001618900416120218161C901EA
:10221000C16100F027FA08B1FFF761FE00BF07486F
:102220002062446200BF06B010BD000000240140DF
:102230000010024000080140080002402C0100206C
:102240002DE9F04104460D461646002757492068FF
:10225000884203D056492068884205D15348001D62
:10226000006800F4702000E0002000287ED100BF4C
:1022700094F82400012802D10220BDE8F081012059
:1022800084F8240000BF2046FEF71CFD0746002FFF
:102290006DD1A06A40F60161884340F48070A0626D
:1022A00043492068884209D14048001D006800F475
:1022B000702008B9012002E0002000E0012078B180
:1022C000A06A20F48010A0622068406800F480605A
:1022D00000B3A06A20F4005040F48050A06219E0DE
:1022E000A06A40F48010A06230492068884203D080
:1022F0002F492068884205D12C48001D006800F451
:10230000806000E0002028B1A06A20F4005040F472
:102310008050A062A06A00F4805020B1E06A20F0F2
:102320000600E06201E00020E06200BF002084F8C7
:10233000240000BF1F48216A88621F48216AC862C2
:102340001E48216A08636FF0020021680860206857
:10235000806840F4807021688860226802F14C0136
:1023600033462A46206A00F0B1F901E01AE014E091
:102370002068806800F46020B0F5602F06D12068E6
:10238000806840F4A000216888600CE020688068C4
:1023900040F480102168886005E000BF002084F8C8
:1023A000240000E00127384667E7000000240140D0
:1023B00000280140470C0008B70C0008990C0008E1
:1023C0000146002291F82100022808D004208863E9
:1023D00000BF002081F8200000BF0120704708687E
:1023E000006820F00E000B6818600868006820F094
:1023F00001000B68186091F8403001209840CB6BC9
:102400005860012081F8210000BF002081F82000E1
:1024100000BF1046E2E7000070B50446002594F8BE
:102420002100022803D00420A063012548E0206891
:10243000006820F00E00216808602068006820F025
:102440000100216808601F492068884201D10120ED
:1024500026E01C4914312068884201D110201FE079
:10246000184928312068884201D1801518E01549A3
:102470003C312068884201D1801411E0114950316B
:102480002068884202D14FF4803009E00D49643160
:102490002068884202D14FF4801001E04FF0807034
:1024A000084908394860012084F8210000BF002055
:1024B00084F8200000BF606B10B12046616B884734
:1024C000284670BD0800024070B50446E06B056800
:1024D0002068066894F840100420884028400028AE
:1024E00046D006F00400002842D02068006800F0C2
:1024F000200028B92068006820F0040021680860E6
:1025000057492068884201D1042027E054491431FA
:102510002068884201D1402020E0514928312068BC
:10252000884201D1001519E04D493C3120688842AC
:1025300002D14FF4804011E049495031206888426F
:1025400002D14FF4802009E0454964312068884277
:1025500002D14FF4800001E04FF08060404908391B
:102560004860E06A00287AD02046E16A884776E031
:1025700094F84010022088402840A0B306F00200E2
:1025800088B32068006800F0200040B92068006827
:1025900020F00A0021680860012084F821003049F9
:1025A0002068884201D1022028E02D49143120689A
:1025B000884201D1202021E0294928312068884221
:1025C00001D140151AE026493C312068884202D1E9
:1025D0004FF4005012E0224950312068884203D164
:1025E0004FF400300AE017E01D496431206888424A
:1025F00002D14FF4001001E04FF000701849083983
:10260000486000BF002084F8200000BFA06A30B3FB
:102610002046A16A884722E094F8401008208840AC
:102620002840E0B106F00800C8B12068006820F03A
:102630000E002168086094F8401001208840E16B8A
:1026400048600120A06384F8210000BF002084F8C6
:10265000200000BF206B10B12046216B884770BD61
:10266000080002400146002209B901207047164BBC
:102670000868C01A1423B0FBF3F080000864124805
:102680000838C863022081F821000868026843F610
:10269000F0708243D1E901031843CB6818430B69FA
:1026A00018434B6918438B691843CB69184302439D
:1026B0000868026000208863012081F82100002062
:1026C00081F8200000BFD1E7080002402DE9F04169
:1026D00004460D4616461F464FF0000800BF94F80A
:1026E0002000012802D10220BDE8F081012084F8F9
:1026F000200000BF94F8210001282CD1022084F88A
:1027000021000020A0632068006820F001002168FB
:1027100008603B46324629462046FEF75DFDE06AEA
:1027200030B12068006840F00E00216808600BE0BE
:102730002068006820F004002168086020680068B4
:1027400040F00A00216808602068006840F001003D
:102750002168086006E000BF002084F8200000BF68
:102760004FF002084046BFE72DE9F8470346002234
:1027700094466EE14FF0010808FA02F4D1F80080A7
:1027800008EA0400A0427DD1DFF8DCA2D1F8048081
:10279000A8EB0A09D0453AD014DCB8F1030F50D0A9
:1027A00009DCB8F1000F31D0B8F1010F1CD0B8F13D
:1027B000020F49D120E0B8F1110F18D0B8F1120F73
:1027C00042D11EE0B9F5881F25D006DCB9F5803F5F
:1027D00020D0B9F5801F37D11AE0B9F5001F18D005
:1027E000B9F5041F30D117E0D1F80CC02DE0D1F8B5
:1027F0000C8008F1040C28E0D1F80C8008F1080CDA
:1028000023E0D1F80C8008F10C0C1EE000BF00BFE3
:1028100000BF00BF00BF00BFD1F80880B8F1000FB3
:1028200002D14FF0040C0BE0D1F80880B8F1010F91
:1028300003D14FF0080C1C6102E04FF0080C5C6102
:1028400003E04FF0000C00E000BF00BFFF2801D8FC
:10285000984601E003F104084646FF2802D84FEAF3
:10286000820803E0A2F108084FEA88084746D6F834
:1028700000804FF00F0909FA07F928EA09080CFA55
:1028800007F900E088E048EA0908C6F80080D1F8B6
:10289000048008F08058B8F1805F7DD100BFDFF878
:1028A000CC81D8F8188048F00108DFF8C091C9F849
:1028B0001880C846D8F8188008F00108CDF80080C4
:1028C00000BF00BF4FEAB9384FEA920958F82950C3
:1028D0004FEA82784FEA18794FF00F0808FA09F8A2
:1028E00025EA0805DFF88881434502D14FF000084A
:1028F00016E0DFF88081434502D14FF001080FE078
:10290000DFF87481434502D14FF0020808E0DFF898
:102910006C81434502D14FF0030801E04FF00408F9
:102920004FEA82794FEA197908FA09F848EA050569
:10293000DFF84C814FEA920948F82950D1F8048019
:1029400008F48018B8F5801F0AD1DFF83881D8F86C
:10295000008048EA0008DFF82C91C9F8008009E0FF
:10296000DFF82081D8F8008028EA0008DFF8149109
:10297000C9F80080D1F8048008F40018B8F5001FE9
:1029800010D1DFF8008108F10408D8F8008048EA87
:102990000008DFF8F09000E05AE009F10409C9F8F6
:1029A00000800DE0DFF8DC8008F10408D8F8008032
:1029B00028EA0008DFF8CC9009F10409C9F8008082
:1029C000D1F8048008F40038B8F5003F0ED1DFF8E4
:1029D000B480A8F10408D8F8008048EA0008DFF8BD
:1029E000A490A9F10409C9F800800DE0DFF89480F3
:1029F000A8F10408D8F8008028EA0008DFF88490DD
:102A0000A9F10409C9F80080D1F8048008F48038DD
:102A1000B8F5803F0ED1DFF86C80A8F10808D8F82F
:102A2000008048EA0008DFF85C90A9F10809C9F8BD
:102A300000800DE0DFF84C80A8F10808D8F800808D
:102A400028EA0008DFF83C90A9F10809C9F80080DD
:102A5000521CD1F8008028FA02F8B8F1000F7FF478
:102A600089AEBDE8F8870000000011100010024098
:102A700000080140000C014000100140001401401A
:102A8000080001400804014010B5C26821EA0203B1
:102A900002EA010443EA0443036110BD0AB1016183
:102AA00001E00B04036170470148006870470000B3
:102AB0002000002070B504460CB9012070BD94F8C8
:102AC0003D0028B9002084F83C00204600F092F92F
:102AD000242084F83D002068006820F0010021686F
:102AE00008602068006840F40040216808602068A1
:102AF000006820F400402168086000F07DFC054675
:102B00005C496068884206D85B48854201D2012052
:102B100007E0002005E05948854201D2012000E08D
:102B20000020012800D1C9E75548B5FBF0F6206820
:102B3000406820F03F003043216848604D4960689C
:102B4000884201D8701C07E04FF4967070434FF430
:102B50007A71B0FBF1F0401C2168096A21F03F0155
:102B600008432168086243496068884214D8681E97
:102B700061684900B0FBF1F0401CC0F30B00042871
:102B800001D204203DE0681E61684900B0FBF1F00D
:102B9000401CC0F30B0034E0A06838B9681E6168BF
:102BA00001EB4101B0FBF1F0401C0AE0681E6168D6
:102BB00001EBC10202EB0111B0FBF1F0401C40F44B
:102BC0008040C0F30B0008B901201AE0A06848B9A2
:102BD000681E616801EB4101B0FBF1F0401CC0F3DD
:102BE0000B000CE0681E616801EBC10202EB0111F1
:102BF000B0FBF1F0401CC0F30B0040F4804040F407
:102C000000402168C9694CF6FF729143084321686E
:102C1000C861D4E9070108432168096821F0C001AF
:102C2000084321680860D4E90310084321688968D3
:102C300048F2FF329143084321688860D4E90501D6
:102C400008432168C96821F0FF0108432168C86072
:102C50002068006840F001002168086000202064BE
:102C6000202084F83D000020206384F83E0000BF4F
:102C700024E70000A086010080841E0000093D00BA
:102C800040420F002DE9F8430446894616461F4688
:102C9000DDF82080FFF708FF054694F83D00202866
:102CA0007ED11923012251492046009501F0D7FC1D
:102CB00010B10220BDE8F88300BF94F83C00012861
:102CC00001D10220F6E7012084F83C0000BF206813
:102CD000006800F0010028B92068006840F0010099
:102CE000216808602068006820F40060216808609E
:102CF000212084F83D00102084F83E00002020644C
:102D000066626785608D20853948E0622B464246C1
:102D10004946204601F010FC08B10120CAE700BF77
:102D20000020009020684069009020688069009031
:102D300000BF00BF44E02A464146204601F06BFD3B
:102D400050B1206C042805D12068006840F4007060
:102D5000216808600120ADE7606A00782168086199
:102D6000606A401C6062608D401E6085208D401E40
:102D7000208520684069C0F3800070B1208D60B16B
:102D8000606A007821680861606A401C6062608D3A
:102D9000401E6085208D401E20852A46414600E069
:102DA00022E0204601F028FC50B1206C042805D117
:102DB0002068006840F4007021680860012079E70D
:102DC000208D0028B7D12068006840F40070216889
:102DD0000860202084F83D00002084F83E0000BFF9
:102DE00084F83C0000BF65E7022063E702001000A2
:102DF0000000FFFF10B586B004460020029003904B
:102E00000490059015492068884225D100BF1448D8
:102E1000806940F00800124988610846806900F026
:102E20000800019000BF00BFC02002901220039054
:102E30000320059002A90B48FFF796FC00BF084845
:102E4000C06940F400100649C8610846C06900F432
:102E50000010019000BF00BF06B010BD005400403C
:102E600000100240000C014070B504460CB901206E
:102E700070BD4CF6CC402168086045F25550216881
:102E80000860D4E9001048602168A0688860FFF7F6
:102E90000BFE05460BE0FFF707FE401B272806D96F
:102EA0002068C06800F0030008B10320E0E7206854
:102EB000C06800F003000028EDD14AF6AA2021687E
:102EC00008600020D4E701464AF6AA200A6810608C
:102ED0000020704703480068034909780844014905
:102EE00008607047200000202800002010B5084826
:102EF000006840F0100006490860032000F0E2F886
:102F00000F2000F007F800F05FF8002010BD00006F
:102F1000002002402DE9F04188B004460027B84661
:102F2000002600BF2348C06940F004002149C86161
:102F30000846C06900F00400019000BF00BF02A96C
:102F400003A800F031FA069F1FB900F055FA0546B4
:102F500002E000F051FA45001748B5FBF0F0A0F18F
:102F6000010816481649086040F2E7311448C1606C
:102F7000C0F80480002101618160816100F00AFDD8
:102F8000064696B90E4800F087FD06466EB91E202B
:102F900000F04AF8102C07D2002221461E2000F033
:102FA00053F80848046000E00126304608B0BDE848
:102FB000F08100000010024040420F000008004075
:102FC000EC0200202400002008B500BF14488069EE
:102FD00040F00100124988610846806900F0010054
:102FE000009000BF00BF00BF0846C06940F080509D
:102FF000C8610846C06900F08050009000BF00BF63
:1030000000220F21901E00F01FF800BF05494868FC
:1030100020F0E06040F00070486000BF08BD000094
:10302000001002400000014001460846002809DB6C
:1030300000F01F0301229A4043099B0003F1E023A3
:10304000C3F8002100BF70472DE9F05F80460D46B0
:103050001646002704F0AAF8074639462A463346A2
:1030600001F00700C0F1070ABAF1040F02D94FF0CE
:10307000040A01E0C0F1070AD14600F1040ABAF1DE
:10308000070F02D24FF0000A01E0A0F1030AD44674
:103090004FF0010A0AFA09FAAAF1010A0AEA020A39
:1030A0000AFA0CFA4FF0010B0BFA0CFBABF1010B17
:1030B0000BEA030B4AEA0B042146404604F07EF873
:1030C000BDE8F09F00BF00F00702064B19684FF6FD
:1030D000FF031940044B0B4343EA0221014B1960E3
:1030E00000BF70470CED00E00000FA05F8B504469B
:1030F00000260025207800F0010000286BD0002772
:103100004348C06900F0805070B900BF4048C069B2
:1031100040F080503E49C8610846C06900F08050C8
:10312000009000BF00BF01273A48006800F480709B
:10313000B0B93848006840F4807036490860FFF73D
:10314000B3FC064606E0FFF7AFFC801B642801D9FC
:103150000320F8BD2F48006800F480700028F2D0EA
:103160002B48006A00F440752DB3A08800F440702D
:10317000A84220D02648006A20F440750120264944
:103180000860002008602248056205F0010090B147
:10319000FFF78AFC064608E0FFF786FC801B41F239
:1031A0008831884201D90320D3E71948006A00F02A
:1031B00002000028F0D01648006A20F440706168D0
:1031C000084313490862012F04D10846C06920F062
:1031D0008050C86100BF207800F00200022807D1AB
:1031E0000B48406820F44040A16808430849486003
:1031F000207800F01000102807D10548406820F41E
:103200008000E1680843024948600020A1E700000F
:1032100000100240007000404004424270B5044675
:103220000D460CB9012070BD5A48006800F0070037
:10323000A8420ED25748006820F00700284355499D
:1032400008600846006800F00700A84201D001208D
:10325000E9E7207800F0020002281DD1207800F074
:103260000400042805D14C48406840F4E0604A4915
:103270004860207800F00800082805D146484068DA
:1032800040F46050444948604348406820F0F000F2
:10329000A168084340494860207800F0010078B3F5
:1032A0006068012806D13C48006800F4003090B9FD
:1032B0000120B8E76068022806D13748006800F0AE
:1032C000007040B90120AEE73348006800F002000A
:1032D00008B90120A7E73048406820F00300616882
:1032E00008432D494860FFF7DFFB064609E0FFF77A
:1032F000DBFB801B41F28831884202D9032092E730
:1033000007E02548406800F00C006168B0EB810FD1
:10331000EDD12048006800F00700A8420ED91D48F2
:10332000006820F0070028431A4908600846006832
:1033300000F00700A84201D0012074E7207800F0D7
:103340000400042807D11448406820F4E060E168D4
:10335000084311494860207800F00800082808D187
:103360000D48406820F46050216940EAC1000A49D4
:10337000486000F061F808494968C1F30311074A41
:10338000515CC8400649086006480068FFF7C2FD66
:10339000002048E700200240001002408AB80008E0
:1033A0002C000020240000200F2202600D4A5268E9
:1033B00002F0030242600B4A526802F0F00282609F
:1033C000084A526802F4E062C260064A526802F497
:1033D0006052D2080261044A126802F007020A60D1
:1033E00070470000001002400020024001480068C1
:1033F000704700002C00002000B5FFF7F7FF0449DC
:103400004968C1F30221034A515CC84000BD000075
:10341000001002409AB8000800B5FFF7E7FF044922
:103420004968C1F3C221034A515CC84000BD000095
:10343000001002409AB8000870B500210022002454
:1034400000230020134D696801F00C05F5B1042D2F
:1034500002D0082D19D101E00F4819E00F4DC1F33A
:103460008346AB5D01F4803555B10A4D6D68C5F3F7
:1034700040450B4E725D084D5D43B5FBF2F402E032
:10348000084D03FB05F4204602E000BF024800BFE0
:1034900000BF70BD0010024000127A0078B800082A
:1034A00088B8000800093D00F8B504460CB90120B1
:1034B000F8BD207800F00100002878D0F848406876
:1034C00000F00C0004280CD0F548406800F00C0017
:1034D000082811D1F248406800F48030B0F5803FF0
:1034E0000AD1EF48006800F4003000285FD060681F
:1034F00000285CD10120DBE700BF6068B0F5803FA9
:1035000006D1E748006840F48030E549086028E0CB
:10351000606858B9E248006820F48030E0490860EB
:103520000846006820F4802008601AE06068B0F562
:10353000A02F0BD1DA48006840F48020D8490860F9
:103540000846006840F4803008600AE0D44800680B
:1035500020F48030D24908600846006820F48020BA
:10356000086000BF606888B1FFF79EFA054606E074
:10357000FFF79AFA401B642801D9032098E7C8484E
:10358000006800F400300028F2D010E0FFF78CFA59
:10359000054606E0FFF788FA401B642801D903209E
:1035A00086E7BF48006800F400300028F2D1207898
:1035B00000F00200022857D1B948406800F00C0022
:1035C00050B1B748406800F00C00082818D1B44842
:1035D000406800F4803098B9B148006800F00200FB
:1035E00020B12069012801D0012061E7AC480068C2
:1035F00020F0F800616940EAC100A949086033E0A1
:103600002069E8B10120A7490860FFF74DFA054697
:1036100006E0FFF749FA401B022801D9032047E7DB
:103620009F48006800F002000028F2D09C48006823
:1036300020F0F800616940EAC1009949086013E090
:10364000002098490860FFF72FFA054606E0FFF7CB
:103650002BFA401B022801D9032029E79048006873
:1036600000F002000028F2D1207800F008000828BD
:103670002DD1A069B8B101208B490860FFF714FA79
:10368000054606E0FFF710FA401B022801D9032087
:103690000EE78348406A00F002000028F2D00120C3
:1036A00003F02EF813E000207F490860FFF7FCF9D3
:1036B000054606E0FFF7F8F9401B022801D9032070
:1036C000F6E67748406A00F002000028F2D1207840
:1036D00000F00400042873D100277148C06900F08D
:1036E000805070B900BF6E48C06940F080506C498E
:1036F000C8610846C06900F08050009000BF00BF5C
:1037000001276A48006800F48070B0B96748006813
:1037100040F4807065490860FFF7C6F9054606E089
:10372000FFF7C2F9401B642801D90320C0E65F48B7
:10373000006800F480700028F2D000BFE068012823
:1037400006D15748006A40F001005549086227E059
:10375000E06858B95248006A20F0010050490862F8
:103760000846006A20F00400086219E0E0680528B5
:103770000BD14B48006A40F00400494908620846F2
:10378000006A40F0010008620AE04548006A20F043
:103790000100434908620846006A20F004000862FC
:1037A00000BFE068A0B1FFF77FF9054609E0FFF729
:1037B0007BF9401B41F28831884202D9032077E629
:1037C00022E03748006A00F002000028EFD012E043
:1037D000FFF76AF9054608E0FFF766F9401B41F27A
:1037E0008831884201D9032062E62D48006A00F042
:1037F00002000028F0D1012F05D12948C06920F02E
:1038000080502749C86100BFE069C8B324484068B8
:1038100000F00C00082860D0E069022848D10020A0
:1038200020490866FFF740F9054606E0FFF73CF936
:10383000401B022801D903203AE61948006800F02D
:1038400000700028F2D1206AB0F5803F07D11448FB
:10385000406820F40030A168084311494860D4E969
:10386000080108430E49496821F4741108430C49C2
:10387000486001200B490866FFF716F9054607E086
:103880003DE0FFF711F9401B022801D903200FE6A4
:103890000348006800F000700028F2D02FE000001C
:1038A000001002400000424280044242007000408A
:1038B000002014490866FFF7F7F8054606E0FFF711
:1038C000F3F8401B022801D90320F1E50E480068F7
:1038D00000F000700028F2D111E0E069012800D169
:1038E000E6E50948466806F48031206A814204D141
:1038F00006F47011606A814201D00120D8E50020F1
:10390000D6E50000000042420010024070477047B8
:1039100030B502460B4600BF92F83C00012801D1A9
:10392000022030BD012082F83C0000BF022082F856
:103930003D00106844681068816824F070041868BD
:10394000044310684460104D1068A8420BD0106802
:10395000B0F1804F07D00D4D1068A84203D00C4D38
:103960001068A84205D121F0800158680143106811
:103970008160012082F83D0000BF002082F83C00F9
:1039800000BF00BFCDE70000002C01400004004054
:103990000008004010B504460CB9012010BD94F891
:1039A0003D0028B9002084F83C00204600F026F8AD
:1039B000022084F83D00211D206802F083FF0120D1
:1039C00084F8460000BF84F83E0001213F200155E5
:1039D000402001554120015500BF00BF012084F85F
:1039E000420043200155442001554520015500BFA8
:1039F000012084F83D000020D0E7000008B5094A06
:103A0000016891420DD100BF0749C96941F0020127
:103A1000054AD1611146C96901F00201009100BF58
:103A200000BF08BD0004004000100240014691F8AC
:103A30003D00012801D001207047022081F83D009F
:103A4000124B086898420BD00868B0F1804F07D03D
:103A50000F4B0868984203D00E4B086898420CD16F
:103A60000868806800F00702062A0CD00868006821
:103A700040F001000B68186005E00868006840F03D
:103A800001000B6818600020D6E70000002C014000
:103A90000004004000080040014691F83D00012864
:103AA00001D001207047022081F83D000868C068FD
:103AB00040F001000B68D860124B086898420BD0A8
:103AC0000868B0F1804F07D00F4B0868984203D0C8
:103AD0000E4B086898420CD10868806800F0070215
:103AE000062A0CD00868006840F001000B681860D6
:103AF00005E00868006840F001000B6818600020CD
:103B0000D0E70000002C0140000400400008004005
:103B10002DE9F04104460D46002700BF94F83C0013
:103B2000012802D10220BDE8F081012084F83C0088
:103B300000BF022084F83D002068866826F07706E2
:103B400026F47F46206886602868502833D00CDC35
:103B5000202850D004DC00284BD0102851D149E057
:103B6000302849D040284CD139E060282DD0702829
:103B700007D0B0F5805F03D0B0F5005F41D10DE014
:103B800041E0D5E902136A68206802F0D5FE20689A
:103B9000866846F077062068866034E0D5E902132F
:103BA0006A68206802F0C8FE2068806840F480409F
:103BB0002168886027E0EA686968206802F0D0FE22
:103BC0005021206802F0C3FE1DE0EA6869682068A1
:103BD00002F0D9FE6021206802F0B9FE13E0EA6825
:103BE0006968206802F0BCFE4021206802F0AFFE48
:103BF00009E000BF00BF00BF2968206802F0A7FEEF
:103C000001E0012700BF00BF012084F83D0000BF94
:103C1000002084F83C0000BF384684E7704710B5A8
:103C2000044620680069C0F34000D8B12068C0682D
:103C3000C0F34000B0B16FF00200216808610120BC
:103C400020772068806900F0030018B12046FFF754
:103C5000E5FF05E0204600F0ADF8204600F0ABF8A7
:103C60000020207720680069C0F38000D8B1206868
:103C7000C068C0F38000B0B16FF004002168086133
:103C8000022020772068806900F4407018B1204637
:103C9000FFF7C4FF05E0204600F08CF8204600F056
:103CA0008AF80020207720680069C0F3C000D8B1EE
:103CB0002068C068C0F3C000B0B16FF00800216890
:103CC0000861042020772068C06900F0030018B163
:103CD0002046FFF7A3FF05E0204600F06BF82046E2
:103CE00000F069F80020207720680069C0F3001018
:103CF000D8B12068C068C0F30010B0B16FF01000F8
:103D000021680861082020772068C06900F44070AD
:103D100018B12046FFF782FF05E0204600F04AF880
:103D2000204600F048F8002020772068006900F065
:103D3000010058B12068C06800F0010030B16FF098
:103D4000010021680861204600F036F8206800690B
:103D5000C0F3C01058B12068C068C0F3C01030B1C3
:103D60006FF08000216808612046FFF7CFFD2068D2
:103D70000069C0F3801058B12068C068C0F380109B
:103D800030B16FF0400021680861204600F020F853
:103D900020680069C0F3401058B12068C068C0F3C3
:103DA000401030B16FF02000216808612046FFF715
:103DB000AEFD10BD7047704710B50446034920683A
:103DC000884201D1FFF786F810BD000000080040CE
:103DD0007047F8B504460E46174694F8420020286E
:103DE0002ED106B10FB90120F8BD012020630020BB
:103DF00060633A463146204602F0CCFF0546EDB9F5
:103E0000206B012819D100BF0020009020680068B5
:103E1000009020684068009000BF00BF00BF00BF56
:103E200021680C3151E8001F41F0100021680C316D
:103E300041E80002002AF3D100E001252846D3E73B
:103E40000220D1E7F8B504460D462949206888428A
:103E50004CD10020009000BF21E0264A1288521C5D
:103E600091B2B1F5006F00DB0021234A1288914224
:103E70000BD1214A1288521C1F4B1A801A461288F5
:103E8000B2F5006F01DB00221A801C4A125C1C4B49
:103E9000184E36889A55174A1180411C88B2A8429C
:103EA000DBDB4FF480711548FCF7C5F9694615480E
:103EB000006806F053FF4FF4807210491248FFF774
:103EC00088FF1148C06B0068006820F004000E49AC
:103ED000C96B09680860009838B14FF080500B49F1
:103EE0000860BFF34F8FBFF36F8F00BFF8BD0000B6
:103EF00000380140D8000020DA000020A035002062
:103F0000A03600200C0000201802002004ED00E084
:103F100070B50446002520684069C0F3C01594F8C8
:103F20004100212817D1B5B100BF00BF216814316D
:103F300051E8001F21F080002168143141E800029F
:103F4000002AF3D100BFA06B10B1A06BFEF738FAC6
:103F5000204602F010FE20684069C0F3801594F8F6
:103F60004200222817D1B5B100BF00BF216814312B
:103F700051E8001F21F040002168143141E800029F
:103F8000002AF3D100BFE06B10B1E06BFEF718FA26
:103F9000204602F0AAFD002070BD70472DE9F84FC1
:103FA0000446206805682068C668206847694FF0A5
:103FB0000009CA4605F00F09B9F1000F0AD105F052
:103FC000200038B106F0200020B1204602F0E6FDC6
:103FD000BDE8F88FB9F1000F7BD007F0010018B9E8
:103FE00006F49070002874D005F0010030B106F49A
:103FF000807018B1606C40F00100606405F004004E
:1040000030B107F0010018B1606C40F0020060644C
:1040100005F0020030B107F0010018B1606C40F00B
:104020000400606405F0080048B106F0200010B9F3
:1040300007F0010018B1606C40F008006064606C2B
:10404000002845D005F0200028B106F0200010B16E
:10405000204602F0A3FD20684069C0F3801A606C1E
:1040600000F0080010B9BAF1000F2CD0204602F081
:104070003CFD2068406900F0400000B300BF00BF75
:104080002168143151E8001F21F0400021681431EB
:1040900041E80002002AF3D100BFE06B50B177483D
:1040A000E16B4863E06BFEF7B7F988B1E06B416BF9
:1040B00088470DE02046FFF770FF09E009E0204641
:1040C000FFF76BFF04E02046FFF767FF0020606406
:1040D0007EE7206B012877D105F01000002873D00F
:1040E00006F010000028FAD000BF002000902068E1
:1040F0000068009020684068009000BF00BF206802
:10410000406900F0400000285FD0E06B0068406824
:104110001FFA80F8B8F1000F55D0A08D404552DD50
:10412000A4F82E80E06B8069202843D000BF00BF38
:1041300021680C3151E8001F21F4807021680C3196
:1041400041E80002002AF3D100BF00BF00BF216890
:10415000143151E8001F21F001002168143141E8B9
:104160000002002AF3D100BF00BF00BF2168143154
:1041700051E8001F21F040002168143141E800029D
:10418000002AF3D100BF202084F8420000202063E1
:1041900000BF00BF21680C3151E8001F21F0100062
:1041A00021680C3141E80002002AF3D100BFE06B26
:1041B000FEF706F902206063A08DE28D801A81B2BD
:1041C0002046FFF73FFE03E742E0A08DE18D401A55
:1041D0001FFA80F8E08DD0B3B8F1000F37D000BFE0
:1041E00000BF21680C3151E8001F21F49070216854
:1041F0000C3141E80002002AF3D100BF00BF00BF2C
:104200002168143151E8001F21F0010021681431A8
:1042100041E80002002AF3D100BF202084F84200C8
:104220000020206300BF00BF21680C3151E8001F4F
:1042300021F0100021680C3141E80002002AF3D17E
:1042400000BF0220606341462046FFF7FBFDBFE64A
:1042500005F0800030B106F0800018B1204602F071
:10426000FDFDB5E605F0400030B106F0400018B1A4
:10427000204602F070FCABE600BFA9E6AF6900087B
:1042800010B504460CB9012010BDA06900B100E0D2
:1042900000BF94F8410028B9002084F8400020466F
:1042A00000F02AF8242084F841002068C06820F437
:1042B00000502168C860204602F0EEFC20680069CA
:1042C00020F49040216808612068406920F02A00AD
:1042D000216848612068C06840F400502168C860C7
:1042E00000206064202084F8410084F8420000200F
:1042F000606300BFC8E7000010B586B00446002028
:10430000029003900490059045492068884252D15C
:1043100000BF4448806940F48040424988610846B3
:10432000806900F48040019000BF00BF00BF0846D4
:10433000806940F0040088610846806900F004004C
:10434000019000BF00BF4815029002200390032097
:10435000059002A93448FEF707FA4FF480600290F6
:1043600000200390049002A92F48FEF7FDF92F4882
:104370002F4908600020486000212D48816080217D
:10438000C16000210161416120218161C901C161D8
:10439000FEF768F908B1FDF7A2FD00BF2448E0630D
:1043A000446200BF002205212520FEF74DFE252096
:1043B000FEF73AFE32E01F49206888422ED100BF46
:1043C0001848C06940F480201649C8610846C06991
:1043D00000F48020019000BF00BF00BF0846806944
:1043E00040F0080088610846806900F008000190EC
:1043F00000BF00BF08150290022003900320059023
:1044000002A90D48FEF7B0F94FF4006002900020B9
:104410000390049002A90848FEF7A6F906B010BD63
:1044200000380140001002400008014058000240DE
:10443000A802002000480040000C0140704770476F
:104440002DE9F84F04460E46174699464FF0000AEC
:1044500094F8410020284AD106B117B90120BDE8DF
:10446000F88F00206064212084F84100FEF71CFBD7
:104470008246A784E784A068B0F5805F04D12069F4
:1044800010B90025B04602E035464FF000081BE0A9
:104490005346002280212046CDF8009002F00EFD08
:1044A00008B10320DBE745B9B8F80000C0F3080005
:1044B0002168486008F1020803E028782168486014
:1044C0006D1CE08C401EE084E08C0028E0D1534657
:1044D000002240212046CDF8009002F0EFFC08B108
:1044E0000320BCE7202084F841000020B7E7022029
:1044F000B5E7704700BFFEE7014608684069C0F3B2
:104500008020B0B16FF480600A68506100200863B9
:10451000202081F83D00002081F83E00086C40F02A
:104520000400086400BF002081F83C0000BF0120A7
:1045300070470020FCE700002DE9F84304460D46D3
:1045400017469846E66A082E04D0012E02D016F5CA
:10455000803F06D12068006840F4807021680860C0
:1045600008E0206B122805D12068006840F48070B4
:10457000216808603B4600224FF001112046CDF82B
:10458000008000F06CF860B12068006800F4807072
:10459000B0F5807F02D14FF4007020640320BDE8A5
:1045A000F8832069B0F5804F04D105F0FE00216842
:1045B000086112E005F44070F02141EAE010216842
:1045C000086143463A460B49204600F0A7F808B177
:1045D0000120E4E7E8B22168086143463A4605490C
:1045E000891F204600F09AF808B10120D7E7002083
:1045F000D5E700000800010070B504460D461646D8
:1046000025E02046FFF778FF08B1012070BD681C47
:10461000E8B1FEF749FA801BA84200D8BDB920686E
:104620004069C0F3800090B900202063202084F806
:104630003D00002084F83E00206C40F02000206403
:1046400000BF002084F83C0000BF0120DEE72068A6
:104650004069C0F380000028D3D00020D6E72DE9C0
:10466000F04104460D4617461E46DDF8188038E036
:10467000701CA8B3FEF718FAA0EB0800B04200D8EF
:1046800076BBC5F3074001280AD120684069A9B26A
:104690000840A9B2884201D101200BE0002009E0C6
:1046A00020688069A9B20840A9B2884201D10120DE
:1046B00000E00020B84214D100202063202084F8BC
:1046C0003D00002084F83E00206C40F02000206473
:1046D00000BF002084F83C0000BF0120BDE8F0814D
:1046E000FFE7C5F3074001280AD120684069A9B255
:1046F0000840A9B2884201D101200BE0002009E066
:1047000020688069A9B20840A9B2884201D101207D
:1047100000E00020B842ABD00020DFE72DE9F041F7
:1047200004460D4616461F4658E020684069C0F30F
:104730008020E8B12068006840F4007021680860BB
:104740006FF480602168486100202063202084F895
:104750003D00002084F83E00206C40F004002064FE
:1047600000BF002084F83C0000BF0120BDE8F081BC
:10477000701C90B3FEF798F9C01BB04200D866BB1E
:10478000C5F3074001280AD120684069A9B2084052
:10479000A9B2884201D101200BE0002009E0206885
:1047A0008069A9B20840A9B2884201D1012000E085
:1047B000002090B900202063202084F83D000020D4
:1047C00084F83E00206C40F02000206400BF0020F0
:1047D00084F83C0000BF0120C8E7FFE7C5F30740AD
:1047E00001280AD120684069A9B20840A9B28842CC
:1047F00001D101200BE0002009E020688069A9B206
:104800000840A9B2884201D1012000E00020002820
:104810008BD00020AAE770B504460D46164625E069
:104820002046FFF769FE08B1012070BD681CE8B1A1
:10483000FEF73AF9801BA84200D8BDB9206840694C
:10484000C0F3C01090B900202063202084F83D0000
:10485000002084F83E00206C40F02000206400BF5F
:10486000002084F83C0000BF0120DEE7206840699A
:10487000C0F3C0100028D3D00020D6E700B585B023
:1048800000BF1348806940F0100011498861084654
:10489000806900F01000009000BF00BF0020019070
:1048A0000290039004904FF4005001900120029078
:1048B000002003900220049001A90648FDF754FF50
:1048C000012251030348FEF7E9F805B000BD0000DE
:1048D000001002400010014010B5012251030248AF
:1048E000FEF7DCF810BD00000010014010B54FF4D9
:1048F00000510448FEF7C8F84FF4FA7005F0D6FDF1
:1049000010BD00000010014010B542A002F0FEFBF7
:1049100025E040F6B830FDF7C9F920B144A002F017
:10492000F5FBFCF7E1FD48A149A0FCF76FFF4CA1A6
:1049300047A0FCF76BFF4FF47A7005F0B7FD49A173
:104940004AA0FCF763FF18B954A002F0DFFB07E0B0
:1049500058A002F0DBFB40F6B83005F0A7FDD8E721
:1049600000BF4FF4FA6005F0A1FD4EE040F6B8300C
:10497000FDF79CF9002816D052A002F0C7FBFCF707
:10498000B3FD06E05AA002F0C1FB40F6B83005F0D6
:104990008DFD34A135A0FCF739FF0028F2D14FF48A
:1049A000FA6005F083FD01F0E9FA18B955A002F0AC
:1049B000ADFB2BE059A002F0A9FB23A124A0FCF73A
:1049C00025FF27A122A0FCF721FF40F2DC5005F0D3
:1049D0006DFD10E04FF47A70FDF768F920B157A033
:1049E00002F094FBFCF780FD41A002F08FFB40F643
:1049F000B83005F05BFD1BA11CA0FCF707FF0028E9
:104A0000E8D14FF4FA6005F051FDAFE700BF01F0C7
:104A100055FA10BD436F6E6E656374204D5154544A
:104A2000205365727665722E2E2E0D0A000000004E
:104A300057694669206C6F73742C2072652D696EFE
:104A400069742E2E2E0D0A00434C4F53454400002E
:104A500041542B434950434C4F53450D0A0000002D
:104A60004F4B0000434F4E4E4543540041542B439F
:104A7000495053544152543D22544350222C226DEC
:104A8000717474732E6865636C6F7564732E636FD5
:104A90006D222C313838330D0A0000005443502069
:104AA000436F6E6E65637420537563636573730D36
:104AB0000A0000005443502052657472792E2E2E45
:104AC0000D0A000057694669206C6F737420626597
:104AD000666F7265204D51545420636F6E6E65632E
:104AE000742C2072652D696E69742E2E2E0D0A00AD
:104AF000544350205265636F6E6E6563742E2E2E84
:104B00000D0A00004D51545420436F6E6E6563745E
:104B100020537563636573730D0A00004D5154543F
:104B200020436F6E6E656374204661696C2C207241
:104B3000657472792E2E2E0D0A00000057694669A1
:104B4000206C6F737420647572696E672072656380
:104B50006F6E6E6563742C2072652D696E69742E9C
:104B60002E2E0D0A0000000010B50446207B0128FF
:104B700002D1206803F0EEF8002020606060A060A1
:104B8000207310BD0246002301230DE002F07F00D8
:104B90000870D2092AB1087840F080000870491CDA
:104BA00001E0184670475B1C042BEFDD4FF0FF302F
:104BB000F8E770B504460E460025206898B9012034
:104BC0002073304603F012FA20602068E0B1002024
:104BD0006060A66003E00020216848556D1CA06855
:104BE000A842F8D810E00220207303E000202168DA
:104BF00048556D1CA068A842F8D800206060A068E5
:104C0000B04201D20020206070BD00002DE9FF4FAE
:104C100083B082468B469146159C00250020029069
:104C20000F2701904846FBF739FB0FFA80F8B9F1DE
:104C3000000F03D1012007B0BDE8F08F08F102009A
:104C4000384487B2109808B145F00205129878B13F
:104C500045F004051298FBF721FBC0B202901398AF
:104C6000FBF71CFB01460298001D0844384487B23C
:104C7000119820B1012804D0022808D104E000BF17
:104C800007E045F00C0504E045F0140501E00220C2
:104C9000D1E700BF149808B145F02405BAF1000F20
:104CA00002D0BBF1000F01D10320C4E745F0C005DD
:104CB0005046FBF7F3FA06465846FBF7EFFA304446
:104CC000001D384487B239462046FFF772FF20683E
:104CD00008B90420AFE739462068FBF7ACFA102189
:104CE0006268501C606020688154D4E90023D118A8
:104CF000781FFFF747FF00B201900198002804DAFF
:104D00002046FFF731FF052095E7616801980844C8
:104D1000606000216268501C60602068815404213A
:104D20006268501C6060206881544D216268501C8C
:104D300060602068815451216268501C6060206866
:104D4000815454216268501C6060206881546268FC
:104D5000501C60602068815404216268501C6060AF
:104D6000206881546168481C60602068455406983A
:104D7000010A6268501C6060206881540698C1B2C4
:104D80006268501C606020688154C8F30721626823
:104D9000501C6060206881546268501C606020680C
:104DA00000F80280D4E90012881842464946FBF711
:104DB00089FA60684044606005F00400B8B30026DA
:104DC000139808B938A013901298FBF767FA86B2C7
:104DD000310A6268501C6060206881546268501C0F
:104DE000606020688654D4E900128818324612990F
:104DF000FBF768FA6068304460601398FBF74EFA7E
:104E000086B2310A6268501C606020688154626812
:104E1000501C606020688654D4E90012881832461D
:104E20001399FBF74FFA60683044606000BF05F0EB
:104E30008000C8B15046FBF731FA86B2310A626889
:104E4000501C6060206881546268501C606020685B
:104E50008654D4E90012881832465146FBF732FADC
:104E600060683044606000BF05F04000C8B158463B
:104E7000FBF714FA86B2310A6268501C6060206841
:104E800081546268501C606020688654D4E9001226
:104E9000881832465946FBF715FA6068304460605E
:104EA00000BF0020C7E60000000000002DE9FF4F12
:104EB00083B0834617469946139C002500260020A0
:104EC000029001908046BBF1000F03D1012007B092
:104ED000BDE8F08F00260AE00498805D232803D007
:104EE0000498805D2B2801D10220F0E7761C0498FD
:104EF000805D0028F0D148F03008119808B148F0E2
:104F0000010806EB0900851C109820B1012804D087
:104F100002280AD105E000BF09E048F00208AD1CF4
:104F200005E048F00408AD1C01E00320CFE700BF16
:104F30008FB33878022821D14FF0000A00BF5046C5
:104F40000AF1010A385C7D28F9D1AAF1030A0AF1B5
:104F5000070002900298A9EB000AE81CA0EB0A01E6
:104F60002046FFF726FE206808B90420AFE7EA1CB8
:104F7000A2EB0A012068FBF75EF919E0691D2046E3
:104F8000FFF717FE206808B90420A0E7691D206814
:104F9000FBF751F90CE0FFE7691D2046FFF709FE1A
:104FA000206808B9042092E7691D2068FBF743F9DF
:104FB0006168481C6060206800F80180D4E9000244
:104FC00081182846FFF7DEFD01900198002804DAD9
:104FD0002046FFF7C9FD052079E76168019808447C
:104FE0006060C6F307216268501C606020688154CD
:104FF0006268501C606020688654D4E900128818EA
:1050000032460499FBF75EF960683044606010989E
:1050100060B14FEA1B216268501C606020688154B7
:105020006268501C6060206800F802B0C7B1387830
:1050300002280BD1D4E9001288183946029AFBF7EE
:10504000D3F8616802980844606009E0D4E900126E
:1050500088184A463946FBF7C7F8606848446060DC
:10506000002034E72DE9F04190B004460D46164685
:105070009846169F23460CA2302104A8009502F002
:1050800055F801200021CDE9000133460A4604A964
:10509000CDE902070A20FFF709FF18B1012010B07F
:1050A000BDE8F0810020FAE7247379732F25732F70
:1050B00025732F7468696E672F70726F70657274D4
:1050C000792F706F737400002DE9FF5F80461746DB
:1050D00099460E9C0026B246B3460025B8F1000F53
:1050E00003D1012004B0BDE8F09F0BE057F8250084
:1050F00008B90220F6E757F82500FBF7CFF8064479
:10510000681CC5B24D45F1DB09EB4900801C00EB82
:10511000060A0AF105012046FFF74BFD206808B991
:105120000320DFE782216268501C606020688154A0
:10513000D4E9000281185046FFF724FD0FFA80FBE6
:10514000BBF1000F04DA2046FFF70EFD0420C9E78B
:105150006068584460604FEA18216268501C6060C3
:10516000206881546268501C6060206800F80280EA
:10517000002524E057F82500FBF790F80646C6F313
:1051800007216268501C6060206881546268501C6E
:10519000606020688654D4E90023D01857F82510A1
:1051A0003246FBF78FF86068304460600198C1B206
:1051B0006268501C606020688154681CC5B24D450F
:1051C000D8DB00208EE7F0B504460D4626460123C5
:1051D00000201060002114E0775C07F07F07106862
:1051E00007FB03001060705C00F0800008B9481CE9
:1051F000F0BDDB01B3F5001F02D36FF00100F7E74C
:10520000491CA942E8DB4FF0FF30F1E7014648783E
:10521000022801D001207047887810B188780128D1
:1052200001D1C878F7E7FF20F5E700002DE9FC5F22
:1052300081460D4614461E46DDE90C8B99F80000A8
:1052400000F00F0A002001900AF008000090CAF355
:1052500041008BF8000001AA042109F10100FFF7C9
:10526000B2FF4844471C0198022802D30AF001000B
:1052700010B1FF20BDE8FC9F7878397840EA012022
:1052800020802088801C0199884201D9FF20F1E705
:1052900054A1B81CFAF7E6FF08B10F20EAE79BF823
:1052A000000020B101283DD0022877D13BE00098D2
:1052B00008B1FF20DEE72188481C02F097FE286035
:1052C000286808B9FF20D5E72288511C2868FAF71A
:1052D000B2FF2288B91C2868FAF786FF0198801E61
:1052E0002188401AA8F80000B8F80010481C02F005
:1052F0007DFE3060306820B9286802F02BFDFF2069
:10530000B8E7B8F80020511C3068FAF794FFB8F8F5
:105310000020B4F800C0BB1C0CEB03013068FAF7A6
:1053200063FF4FE000BF2088801C0199884201D9AB
:10533000FF209FE72088C01C395C2088801C385CD7
:1053400041EA00210E9801800E9808B9FF2091E7EC
:105350002188481C02F04AFE2860286808B9FF200E
:1053600088E72288511C2868FAF765FF2288B91C53
:105370002868FAF739FF0198001F2188401AA8F819
:105380000000B8F80010481C02F030FE30603068B1
:1053900028B9286802F0DEFCFF206BE710E0B8F8BF
:1053A0000020511C3068FAF746FFB8F80020B4F826
:1053B00000C03B1D0CEB03013068FAF715FF01E05C
:1053C000FF2057E700BF2B212846FAF75DFF20B9E1
:1053D00023212846FAF758FF08B1FF204AE70020AA
:1053E00048E70000246372657100000001464878B8
:1053F000022801D001207047887820B9C8780A288F
:1054000001D10020F7E70120F5E70000F8B50446D8
:10541000FF2720780511012D01DB0E2D01DD384617
:10542000F8BD032D24D1002000906A460421601CA1
:10543000FFF7C9FE2044461C0098022803D32078B9
:1054400000F0010008B1FF20EAE77078317840EA07
:105450000120801C0099884201D9FF20E0E706A1C5
:10546000B01CFAF7FFFE08B10F2700E0032700E0A9
:105470002F463846D4E700002463726571000000AF
:105480000146FF208A78A2B9CA78142A11D10A7974
:1054900032B1012A05D0022A04D0802A06D103E0C5
:1054A00000BF00BF002003E0012001E0022000BF98
:1054B00000BF70470EB500200090019002901C487C
:1054C0001C49086081151B4881600021017301752A
:1054D0004FF40021C161002016494860032115489E
:1054E0000161FCF7B3FD08B1FCF7F9FC0120009065
:1054F00001900620029069460E48FCF7F3FC08B1C3
:10550000FCF7EDFC02200090019069460948FCF789
:10551000E9FC08B1FCF7E3FC032000900190694628
:105520000448FCF7DFFC08B1FCF7D9FC0EBD000015
:1055300000240140FC00002008B500BF0E4840696F
:1055400040F001000C4948610846406900F0010044
:10555000009000BF00BF002205210B20FDF774FD65
:105560000B20FDF761FD002205210F20FDF76CFDEA
:105570000F20FDF759FD08BD001002401CB500F0DA
:10558000EEF9FFF77BF9FBF757FD00220C21012014
:1055900005F0A9F93249086000220C21012005F02C
:1055A000A2F93049086000220C21012005F09BF986
:1055B0002D49086003220021012005F094F92B49B0
:1055C0000860012005F07EF929490860012005F0F6
:1055D00079F928490860284A0021284802F07EFD10
:1055E000274908600020302103468022CDE90010C1
:1055F00024A1274805F0F8FD002028210346802239
:10560000CDE9001023A1264805F0EEFD0020182169
:1056100003468022CDE9001022A1254805F0E4FDD3
:105620000020202103468022CDE9001021A124483A
:1056300005F0DAFD0020202103468022CDE900108C
:1056400020A1244805F0D0FD0020182103464FF486
:105650008062CDE9001020A1224805F0C5FD1CBDE7
:105660000400002000000020080000200C000020A2
:10567000100000201400002054B80008E96700085A
:105680001800002053656E736F725461736B0000D5
:10569000AD67000850726F636573735461736B007C
:1056A000C5660008446973706C61795461736B005E
:1056B000091200085361666574795461736B0000C8
:1056C000416700085761746368646F675461736B66
:1056D00000000000A1700008436F6D6D5461736B92
:1056E00000000000B910000800B585B0002001904E
:1056F00002900390049000BF3748806940F010008A
:10570000354988610846806900F01000009000BFAC
:1057100000BF00BF0846806940F02000886108464D
:10572000806900F02000009000BF00BF00BF084665
:10573000806940F0040088610846806900F0040038
:10574000009000BF00BF00BF0846806940F008001D
:1057500088610846806900F00800009000BF00BF23
:1057600000224FF400511D48FDF798F900224FF434
:1057700080511B48FDF792F900224FF480711948BF
:10578000FDF78CF94FF400500190012002900020A9
:1057900003900220049001A91048FCF7E5FF4FF4A4
:1057A000805001900120029000200390022004907C
:1057B00001A90B48FCF7D8FF4FF48070019001203D
:1057C0000290002003900220049001A90548FCF7F4
:1057D000CBFF05B000BD00000010024000100140EA
:1057E000000C01400008014010B50B480B4908604F
:1057F0000B484860002109488160C1604FF4804136
:105800000161002141618161C1610162FDF752F9CD
:1058100008B1FCF764FB10BD00540040700100208B
:10582000801A060010B50748074908600420486040
:1058300040F2E73104488160FDF716FB08B1FCF740
:105840004EFB10BD00300040C401002000B587B001
:105850000020039004900590069001900290154856
:105860001549086041F61F404860002112488160D8
:105870006321C160002101618161FEF78BF808B1ED
:10588000FCF72DFB4FF48050039003A90A48FEF764
:105890003FF908B1FCF723FB202001900020029083
:1058A00001A90548FEF734F808B1FCF718FB07B06A
:1058B00000BD000000040040D001002010B50B48DE
:1058C0000B4908604FF4E1304860002108488160CE
:1058D000C16001610C21416100218161C161FEF75C
:1058E000CFFC08B1FCF7FBFA10BD00000038014006
:1058F0001802002010B50B480B4908604FF4E13046
:105900004860002108488160C16001610C2141614B
:1059100000218161C161FEF7B3FC08B1FCF7DFFA39
:1059200010BD0000004800406002002000BFFEE7FC
:1059300000BFFEE770B500240EE00021204600F015
:105940006DF8002504E0002000F0FCF8681CC5B2EA
:10595000802DF8DB601CC4B2082CEEDB70BD70B586
:10596000002406E0002500E06D1CB5F57A7FFBD32E
:10597000641CB4F57A7FF5D3AE2000F0D1F8D520C1
:1059800000F0CEF8802000F0CBF8A82000F0C8F896
:105990003F2000F0C5F8D32000F0C2F8002000F04E
:1059A000BFF8402000F0BCF8A12000F0B9F8C820F2
:1059B00000F0B6F8DA2000F0B3F8122000F0B0F8EA
:1059C000812000F0ADF8CF2000F0AAF8D92000F037
:1059D000A7F8F12000F0A4F8DB2000F0A1F83020B7
:1059E00000F09EF8A42000F09BF8A62000F098F8A4
:1059F0008D2000F095F8142000F092F8AF2000F010
:105A00008FF8FFF797FF70BD10B50246012000E048
:105A100050430B1EA1F10101FAD110BD70B505462E
:105A20000C4645F0B00000F07BF8102141EA14105C
:105A300000F076F804F00F0000F072F870BD00007E
:105A40002DE9F04105460E461746721ED206110E8C
:105A50006A1E5206100EFFF7E1FF002409E0A7F1CD
:105A60002001134A02EB0111085D00F06BF8601C85
:105A7000C4B2082CF3DB721ED206110E6A1E01237B
:105A800003EB4202D0B2FFF7C9FF00240BE0A7F1FD
:105A90002001074A02EB011204F10801505C00F0FA
:105AA00051F8601CC4B2082CF1DBBDE8F0810000A5
:105AB000A2B800082DE9F04780460E4617461D465D
:105AC000002415E0281B411E0A20FFF79DFFB7FBAD
:105AD000F0F00A21B0FBF1F201FB120000F13009F5
