:020000040800F2
:100000008835002099010008CD38000889300008A3
:10001000C93800087D06000895430008000000006C
:1000200000000000000000000000000001010008C6
:10003000B10700080000000045010008293C000845
:10004000B3010008B3010008B3010008B3010008C0
:10005000B3010008B3010008B3010008B3010008B0
:10006000B3010008B3010008B301000865070008E8
:10007000B3010008B3010008B301000875070008C8
:10008000B3010008B3010008B3010008B301000880
:10009000B3010008B3010008B3010008B301000870
:1000A000B3010008B3010008B3010008B301000860
:1000B000B3010008B3010008E93C0008B3010008DF
:1000C000B3010008B3010008B3010008B301000840
:1000D000B301000885430008B3010008B30100081C
:1000E000B3010008B3010008B3010008DFF80CD029
:1000F00000F0E4F9004800479947000888350020DF
:10010000224B19680868B0E8F00F80F30988BFF344
:100110006F8F4FF0000080F311884EF00D0E704786
:100120000000000006480068006880F3088862B696
:1001300061B6BFF34F8FBFF36F8F00DF00BF00BF0B
:1001400008ED00E0EFF30980BFF36F8F0F4B1A68E3
:1001500020E9F00F106008B54FF0500080F31188CF
:10016000BFF34F8FBFF36F8F05F0BEFC4FF0000061
:1001700080F31188BDE8084019680868B0E8F00FFE
:1001800080F30988BFF36F8F704700BF28000020FD
:10019000EFF3058070470000064880470648004797
:1001A000FEE7FEE7FEE7FEE7FEE7FEE7FEE7FEE727
:1001B000FEE7FEE7E53C0008ED00000840EA010329
:1001C0009B0703D009E008C9121F08C0042AFAD20D
:1001D00003E011F8013B00F8013B521EF9D27047D1
:1001E000D2B201E000F8012B491EFBD27047002279
:1001F000F6E710B513460A4604461946FFF7F0FF26
:10020000204610BD30B505462A460B4612F8010BB4
:1002100013F8014B08B1A042F8D01CB1002802D05D
:100220006D1CF1E7284630BD421C10F8011B002967
:10023000FBD1801A7047F0B480EA0102D40F42006B
:10024000B2EB410F02D20246084611464A0042D0A4
:10025000C30DDDB2C1F3C752AD1A202D35DAC1F39B
:10026000160141F4000204B15242C5F1200602FA1F
:1002700006F12A411044B3EBD05F23D0C4B1012D65
:10028000A0EBC35009DCF0BC4FF0004202EAC352BD
:10029000DBB200F5000000F0E2B8400000F1807031
:1002A00000EBC350A0F1807040EAD170490009E032
:1002B000490841EAC071A0EBC35000F500004008B6
:1002C00000EBC350F0BC00F0C1B86142012202EB68
:1002D0004101001BF6E7F0BC704781F00041AAE73E
:1002E00080F00040A7E780EA010210B502F0004369
:1002F000400022D04A001FD0010E01EB1261C0F372
:100300005600C2F3560240F4000042F40002A0FB83
:10031000022000047F39140400D0401C50EA12402F
:1003200001D44000491EC2B20C0604EBD010401CA0
:100330004008802A02D003E0002010BD20F0010018
:10034000002900DA0020184310BD30B480EA010211
:1003500002F0004530F0004221F0004013D090B18F
:10036000C30DD40DC2F31601C0F31600E41A41F414
:10037000000140F400027D34914201D3641C00E08E
:100380004900002C02DA30BC002070474FF4000016
:100390000023914201D3891A034340084FEA4101E7
:1003A000F7D151B1914202D14FF0004105E002D2A4
:1003B0004FF0010101E06FF0010103EBC45028444C
:1003C00030BC00F043B896230022114600F047B835
:1003D00020F00040C10DC0F3160040F400007F295A
:1003E00001DA00207047962903DCC1F19601C8406C
:1003F0007047963988407047002801DBC0F1004003
:10040000002901DBC1F1004181427047002801DB76
:10041000C0F10040002901DBC1F100418842704772
:1004200030B50B46014600202022012409E021FAC4
:1004300002F59D4205D303FA02F5491B04FA02F5C1
:100440002844151EA2F10102F1DC30BD0029A8BF2D
:100450007047401C490008BF20F00100704710B4ED
:10046000B0FA80FC00FA0CF050EA010404BF10BCA2
:10047000704749B1CCF1200421FA04F411FA0CF1CF
:1004800018BF012121430843A3EB0C01CB1D4FEA08
:1004900000614FEA102042BF002010BC704700EB03
:1004A000C35010440029A4BF10BC7047401C490031
:1004B00008BF20F0010010BC70470000064C074D3B
:1004C00006E0E06840F0010394E807009847103424
:1004D000AC42F6D3FFF70EFE4C7A00086C7A0008A7
:1004E00070B5044600252068806800F0010018B34C
:1004F0002068806820F001002168886001F00AF916
:10050000054613E001F006F9401B02280ED92068C9
:10051000806800F0010048B1A06A40F01000A062BD
:10052000E06A40F00100E062012070BD2068806850
:1005300000F001000028E5D10020F6E770B505467F
:100540006C6AA06A00F05000E0B9A06A40F4007044
:10055000A0622068806800F46020B0F5602F0DD1A3
:10056000207B58B9A06A20F48070A062A06A00F4D1
:10057000805018B9A06A40F00100A062204600F047
:1005800097FB03E0206A016B2846884770BD70B571
:1005900005466C6AA06A40F04000A062E06A40F044
:1005A0000400E062204600F085FB70BD70B5044693
:1005B000656A284600F07DFB70BD000038B5044632
:1005C0000025002000902068806800F0010078BBC2
:1005D0002068806840F00100216888601948006840
:1005E0001949B0FBF1F0009002E00098401E009025
:1005F00000980028F9D101F08DF8054619E001F0C6
:1006000089F8401B022814D92068806800F0010096
:1006100078B9A06A40F01000A062E06A40F00100E2
:10062000E06200BF002084F8240000BF012038BD34
:1006300005E02068806800F001000028DFD000207D
:10064000F5E700002400002040420F000146024868
:1006500030F8110070470000A000002010B5032200
:100660000349044800F022FC034802F015F810BDCD
:10067000A0000020D4000020A801002000BFFEE759
:1006800000B585B000BF1248806940F004001049F1
:1006900088610846806900F00400009000BF00BF38
:1006A0000020019002900390049088150190012091
:1006B0000290002003900220049001A9054800F058
:1006C00089FE01221102034801F01EF805B000BDA9
:1006D000001002400008014010B50122110202483A
:1006E00001F012F810BD00000008014010B5002212
:1006F0004FF48071014801F007F810BD0008014077
:100700000EA003F01DFF4FF480721149114802F052
:1007100096F91048C06B0068006820F004000D498D
:10072000C96B0968086000F02DF906E00AA003F023
:1007300007FF41F2883005F08FF8F7E74553502066
:100740005461736B2053746172740D0A00000000D1
:10075000F0010020F002002045535020416C6976E2
:10076000650D0A0010B5024800F0E4FC10BD000061
:100770000401002010B5024800F0DCFC10BD0000B0
:100780008003002030B590F840500124AC40C56B88
:100790006C60046863604468102C04D10468A26033
:1007A0000468E16003E00468A1600468E26030BDB1
:1007B0007047000003F08CF844A20121084603F0C2
:1007C00069F946A20121022003F064F947A2012140
:1007D000032003F05FF947A20121042003F05AF936
:1007E00000BF4FF0FF3245494548006805F0FCFC6A
:1007F000012864D141490868FFF7EAFD0446022355
:1008000022460921012003F023F93C494868FFF7FB
:10081000DFFD0446012322460921022003F018F9D6
:10082000364908683749FFF75EFD0546FFF7D0FDFA
:100830000446032322460C21012003F009F92F4925
:1008400048683049FFF74FFD0546FFF7C1FD0446F4
:10085000032322460B21022003F0FAF82748007AEE
:1008600028B929A20721032003F014F904E028A2E3
:100870000721032003F00EF92048407A012805D112
:1008800025A20721042003F005F918E01B48407A4F
:10089000022805D123A20721042003F0FBF80EE073
:1008A0001648407A032805D121A20721042003F02D
:1008B000F1F804E021A20721042003F0EBF8032063
:1008C00003F032FEC82004F0C7FF8AE7566F6C744D
:1008D0006167653A20202E202020560043757272F1
:1008E000656E743A202E202020410000547261630E
:1008F0006B3A000053746174653A00006030002068
:100900000000002000007A44554E4F434300000091
:100910004F434320200000005741524E494E47218B
:10092000000000004641554C5421202000000000EA
:100930004552524F52212020200000004E4F524D70
:10094000414C20200000000010B54FF0FF310A4854
:10095000006805F0FDFC4FF480710848FFF747FC84
:1009600000200749088000231A46194602480068FB
:1009700005F07AFA10BD00000C0000208430002041
:10098000CE00002010B5FFF7DFFF20A003F0D8FD58
:1009900003E04FF4FA7004F05FFF1EA11EA000F008
:1009A00087F80028F5D11EA003F0CAFD03E04FF43C
:1009B000FA7004F051FF17A11CA000F079F800288C
:1009C000F5D11EA003F0BCFD03E04FF4FA7004F073
:1009D00043FF10A11DA000F06BF80028F5D11FA067
:1009E00003F0AEFD03E04FF4FA7004F035FF1EA1F2
:1009F0001FA000F05DF80028F5D127A003F0A0FDAE
:100A00004FF4FA7004F028FF10BD0000312E204191
:100A1000540D0A004F4B000041540D0A0000000025
:100A2000322E2043574D4F44450D0A0041542B436D
:100A3000574D4F44453D310D0A000000332E2041F3
:100A4000542B4357444843500D0A000041542B4354
:100A500057444843503D312C310D0A00342E204379
:100A6000574A41500D0A0000474F5420495000009A
:100A700041542B43574A41503D22332D32303122CD
:100A80002C223238323533373133373233347A68C7
:100A900069220D0A00000000352E204553503832DF
:100AA000363620496E6974204F4B0D0A0000000055
:100AB0002DE9F04104460D46FFF746FF2046FFF7BB
:100AC000B3FB87B24FF4FA733A462146124802F05C
:100AD00081FA322618E000F027F890B929460F482D
:100AE000FFF790FB20B1FFF72FFF0020BDE8F0815A
:100AF0000BA10A48FFF786FB18B1FFF725FF01207D
:100B0000F4E70A2004F0A8FE301EA6F10101CEB2DF
:100B1000E1D10120EAE70000F0020020843000204B
:100B20004552524F5200000010B540F6B83105480A
:100B3000006805F00DFC012801D1002010BD012046
:100B4000FCE700000800002072B600BFFEE70000CE
:100B500038B5024600230020009000BF92F8240020
:100B6000012801D1022038BD012082F8240000BFF5
:100B70004868072812D21068406B0C79641E04EB99
:100B800084051F24AC40A0430D796D1E05EB85053F
:100B90000C68AC4020431468606327E048680D2867
:100BA00012D21068006B0C79E41F04EB84051F243B
:100BB000AC40A0430D79ED1F05EB85050C68AC40FA
:100BC00020431468206311E01068C06A0C790D3C62
:100BD00004EB84051F24AC40A0430D790D3D05EBCB
:100BE00085050C68AC4020431468E06208680A2858
:100BF00012D31068C0680C780A3C04EB4405072443
:100C0000AC40A0430D780A3D05EB45058C68AC402F
:100C100020431468E0600FE0106800690C7804EB72
:100C200044050724AC40A0430D7805EB45058C68CE
:100C3000AC402043146820610868102802D008687E
:100C4000112827D1174C1068A0421ED11068806867
:100C500000F40000F0B91068806840F400001468E7
:100C6000A0600868102815D10F4800680F4CB0FB31
:100C7000F4F000EB80004000009002E00098401E7D
:100C8000009000980028F9D104E0906A40F020001C
:100C90009062012300BF002082F8240000BF1846A4
:100CA00061E70000002401402400002040420F00C2
:100CB00070477047704700002DE9F0410446002757
:100CC00000250026A84614B90120BDE8F081A068DF
:100CD00010B1207D00B100BFA06A30B90020E062F1
:100CE00084F82400204600F089F82046FFF7F8FB3E
:100CF0000746A06A00F01000002873D1002F71D1C0
:100D0000A06A20F4885040F00200A062E1696068A7
:100D10000843217B40EA41000643A068B0F5807F8C
:100D200002D0A068012802D14FF4807000E00020BA
:100D30000543207D012811D1207B38B9A069401ED0
:100D40004FF4006141EA4030054307E0A06A40F0FB
:100D50002000A062E06A40F00100E0622068406884
:100D600020F4694028432168486020688068214950
:100D70000840304321688860A068B0F5807F02D0C9
:100D8000A068012802D14FF4807000E00020B0F587
:100D9000807F03D1208A401E4FEA00582068C06A35
:100DA00020F4700040EA08002168C862206880686A
:100DB00011490840B04208D10020E062A06A20F04A
:100DC000020040F00100A06211E0A06A20F00200E1
:100DD00040F01000A062E06A40F00100E0620127EC
:100DE00005E0FFE7A06A40F01000A0620127384646
:100DF0006BE70000FDF7E1FFFE0E1FFF10B586B0A8
:100E00000446002002900390049005902249206837
:100E100088423ED100BF2148806940F400701F49DC
:100E200088610846806900F40070019000BF00BF2F
:100E300000BF0846806940F0040088610846806968
:100E400000F00400019000BF00BF0E2002900320BC
:100E5000039002A9124800F0BDFA12481249086036
:100E6000002048600021104881608021C160490055
:100E700001618900416120218161C901C16100F0E6
:100E800027FA08B1FFF760FE00BF074820624462FE
:100E900000BF06B010BD0000002401400010024059
:100EA0000008014008000240040100202DE9F04143
:100EB00004460D461646002757492068884203D04D
:100EC00056492068884205D15348001D006800F447
:100ED000702000E0002000287ED100BF94F824009C
:100EE000012802D10220BDE8F081012084F824000D
:100EF00000BF2046FFF762FB0746002F6DD1A06AB6
:100F000040F60161884340F48070A0624349206844
:100F1000884209D14048001D006800F4702008B9DB
:100F2000012002E0002000E0012078B1A06A20F456
:100F30008010A0622068406800F4806000B3A06A5E
:100F400020F4005040F48050A06219E0A06A40F400
:100F50008010A06230492068884203D02F49206861
:100F6000884205D12C48001D006800F4806000E034
:100F7000002028B1A06A20F4005040F48050A06204
:100F8000A06A00F4805020B1E06A20F00600E06220
:100F900001E00020E06200BF002084F8240000BFD0
:100FA0001F48216A88621F48216AC8621E48216A58
:100FB00008636FF00200216808602068806840F4D0
:100FC000807021688860226802F14C0133462A460D
:100FD000206A00F0B1F901E01AE014E020688068AE
:100FE00000F46020B0F5602F06D12068806840F4DE
:100FF000A000216888600CE02068806840F48010C0
:101000002168886005E000BF002084F8240000E02B
:101010000127384667E7000000240140002801400E
:101020003D050008AD0500088F05000801460022B7
:1010300091F82100022808D00420886300BF002016
:1010400081F8200000BF012070470868006820F088
:101050000E000B6818600868006820F001000B683B
:10106000186091F8403001209840CB6B5860012007
:1010700081F8210000BF002081F8200000BF104649
:10108000E2E7000070B50446002594F8210002282C
:1010900003D00420A063012548E02068006820F008
:1010A0000E00216808602068006820F001002168B7
:1010B00008601F492068884201D1012026E01C49B0
:1010C00014312068884201D110201FE018492831CE
:1010D0002068884201D1801518E015493C3120680C
:1010E000884201D1801411E01149503120688842B2
:1010F00002D14FF4803009E00D4964312068884204
:1011000002D14FF4801001E04FF080700849083997
:101110004860012084F8210000BF002084F82000EE
:1011200000BF606B10B12046616B8847284670BDD8
:101130000800024070B50446E06B05682068066848
:1011400094F84010042088402840002846D006F03B
:101150000400002842D02068006800F0200028B970
:101160002068006820F00400216808605749206862
:10117000884201D1042027E0544914312068884274
:1011800001D1402020E0514928312068884201D116
:10119000001519E04D493C312068884202D14FF4D6
:1011A000804011E0494950312068884202D14FF413
:1011B000802009E0454964312068884202D14FF41B
:1011C000800001E04FF08060404908394860E06AE3
:1011D00000287AD02046E16A884776E094F84010EB
:1011E000022088402840A0B306F0020088B320689F
:1011F000006800F0200040B92068006820F00A0074
:1012000021680860012084F8210030492068884264
:1012100001D1022028E02D4914312068884201D1F3
:10122000202021E0294928312068884201D1401539
:101230001AE026493C312068884202D14FF4005020
:1012400012E0224950312068884203D14FF4003027
:101250000AE017E01D4964312068884202D14FF44A
:10126000001001E04FF0007018490839486000BFD5
:10127000002084F8200000BFA06A30B32046A16A95
:10128000884722E094F84010082088402840E0B1C8
:1012900006F00800C8B12068006820F00E00216840
:1012A000086094F8401001208840E16B48600120FC
:1012B000A06384F8210000BF002084F8200000BF54
:1012C000206B10B12046216B884770BD080002409A
:1012D0000146002209B901207047164B0868C01A60
:1012E0001423B0FBF3F08000086412480838C86388
:1012F000022081F821000868026843F6F0708243FA
:10130000D1E901031843CB6818430B6918434B69B3
:1013100018438B691843CB6918430243086802607D
:1013200000208863012081F82100002081F820003E
:1013300000BFD1E7080002402DE9F04104460D4608
:1013400016461F464FF0000800BF94F82000012801
:1013500002D10220BDE8F081012084F8200000BF06
:1013600094F8210001282CD1022084F821000020CB
:10137000A0632068006820F00100216808603B46F7
:10138000324629462046FFF7FDF9E06A30B1206871
:10139000006840F00E00216808600BE020680068DB
:1013A00020F00400216808602068006840F00A000E
:1013B000216808602068006840F00100216808602A
:1013C00006E000BF002084F8200000BF4FF00208B4
:1013D0004046BFE72DE9F8470346002294466EE1F8
:1013E0004FF0010808FA02F4D1F8008008EA04007E
:1013F000A0427DD1DFF8DCA2D1F80480A8EB0A0975
:10140000D0453AD014DCB8F1030F50D009DCB8F164
:10141000000F31D0B8F1010F1CD0B8F1020F49D143
:1014200020E0B8F1110F18D0B8F1120F42D11EE030
:10143000B9F5881F25D006DCB9F5803F20D0B9F575
:10144000801F37D11AE0B9F5001F18D0B9F5041F75
:1014500030D117E0D1F80CC02DE0D1F80C8008F1A4
:10146000040C28E0D1F80C8008F1080C23E0D1F836
:101470000C8008F10C0C1EE000BF00BF00BF00BFD5
:1014800000BF00BFD1F80880B8F1000F02D14FF0C3
:10149000040C0BE0D1F80880B8F1010F03D14FF034
:1014A000080C1C6102E04FF0080C5C6103E04FF097
:1014B000000C00E000BF00BFFF2801D8984601E003
:1014C00003F104084646FF2802D84FEA820803E0E9
:1014D000A2F108084FEA88084746D6F800804FF086
:1014E0000F0909FA07F928EA09080CFA07F900E0D8
:1014F00088E048EA0908C6F80080D1F8048008F0BE
:101500008058B8F1805F7DD100BFDFF8CC81D8F87A
:10151000188048F00108DFF8C091C9F81880C84663
:10152000D8F8188008F00108CDF8008000BF00BF8F
:101530004FEAB9384FEA920958F829504FEA8278B1
:101540004FEA18794FF00F0808FA09F825EA08055C
:10155000DFF88881434502D14FF0000816E0DFF83C
:101560008081434502D14FF001080FE0DFF874811C
:10157000434502D14FF0020808E0DFF86C81434593
:1015800002D14FF0030801E04FF004084FEA8279DE
:101590004FEA197908FA09F848EA0505DFF84C819D
:1015A0004FEA920948F82950D1F8048008F48018CD
:1015B000B8F5801F0AD1DFF83881D8F8008048EAF2
:1015C0000008DFF82C91C9F8008009E0DFF82081DD
:1015D000D8F8008028EA0008DFF81491C9F80080E4
:1015E000D1F8048008F40018B8F5001F10D1DFF816
:1015F000008108F10408D8F8008048EA0008DFF804
:10160000F09000E05AE009F10409C9F800800DE00B
:10161000DFF8DC8008F10408D8F8008028EA000828
:10162000DFF8CC9009F10409C9F80080D1F80480F2
:1016300008F40038B8F5003F0ED1DFF8B480A8F107
:101640000408D8F8008048EA0008DFF8A490A9F15F
:101650000409C9F800800DE0DFF89480A8F10408BF
:10166000D8F8008028EA0008DFF88490A9F104097E
:10167000C9F80080D1F8048008F48038B8F5803FBC
:101680000ED1DFF86C80A8F10808D8F8008048EA8D
:101690000008DFF85C90A9F10809C9F800800DE0A6
:1016A000DFF84C80A8F10808D8F8008028EA000884
:1016B000DFF83C90A9F10809C9F80080521CD1F864
:1016C000008028FA02F8B8F1000F7FF489AEBDE877
:1016D000F8870000000011100010024000080140CF
:1016E000000C0140001001400014014008000140BE
:1016F0000804014010B5C26821EA020302EA0104AD
:1017000043EA0443036110BD0AB1016101E00B0427
:10171000036170470148006870470000180000200E
:1017200070B504460CB9012070BD94F83D0028B98D
:10173000002084F83C00204600F092F9242084F830
:101740003D002068006820F00100216808602068E2
:10175000006840F40040216808602068006820F4B8
:1017600000402168086000F07DFC05465C49606827
:10177000884206D85B48854201D2012007E000205C
:1017800005E05948854201D2012000E000200128EF
:1017900000D1C9E75548B5FBF0F62068406820F055
:1017A0003F003043216848604D496068884201D855
:1017B000701C07E04FF4967070434FF47A71B0FBE1
:1017C000F1F0401C2168096A21F03F0108432168BB
:1017D000086243496068884214D8681E61684900FD
:1017E000B0FBF1F0401CC0F30B00042801D2042030
:1017F0003DE0681E61684900B0FBF1F0401CC0F399
:101800000B0034E0A06838B9681E616801EB410143
:10181000B0FBF1F0401C0AE0681E616801EBC102F8
:1018200002EB0111B0FBF1F0401C40F48040C0F32A
:101830000B0008B901201AE0A06848B9681E616869
:1018400001EB4101B0FBF1F0401CC0F30B000CE0D8
:10185000681E616801EBC10202EB0111B0FBF1F0FF
:10186000401CC0F30B0040F4804040F4004021686D
:10187000C9694CF6FF72914308432168C861D4E9F5
:10188000070108432168096821F0C0010843216865
:101890000860D4E9031008432168896848F2FF32E0
:1018A0009143084321688860D4E905010843216811
:1018B000C96821F0FF0108432168C86020680068FA
:1018C00040F001002168086000202064202084F896
:1018D0003D000020206384F83E0000BF24E70000A4
:1018E000A086010080841E0000093D0040420F00D8
:1018F0002DE9F8430446894616461F46DDF8208048
:10190000FFF708FF054694F83D0020287ED11923F3
:10191000012251492046009501F06BFC10B10220D4
:10192000BDE8F88300BF94F83C00012801D10220F3
:10193000F6E7012084F83C0000BF2068006800F052
:10194000010028B92068006840F0010021680860A3
:101950002068006820F4006021680860212084F875
:101960003D00102084F83E000020206466626785F8
:10197000608D20853948E0622B4642464946204624
:1019800001F0A4FB08B10120CAE700BF00200090CD
:1019900020684069009020688069009000BF00BF07
:1019A00044E02A464146204601F0FFFC50B1206C3D
:1019B000042805D12068006840F4007021680860A0
:1019C0000120ADE7606A007821680861606A401C08
:1019D0006062608D401E6085208D401E20852068DD
:1019E0004069C0F3800070B1208D60B1606A0078FA
:1019F00021680861606A401C6062608D401E6085DD
:101A0000208D401E20852A46414600E022E02046E7
:101A100001F0BCFB50B1206C042805D1206800689F
:101A200040F4007021680860012079E7208D0028CB
:101A3000B7D12068006840F4007021680860202059
:101A400084F83D00002084F83E0000BF84F83C008C
:101A500000BF65E7022063E7020010000000FFFFFF
:101A600010B586B0044600200290039004900590C3
:101A700015492068884225D100BF1448806940F08C
:101A80000800124988610846806900F0080001904A
:101A900000BF00BFC02002901220039003200590D9
:101AA00002A90B48FFF796FC00BF0848C06940F444
:101AB00000100649C8610846C06900F40010019092
:101AC00000BF00BF06B010BD00540040001002402F
:101AD000000C014070B504460CB9012070BD4CF6F5
:101AE000CC402168086045F2555021680860D4E96F
:101AF000001048602168A0688860FFF70BFE05466B
:101B00000BE0FFF707FE401B272806D92068C068B6
:101B100000F0030008B10320E0E72068C06800F08F
:101B200003000028EDD14AF6AA20216808600020B1
:101B3000D4E701464AF6AA200A68106000207047E0
:101B40000348006803490978084401490860704760
:101B5000180000202000002010B50848006840F060
:101B6000100006490860032000F0E2F80F2000F0A2
:101B700007F800F05FF8002010BD000000200240D0
:101B80002DE9F04188B004460027B846002600BF82
:101B90002348C06940F004002149C8610846C06973
:101BA00000F00400019000BF00BF02A903A800F0EC
:101BB00031FA069F1FB900F055FA054602E000F021
:101BC00051FA45001748B5FBF0F0A0F1010816489E
:101BD0001649086040F2E7311448C160C0F804803B
:101BE000002101618160816100F00AFD064696B91D
:101BF0000E4800F087FD06466EB91E2000F04AF838
:101C0000102C07D2002221461E2000F053F808486D
:101C1000046000E00126304608B0BDE8F081000015
:101C20000010024040420F0000080040C4030020A2
:101C30001C00002008B500BF1448806940F0010076
:101C4000124988610846806900F00100009000BFD9
:101C500000BF00BF0846C06940F08050C861084618
:101C6000C06900F08050009000BF00BF00220F212B
:101C7000901E00F01FF800BF0549486820F0E060A2
:101C800040F00070486000BF08BD00000010024036
:101C90000000014001460846002809DB00F01F0350
:101CA00001229A4043099B0003F1E023C3F800217D
:101CB00000BF70472DE9F05F80460D4616460027AD
:101CC00002F04EFC074639462A46334601F007002B
:101CD000C0F1070ABAF1040F02D94FF0040A01E07B
:101CE000C0F1070AD14600F1040ABAF1070F02D287
:101CF0004FF0000A01E0A0F1030AD4464FF0010AB8
:101D00000AFA09FAAAF1010A0AEA020A0AFA0CFA1C
:101D10004FF0010B0BFA0CFBABF1010B0BEA030BC1
:101D20004AEA0B042146404602F022FCBDE8F09F3F
:101D300000BF00F00702064B19684FF6FF03194079
:101D4000044B0B4343EA0221014B196000BF70476B
:101D50000CED00E00000FA05F8B504460026002569
:101D6000207800F0010000286BD000274348C069AC
:101D700000F0805070B900BF4048C06940F080500A
:101D80003E49C8610846C06900F08050009000BF1D
:101D900000BF01273A48006800F48070B0B93848A5
:101DA000006840F4807036490860FFF7B3FC0646CF
:101DB00006E0FFF7AFFC801B642801D90320F8BDC3
:101DC0002F48006800F480700028F2D02B48006A89
:101DD00000F440752DB3A08800F44070A84220D0D4
:101DE0002648006A20F4407501202649086000203A
:101DF00008602248056205F0010090B1FFF78AFCF7
:101E0000064608E0FFF786FC801B41F288318842D5
:101E100001D90320D3E71948006A00F00200002826
:101E2000F0D01648006A20F44070616808431349F6
:101E30000862012F04D10846C06920F08050C861B3
:101E400000BF207800F00200022807D10B4840684C
:101E500020F44040A168084308494860207800F019
:101E60001000102807D10548406820F48000E16880
:101E70000843024948600020A1E70000001002402A
:101E8000007000404004424270B504460D460CB953
:101E9000012070BD5A48006800F00700A8420ED229
:101EA0005748006820F00700284355490860084655
:101EB000006800F00700A84201D00120E9E720787F
:101EC00000F0020002281DD1207800F00400042850
:101ED00005D14C48406840F4E0604A4948602078A9
:101EE00000F00800082805D14648406840F46050DA
:101EF000444948604348406820F0F000A168084326
:101F000040494860207800F0010078B360680128FB
:101F100006D13C48006800F4003090B90120B8E7D1
:101F20006068022806D13748006800F0007040B9A8
:101F30000120AEE73348006800F0020008B9012034
:101F4000A7E73048406820F00300616808432D4946
:101F50004860FFF7DFFB064609E0FFF7DBFB801B6D
:101F600041F28831884202D9032092E707E02548F0
:101F7000406800F00C006168B0EB810FEDD12048A3
:101F8000006800F00700A8420ED91D48006820F044
:101F9000070028431A4908600846006800F0070057
:101FA000A84201D0012074E7207800F00400042842
:101FB00007D11448406820F4E060E1680843114903
:101FC0004860207800F00800082808D10D484068D3
:101FD00020F46050216940EAC1000A49486000F0DD
:101FE00061F808494968C1F30311074A515CC840C8
:101FF0000649086006480068FFF7C2FD002048E770
:102000000020024000100240366C0008240000202E
:102010001C0000200F2202600D4A526802F00302E9
:1020200042600B4A526802F0F0028260084A52682D
:1020300002F4E062C260064A526802F46052D208BA
:102040000261044A126802F007020A607047000049
:102050000010024000200240014800687047000064
:102060002400002000B5FFF7F7FF04494968C1F3D9
:102070000221034A515CC84000BD0000001002402C
:10208000466C000800B5FFF7E7FF04494968C1F353
:10209000C221034A515CC84000BD0000001002404C
:1020A000466C000870B500210022002400230020A7
:1020B000134D696801F00C05F5B1042D02D0082D0F
:1020C00019D101E00F4819E00F4DC1F38346AB5D14
:1020D00001F4803555B10A4D6D68C5F340450B4E8E
:1020E000725D084D5D43B5FBF2F402E0084D03FB61
:1020F00005F4204602E000BF024800BF00BF70BDEB
:102100000010024000127A00246C0008346C0008B1
:1021100000093D00F8B504460CB90120F8BD20784F
:1021200000F00100002878D0F848406800F00C006A
:1021300004280CD0F548406800F00C00082811D1A4
:10214000F248406800F48030B0F5803F0AD1EF4893
:10215000006800F4003000285FD0606800285CD17F
:102160000120DBE700BF6068B0F5803F06D1E7489B
:10217000006840F48030E549086028E0606858B99C
:10218000E248006820F48030E049086008460068B2
:1021900020F4802008601AE06068B0F5A02F0BD111
:1021A000DA48006840F48020D84908600846006892
:1021B00040F4803008600AE0D448006820F48030A1
:1021C000D24908600846006820F48020086000BFFB
:1021D000606888B1FFF79EFA054606E0FFF79AFAB5
:1021E000401B642801D9032098E7C848006800F420
:1021F00000300028F2D010E0FFF78CFA054606E028
:10220000FFF788FA401B642801D9032086E7BF48FE
:10221000006800F400300028F2D1207800F00200BD
:10222000022857D1B948406800F00C0050B1B748B7
:10223000406800F00C00082818D1B448406800F449
:10224000803098B9B148006800F0020020B12069E0
:10225000012801D0012061E7AC48006820F0F800B7
:10226000616940EAC100A949086033E02069E8B12A
:102270000120A7490860FFF74DFA054606E0FFF781
:1022800049FA401B022801D9032047E79F4800680C
:1022900000F002000028F2D09C48006820F0F8000E
:1022A000616940EAC1009949086013E0002098493B
:1022B0000860FFF72FFA054606E0FFF72BFA401BF0
:1022C000022801D9032029E79048006800F00200A5
:1022D0000028F2D1207800F0080008282DD1A0694C
:1022E000B8B101208B490860FFF714FA054606E0F3
:1022F000FFF710FA401B022801D903200EE783489C
:10230000406A00F002000028F2D0012001F01CFC1D
:1023100013E000207F490860FFF7FCF9054606E05E
:10232000FFF7F8F9401B022801D90320F6E67748A9
:10233000406A00F002000028F2D1207800F004008A
:10234000042873D100277148C06900F0805070B92B
:1023500000BF6E48C06940F080506C49C8610846B3
:10236000C06900F08050009000BF00BF01276A489C
:10237000006800F48070B0B96748006840F480706D
:1023800065490860FFF7C6F9054606E0FFF7C2F9A0
:10239000401B642801D90320C0E65F48006800F4B0
:1023A00080700028F2D000BFE068012806D15748AD
:1023B000006A40F001005549086227E0E06858B91A
:1023C0005248006A20F00100504908620846006A3D
:1023D00020F00400086219E0E06805280BD14B48A2
:1023E000006A40F00400494908620846006A40F06B
:1023F000010008620AE04548006A20F001004349F4
:1024000008620846006A20F00400086200BFE06825
:10241000A0B1FFF77FF9054609E0FFF77BF9401B04
:1024200041F28831884202D9032077E622E037481A
:10243000006A00F002000028EFD012E0FFF76AF90E
:10244000054608E0FFF766F9401B41F288318842F3
:1024500001D9032062E62D48006A00F0020000283E
:10246000F0D1012F05D12948C06920F080502749BB
:10247000C86100BFE069C8B32448406800F00C00A0
:10248000082860D0E069022848D100202049086669
:10249000FFF740F9054606E0FFF73CF9401B02282C
:1024A00001D903203AE61948006800F000700028BE
:1024B000F2D1206AB0F5803F07D11448406820F47B
:1024C0000030A168084311494860D4E90801084375
:1024D0000E49496821F4741108430C4948600120F1
:1024E0000B490866FFF716F9054607E03DE0FFF7E0
:1024F00011F9401B022801D903200FE603480068A8
:1025000000F000700028F2D02FE000000010024020
:102510000000424280044242007000400020144902
:102520000866FFF7F7F8054606E0FFF7F3F8401BEB
:10253000022801D90320F1E50E48006800F0007080
:102540000028F2D111E0E069012800D1E6E5094850
:10255000466806F48031206A814204D106F4701185
:10256000606A814201D00120D8E50020D6E5000054
:1025700000004242001002407047704730B50246EA
:102580000B4600BF92F83C00012801D1022030BD6B
:10259000012082F83C0000BF022082F83D00106854
:1025A00044681068816824F0700418680443106857
:1025B0004460104D1068A8420BD01068B0F1804FF5
:1025C00007D00D4D1068A84203D00C4D1068A842EA
:1025D00005D121F080015868014310688160012015
:1025E00082F83D0000BF002082F83C0000BF00BF21
:1025F000CDE70000002C014000040040000800402E
:1026000010B504460CB9012010BD94F83D0028B95E
:10261000002084F83C00204600F026F8022084F8D0
:102620003D00211D206801F067FB012084F8460071
:1026300000BF84F83E0001213F2001554020015594
:102640004120015500BF00BF012084F84200432013
:102650000155442001554520015500BF012084F853
:102660003D000020D0E7000008B5094A016891420A
:102670000DD100BF0749C96941F00201054AD16186
:102680001146C96901F00201009100BF00BF08BDF9
:102690000004004000100240014691F83D0001286E
:1026A00001D001207047022081F83D00124B0868DC
:1026B00098420BD00868B0F1804F07D00F4B0868E4
:1026C000984203D00E4B086898420CD10868806885
:1026D00000F00702062A0CD00868006840F00100EC
:1026E0000B68186005E00868006840F001000B689E
:1026F00018600020D6E70000002C014000040040D4
:1027000000080040014691F83D00012801D0012059
:102710007047022081F83D000868C06840F0010061
:102720000B68D860124B086898420BD00868B0F16B
:10273000804F07D00F4B0868984203D00E4B0868B3
:1027400098420CD10868806800F00702062A0CD075
:102750000868006840F001000B68186005E0086830
:10276000006840F001000B6818600020D0E700000E
:10277000002C014000040040000800402DE9F04119
:1027800004460D46002700BF94F83C00012802D102
:102790000220BDE8F081012084F83C0000BF022047
:1027A00084F83D002068866826F0770626F47F4688
:1027B000206886602868502833D00CDC202850D050
:1027C00004DC00284BD0102851D149E0302849D0F2
:1027D00040284CD139E060282DD0702807D0B0F5C2
:1027E000805F03D0B0F5005F41D10DE041E0D5E955
:1027F00002136A68206801F0B9FA2068866846F01A
:1028000077062068866034E0D5E902136A6820689C
:1028100001F0ACFA2068806840F48040216888604C
:1028200027E0EA686968206801F0B4FA502120685E
:1028300001F0A7FA1DE0EA686968206801F0BDFAB6
:102840006021206801F09DFA13E0EA686968206859
:1028500001F0A0FA4021206801F093FA09E000BFDE
:1028600000BF00BF2968206801F08BFA01E0012752
:1028700000BF00BF012084F83D0000BF002084F8A5
:102880003C0000BF384684E7704710B50446206816
:102890000069C0F34000D8B12068C068C0F34000B0
:1028A000B0B16FF002002168086101202077206834
:1028B000806900F0030018B12046FFF7E5FF05E04E
:1028C000204600F0ADF8204600F0ABF8002020775D
:1028D00020680069C0F38000D8B12068C068C0F3E8
:1028E0008000B0B16FF004002168086102202077F9
:1028F0002068806900F4407018B12046FFF7C4FFDB
:1029000005E0204600F08CF8204600F08AF8002010
:10291000207720680069C0F3C000D8B12068C06883
:10292000C0F3C000B0B16FF0080021680861042056
:1029300020772068C06900F0030018B12046FFF737
:10294000A3FF05E0204600F06BF8204600F069F890
:102950000020207720680069C0F30010D8B12068FB
:10296000C068C0F30010B0B16FF0100021680861BA
:10297000082020772068C06900F4407018B1204614
:10298000FFF782FF05E0204600F04AF8204600F0FD
:1029900048F8002020772068006900F0010058B155
:1029A0002068C06800F0010030B16FF001002168BC
:1029B0000861204600F036F820680069C0F3C010B6
:1029C00058B12068C068C0F3C01030B16FF080000B
:1029D000216808612046FFF7CFFD20680069C0F339
:1029E000801058B12068C068C0F3801030B16FF01B
:1029F000400021680861204600F020F82068006946
:102A0000C0F3401058B12068C068C0F3401030B126
:102A10006FF02000216808612046FFF7AEFD10BD71
:102A20007047704710B5044603492068884201D1B9
:102A3000FFF786F810BD0000000800407047F8B5A9
:102A400004460E46174694F8420020282ED106B1BF
:102A50000FB90120F8BD01202063002060633A46D1
:102A60003146204601F0B0FB0546EDB9206B012848
:102A700019D100BF002000902068006800902068F5
:102A80004068009000BF00BF00BF00BF21680C314C
:102A900051E8001F41F0100021680C3141E80002AC
:102AA000002AF3D100E001252846D3E70220D1E730
:102AB00038B505460C46184885422BD1FF2C07D85F
:102AC000224616491648FDF779FB0020144908559F
:102AD0000020009069461348006803F015FB009839
:102AE00038B14FF0805010490860BFF34F8FBFF3EB
:102AF0006F8F4FF4807209490748FFF7A0FF06481F
:102B0000C06B0068006820F004000349C96B0968C5
:102B1000086000BF38BD0000F0020020F001002076
:102B2000843000200800002004ED00E07047000021
:102B30002DE9F84F0446206805682068C6682068BB
:102B400047694FF00009CA4605F00F09B9F1000FB7
:102B50000AD105F0200038B106F0200020B120464F
:102B600001F036FABDE8F88FB9F1000F7BD007F01D
:102B7000010018B906F49070002874D005F0010027
:102B800030B106F4807018B1606C40F001006064F0
:102B900005F0040030B107F0010018B1606C40F09E
:102BA0000200606405F0020030B107F0010018B1C6
:102BB000606C40F00400606405F0080048B106F065
:102BC000200010B907F0010018B1606C40F0080057
:102BD0006064606C002845D005F0200028B106F044
:102BE000200010B1204601F0F3F920684069C0F3DD
:102BF000801A606C00F0080010B9BAF1000F2CD0F8
:102C0000204601F08CF92068406900F0400000B3D4
:102C100000BF00BF2168143151E8001F21F04000BF
:102C20002168143141E80002002AF3D100BFE06BB3
:102C300050B17748E16B4863E06BFEF723FA88B147
:102C4000E06B416B88470DE02046FFF76FFF09E01E
:102C500009E02046FFF76AFF04E02046FFF766FF21
:102C6000002060647EE7206B012877D105F010001A
:102C7000002873D006F010000028FAD000BF002012
:102C8000009020680068009020684068009000BFB5
:102C900000BF2068406900F0400000285FD0E06B72
:102CA000006840681FFA80F8B8F1000F55D0A08D79
:102CB000404552DDA4F82E80E06B8069202843D087
:102CC00000BF00BF21680C3151E8001F21F4807063
:102CD00021680C3141E80002002AF3D100BF00BF97
:102CE00000BF2168143151E8001F21F00100216864
:102CF000143141E80002002AF3D100BF00BF00BF39
:102D00002168143151E8001F21F04000216814317E
:102D100041E80002002AF3D100BF202084F84200DD
:102D20000020206300BF00BF21680C3151E8001F64
:102D300021F0100021680C3141E80002002AF3D193
:102D400000BFE06BFEF772F902206063A08DE28D98
:102D5000801A81B22046FFF7ABFE03E742E0A08D68
:102D6000E18D401A1FFA80F8E08DD0B3B8F1000F62
:102D700037D000BF00BF21680C3151E8001F21F49B
:102D8000907021680C3141E80002002AF3D100BFA5
:102D900000BF00BF2168143151E8001F21F001007D
:102DA0002168143141E80002002AF3D100BF20203D
:102DB00084F842000020206300BF00BF21680C316E
:102DC00051E8001F21F0100021680C3141E8000299
:102DD000002AF3D100BF0220606341462046FFF77E
:102DE00067FEBFE605F0800030B106F0800018B144
:102DF000204601F04DFAB5E605F0400030B106F08E
:102E0000400018B1204601F0C0F8ABE600BFA9E6CB
:102E1000E33D000810B504460CB9012010BDA069BF
:102E200000B100E000BF94F8410028B9002084F808
:102E30004000204600F02AF8242084F84100206851
:102E4000C06820F400502168C860204601F03EF9B7
:102E50002068006920F4904021680861206840697A
:102E600020F02A00216848612068C06840F40050C2
:102E70002168C86000206064202084F8410084F844
:102E800042000020606300BFC8E7000010B586B0B4
:102E90000446002002900390049005904549206864
:102EA000884252D100BF4448806940F48040424982
:102EB00088610846806900F48040019000BF00BF2F
:102EC00000BF0846806940F00400886108468069B8
:102ED00000F00400019000BF00BF481502900220DE
:102EE00003900320059002A93448FEF773FA4FF4CB
:102EF0008060029000200390049002A92F48FEF702
:102F000069FA2F482F4908600020486000212D48A9
:102F100081608021C16000210161416120218161C6
:102F20000021C161FEF7D4F908B1FDF70DFE00BF25
:102F30002448E063446200BF002205212520FEF7FB
:102F4000B9FE2520FEF7A6FE32E01F492068884220
:102F50002ED100BF1848C06940F480201649C861CE
:102F60000846C06900F48020019000BF00BF00BF88
:102F70000846806940F0080088610846806900F0D2
:102F80000800019000BF00BF0815029002200390C6
:102F90000320059002A90D48FEF71CFA4FF40060CB
:102FA000029000200390049002A90848FEF712FA4C
:102FB00006B010BD0038014000100240000801407A
:102FC000580002408003002000480040000C0140EF
:102FD000704770472DE9F84F04460E46174699464C
:102FE0004FF0000A94F8410020284AD106B117B9E1
:102FF0000120BDE8F88F00206064212084F84100A2
:10300000FEF788FB8246A784E784A068B0F5805F5E
:1030100004D1206910B90025B04602E035464FF0D2
:1030200000081BE05346002280212046CDF8009086
:1030300001F05EF908B10320DBE745B9B8F80000FC
:10304000C0F308002168486008F1020803E028780E
:10305000216848606D1CE08C401EE084E08C0028F4
:10306000E0D15346002240212046CDF8009001F0E7
:103070003FF908B10320BCE7202084F8410000207C
:10308000B7E70220B5E7704700BFFEE701460868D2
:103090004069C0F38020B0B16FF480600A6850616D
:1030A00000200863202081F83D00002081F83E00C8
:1030B000086C40F00400086400BF002081F83C0068
:1030C00000BF012070470020FCE700002DE9F84315
:1030D00004460D4617469846E66A082E04D0012E8F
:1030E00002D016F5803F06D12068006840F4807059
:1030F0002168086008E0206B122805D1206800686C
:1031000040F48070216808603B4600224FF00111B6
:103110002046CDF8008000F06CF860B120680068AF
:1031200000F48070B0F5807F02D14FF4007020640D
:103130000320BDE8F8832069B0F5804F04D105F085
:10314000FE002168086112E005F44070F02141EAB8
:10315000E0102168086143463A460B49204600F0DA
:10316000A7F808B10120E4E7E8B221680861434606
:103170003A460549891F204600F09AF808B1012017
:10318000D7E70020D5E700000800010070B504462D
:103190000D46164625E02046FFF778FF08B10120CE
:1031A00070BD681CE8B1FEF7B5FA801BA84200D8D4
:1031B000BDB920684069C0F3800090B90020206349
:1031C000202084F83D00002084F83E00206C40F070
:1031D0002000206400BF002084F83C0000BF0120D4
:1031E000DEE720684069C0F380000028D3D00020CB
:1031F000D6E72DE9F04104460D4617461E46DDF898
:10320000188038E0701CA8B3FEF784FAA0EB080021
:10321000B04200D876BBC5F3074001280AD1206828
:103220004069A9B20840A9B2884201D101200BE04F
:10323000002009E020688069A9B20840A9B288424C
:1032400001D1012000E00020B84214D10020206309
:10325000202084F83D00002084F83E00206C40F0DF
:103260002000206400BF002084F83C0000BF012043
:10327000BDE8F081FFE7C5F3074001280AD12068C7
:103280004069A9B20840A9B2884201D101200BE0EF
:10329000002009E020688069A9B20840A9B28842EC
:1032A00001D1012000E00020B842ABD00020DFE7D0
:1032B0002DE9F04104460D4616461F4658E02068A9
:1032C0004069C0F38020E8B12068006840F40070D5
:1032D000216808606FF480602168486100202063E5
:1032E000202084F83D00002084F83E00206C40F04F
:1032F0000400206400BF002084F83C0000BF0120CF
:10330000BDE8F081701C90B3FEF704FAC01BB04218
:1033100000D866BBC5F3074001280AD12068406980
:10332000A9B20840A9B2884201D101200BE00020D7
:1033300009E020688069A9B20840A9B2884201D199
:10334000012000E0002090B900202063202084F8B4
:103350003D00002084F83E00206C40F020002064F6
:1033600000BF002084F83C0000BF0120C8E7FFE751
:10337000C5F3074001280AD120684069A9B2084076
:10338000A9B2884201D101200BE0002009E02068A9
:103390008069A9B20840A9B2884201D1012000E0A9
:1033A000002000288BD00020AAE770B504460D4607
:1033B000164625E02046FFF769FE08B1012070BDE2
:1033C000681CE8B1FEF7A6F9801BA84200D8BDB979
:1033D00020684069C0F3C01090B90020206320200D
:1033E00084F83D00002084F83E00206C40F020006E
:1033F000206400BF002084F83C0000BF0120DEE70D
:1034000020684069C0F3C0100028D3D00020D6E760
:1034100000B585B000BF1348806940F01000114925
:1034200088610846806900F01000009000BF00BF6E
:10343000002001900290039004904FF400500190FE
:1034400001200290002003900220049001A9064868
:10345000FDF7C0FF012251030348FEF755F905B0FF
:1034600000BD0000001002400010014010B5012214
:1034700051030248FEF748F910BD0000001001405A
:1034800010B54FF400510448FEF734F94FF4FA70C8
:1034900002F0E2F910BD0000001001400EB500205E
:1034A0000090019002901C481C49086081151B483F
:1034B00081600021017301754FF40021C16100207A
:1034C00016494860032115480161FDF7F5FB08B175
:1034D000FDF73AFB0120009001900620029069461A
:1034E0000E48FDF735FB08B1FDF72EFB02200090DA
:1034F000019069460948FDF72BFB08B1FDF724FB55
:1035000003200090019069460448FDF721FB08B1B3
:10351000FDF71AFB0EBD000000240140D40000207E
:1035200008B500BF0E48406940F001000C494861F1
:103530000846406900F00100009000BF00BF002273
:1035400005210B20FEF7B6FB0B20FEF7A3FB0022A4
:1035500005210F20FEF7AEFB0F20FEF79BFB08BDF9
:10356000001002401CB500F0C8F9FFF751FFFDF74D
:1035700087F800220C21012002F08BFB2C49086007
:1035800000220C21012002F084FB2A49086003225A
:103590000021012002F07DFB27490860012002F094
:1035A00067FB26490860264A0021264801F06EF98B
:1035B000254908600020302103468022CDE9001013
:1035C00022A1254802F0E6FF0020282103468022A0
:1035D000CDE9001021A1244802F0DCFF00201821D1
:1035E00003468022CDE9001020A1234802F0D2FF3B
:1035F0000020202103468022CDE900101FA122488F
:1036000002F0C8FF0020202103468022CDE90010EF
:103610001EA1224802F0BEFF0020182103464FF4ED
:103620000072CDE900101EA1204802F0B3FF1CBDBE
:103630000400002000000020080000200C000020F2
:10364000006C00081D3C00081000002053656E73DC
:103650006F725461736B0000E13B000850726F633E
:103660006573735461736B000D3B0008446973709C
:103670006C61795461736B00B5070008536166652E
:1036800074795461736B0000893B0008576174635F
:1036900068646F675461736B00000000D5440008D4
:1036A000436F6D6D5461736B0000000001070008EB
:1036B00000B585B00020019002900390049000BFF7
:1036C0002D48806940F010002B49886108468069C8
:1036D00000F01000009000BF00BF00BF08468069E6
:1036E00040F0200088610846806900F020000090CA
:1036F00000BF00BF00BF0846806940F00400886139
:103700000846806900F00400009000BF00BF00BFC1
:103710000846806940F0080088610846806900F02A
:103720000800009000BF00BF00224FF40051134872
:10373000FDF7EAFF00224FF480711148FDF7E4FF26
:103740004FF40050019001200290002003900220CD
:10375000049001A90948FDF73DFE4FF480700190E7
:1037600001200290002003900220049001A9044847
:10377000FDF730FE05B000BD001002400010014012
:103780000008014010B50B480B4908600B48486021
:10379000002109488160C1604FF48041016100212E
:1037A00041618161C1610162FDF7BAFF08B1FDF7B6
:1037B000CBF910BD0054004048010020801A0600DB
:1037C00010B50748074908600420486040F2E73117
:1037D00004488160FEF77EF908B1FDF7B5F910BD28
:1037E000003000409C01002000B587B0002003900D
:1037F00004900590069001900290154815490860C4
:1038000041F61F4048600021124881606321C16079
:10381000002101618161FEF7F3FE08B1FDF794F923
:103820004FF48050039003A90A48FEF7A7FF08B1A0
:10383000FDF78AF9202001900020029001A9054897
:10384000FEF79CFE08B1FDF77FF907B000BD000050
:1038500000040040A801002010B50B480B49086087
:103860004FF4E1304860002108488160C160016187
:103870000C21416100218161C161FFF7CBFA08B1E0
:10388000FDF762F910BD000000380140F002002091
:1038900010B50B480B4908604FF4E1304860002137
:1038A00008488160C16001610C2141610021816192
:1038B000C161FFF7AFFA08B1FDF746F910BD00008E
:1038C000004800403803002000BFFEE700BFFEE7CD
:1038D00070B500240EE00021204600F06DF80025B0
:1038E00004E0002000F0FCF8681CC5B2802DF8DB75
:1038F000601CC4B2082CEEDB70BD70B5002406E07D
:10390000002500E06D1CB5F57A7FFBD3641CB4F58F
:103910007A7FF5D3AE2000F0D1F8D52000F0CEF8B4
:10392000802000F0CBF8A82000F0C8F83F2000F07D
:10393000C5F8D32000F0C2F8002000F0BFF8402006
:1039400000F0BCF8A12000F0B9F8C82000F0B6F8EB
:10395000DA2000F0B3F8122000F0B0F8812000F077
:10396000ADF8CF2000F0AAF8D92000F0A7F8F12098
:1039700000F0A4F8DB2000F0A1F8302000F09EF861
:10398000A42000F09BF8A62000F098F88D2000F00D
:1039900095F8142000F092F8AF2000F08FF8FFF7B0
:1039A00097FF70BD10B50246012000E050430B1E8A
:1039B000A1F10101FAD110BD70B505460C4645F0E4
:1039C000B00000F07BF8102141EA141000F076F806
:1039D00004F00F0000F072F870BD00002DE9F04116
:1039E00005460E461746721ED206110E6A1E520674
:1039F000100EFFF7E1FF002409E0A7F12001134AB0
:103A000002EB0111085D00F06BF8601CC4B2082CD9
:103A1000F3DB721ED206110E6A1E012303EB420273
:103A2000D0B2FFF7C9FF00240BE0A7F12001074A3D
:103A300002EB011204F10801505C00F051F8601C27
:103A4000C4B2082CF1DBBDE8F08100004E6C000828
:103A50002DE9F04780460E4617461D46002415E026
:103A6000281B411E0A20FFF79DFFB7FBF0F00A213B
:103A7000B0FBF1F201FB120000F130093019C1B2C4
:103A80004A464046FFF7AAFF601CC4B2AC42E7DBDF
:103A9000BDE8F0872DE9F04107460E4615460024A3
:103AA00007E02A5D3019C1B23846FFF797FF601C66
:103AB000C4B2285D0028F4D1BDE8F0811CB50446ED
:103AC000002001908DF80540401E022301AA7821B4
:103AD00000900248FDF70CFF1CBD000048010020CB
:103AE0001CB5044607A0006801908DF805404FF012
:103AF000FF30022301AA782100900348FDF7F8FE69
:103B00001CBD0000400000004801002000BF0B4821
:103B100040680B4908600948806848600748007B96
:103B20000872022300220748006802F09DF9012074
:103B300000F0FAFC642001F08FFEE8E7203000205E
:103B40006C3000200400002008B508490968C90845
:103B50004FF47A72B1FBF2F14143009100BF00BF14
:103B600000994A1E00920029F9D108BD24000020C6
:103B700010B5032003490870FFF782FCFCF7B6FD7F
:103B800010BD0000B4000020002402F0A1FD00BF21
:103B9000642210491048006802F026FB01280DD16C
:103BA0000C4800F0F9FB0B494872022300220B4835
:103BB000006802F059F9002402F08AFD022000F0AA
:103BC000B3FC642001F048FE641C0A2CE0D9FFF726
:103BD000CFFFDDE778300020040000200000002047
:103BE000FCF73CFD00BF01F07DFC002000F09CFCD8
:103BF000322001F031FEF6E701464888B0F5487FF3
:103C000001DA012070474888B0F5966F01DD002089
:103C1000F8E701480078F5E7B000002000BF012078
:103C200000F0D6FDFBE7000010B500BF502080F388
:103C30001188BFF34F8FBFF36F8F00BF02F04EFDAF
:103C400018B14FF080500449086000BF002080F395
:103C5000118800BF10BD000004ED00E000B593B076
:103C6000282109A8FCF7C3FA142104A8FCF7BFFA1D
:103C700000200090019002900390092009904FF4D9
:103C800080300A9000200B9001200D900F900220B0
:103C90001090C10311914FF4E011129109A8FEF7A1
:103CA00039FA08B1FCF750FF0F200490022005906C
:103CB000002006904FF480600790002008900221B9
:103CC00004A8FEF7E1F808B1FCF73EFF02200090DF
:103CD000800302906846FEF73FF808B1FCF734FF16
:103CE00013B000BD7047000010B50248FEF7CDFDCF
:103CF00010BD0000C403002010B50268184B9842A4
:103D000008D0B0F1804F05D0164B984202D0164B28
:103D1000984203D122F070024B681A43104B98422C
:103D200008D0B0F1804F05D00E4B984202D00E4B18
:103D3000984203D122F44072CB681A4322F08003E8
:103D40004C6943EA040202608B68C3620B688362B9
:103D5000034B984201D10B6903630123436110BDFA
:103D6000002C0140000400400008004030B50C4623
:103D7000816821F47F4142EA03252543294381607C
:103D800030BD0A46816821F0700142F007031943F3
:103D90008160704730B50B461446026A056A25F00B
:103DA00001050562816921F0F00141EA041122F068
:103DB0000A021A438161026230BD30B50B461446D7
:103DC000026A056A25F010050562816921F47041D7
:103DD00041EA043122F0A00242EA03128161026248
:103DE00030BD70B505466C6A0020E085E084204651
:103DF000FEF79CFE70BD70B506460025746A20680B
:103E00004069C0F3C01594F84100212805D125B1BF
:103E10000020E084204600F0C8F820684069C0F324
:103E2000801594F84200222805D125B10020E085B4
:103E3000204600F074F8606C40F01000606420468A
:103E4000FEF774FE70BD70B505466C6A28680068A0
:103E500000F02000002842D1E08500BF00BF2168AB
:103E60000C3151E8001F21F4807021680C3141E8C9
:103E70000002002AF3D100BF00BF00BF2168143147
:103E800051E8001F21F001002168143141E80002CF
:103E9000002AF3D100BF00BF00BF2168143151E8F0
:103EA000001F21F040002168143141E80002002A7F
:103EB000F3D100BF202084F84200206B01280ED1EE
:103EC00000BF00BF21680C3151E8001F21F0100035
:103ED00021680C3141E80002002AF3D100BF002024
:103EE0006063206B012804D1A18D2046FEF7E0FD20
:103EF00002E02046FFF76CF870BD70B505466C6AAD
:103F000001206063206B012805D1A08D4108204667
:103F1000FEF7CEFD02E02046FFF75BF870BD00BF64
:103F200000BF02680C3252E8002F22F49071026840
:103F30000C3242E80013002BF3D100BF00BF00BFDA
:103F40000268143252E8002F22F001010268143294
:103F500042E80013002BF3D100BF016B01290ED101
:103F600000BF00BF02680C3252E8002F22F010019F
:103F700002680C3242E80013002BF3D100BF20216D
:103F800080F8421000210163704710B50446206894
:103F9000C06820F040002168C860202084F84100FB
:103FA0002046FFF770F8002010BD00BF00BF026878
:103FB0000C3252E8002F22F0C00102680C3242E8B5
:103FC0000013002BF3D100BF202180F8411070476F
:103FD000F8B5044694F84200222875D1A068B0F5DF
:103FE000805F0CD1206950B90025A66A206840681E
:103FF000C0F308003080A06A801CA06215E0A56AAA
:104000000026A068B0F5805F03D0A06828B92069B9
:1040100018B920684068287004E02068406800F003
:104020007F002870A06A401CA062E08D401E80B214
:10403000E085002846D12068C06820F02000216873
:10404000C8602068C06820F480702168C86020685B
:10405000406920F0010021684861202084F8420076
:1040600000206063206B012826D10020206300BF60
:1040700000BF21680C3151E8001F21F010002168B9
:104080000C3141E80002002AF3D100BF206800682B
:1040900000F0100010280AD100BF00200090206816
:1040A0000068009020684068009000BF00BFA18DAC
:1040B0002046FEF7FDFC02E02046FEF789FF0020C7
:1040C000F8BD01E00020FBE70220F9E770B50446E7
:1040D0002168096921F44051E268114322681161A5
:1040E0002269A1681143626941EA02052168C96831
:1040F00041F20C62914329432268D16021684969E9
:1041000021F44071A2691143226851612D4A21684E
:10411000914202D1FDF7B6FF01E0FDF7A3FF00EBEE
:10412000C00101EB001162689200B1FBF2F100EBFB
:10413000C00202EB001263689B00B2FBF3F264233F
:10414000B2FBF3F202EBC20303EB0212A1EB82011A
:10415000322202EB01116422B1FBF2F101F0F00115
:1041600000EBC00202EB001263689B00B2FBF3F2AB
:104170006423B2FBF3F201EB021200EBC00101EB8E
:10418000001163689B00B1FBF3F100EBC00303EB8C
:1041900000136668B600B3FBF6F36426B3FBF6F3D0
:1041A00003EBC30606EB0313A1EB8301322303EBFE
:1041B00001116423B1FBF3F101F00F0111442268F6
:1041C000916070BD0038014077B581B00446154656
:1041D0000298A062A58500206064222084F8420035
:1041E0002848E16B88622848E16BC8622748E16B88
:1041F00008630020E16B486302AE32682368191D32
:104200002B46E06BFDF798F800BF00200090206877
:104210000068009020684068009000BF00BF2069DF
:1042200070B100BF00BF21680C3151E8001F41F49C
:10423000807021680C3141E80002002AF3D100BFF0
:1042400000BF00BF2168143151E8001F41F0010098
:104250002168143141E80002002AF3D100BF00BFF9
:1042600000BF2168143151E8001F41F0400021686F
:10427000143141E80002002AF3D100BF002004B04D
:1042800070BD0000473E0008FB3E0008F73D0008F7
:10429000014691F84100212828D18868B0F5805F57
:1042A0000BD1086948B90A6A1088C0F308000B6886
:1042B0005860086A801C086205E00B6A581C086296
:1042C00018780B685860C88C401E80B2C88458B9F2
:1042D0000868C06820F080000B68D8600868C06873
:1042E00040F040000B68D860002070470220FCE7D7
:1042F0002DE9F04104460D4617469846069E34E0E7
:10430000701C88B32EB1FDF705FAA0EB0800B0428F
:104310002BD900BF00BF21680C3151E8001F21F4E8
:10432000D07021680C3141E80002002AF3D100BFAF
:1043300000BF00BF2168143151E8001F21F00100C7
:104340002168143141E80002002AF3D100BF202087
:1043500084F8410084F8420000BF002084F8400047
:1043600000BF0320BDE8F081FFE720680068284017
:10437000A84201D1012000E00020B842C0D00020B6
:10438000F0E7000010B50248FEF7D2FB10BD0000B8
:10439000F002002000BFFEE72DE9F05F04464A4826
:1043A00000780A2807DA48480078401C4649087017
:1043B0000020BDE8F09F2568666844480768D0F88B
:1043C0000480D0F810A0D0F80C904148007820B1BB
:1043D000012815D0022858D144E039462846FCF778
:1043E0000BF809D341462846FCF710F804D3494698
:1043F0003046FCF70BF802D201203549087048E03E
:1044000051463846FBF769FF83462946FBF7FEFF16
:1044100011D351464046FBF70EFF83462946FBF772
:10442000EBFF08D351464846FBF705FF834631466C
:10443000FBF7E2FF03D202202549087011E039465C
:104440002846FBF7E3FF0CD841462846FBF7D4FF8C
:1044500007D849463046FBF7CFFF02D800201C4959
:10446000087016E039462846FBF7D0FF0CD84146C5
:104470002846FBF7C1FF07D849463046FBF7BCFF8B
:1044800002D800201249087003E00020104908708B
:1044900000BF00BF0E48007820B1012807D00228D5
:1044A0000DD107E0FEF7E2FFFCF716F907E0FEF793
:1044B000E7FF04E0FEF7E4FFFCF718F900BF00BFD8
:1044C0000348007875E70000CC000020B800002009
:1044D000B400002000BF00F00BF810B10348FDF756
:1044E00028FB4FF4FA7001F0B7F9F4E79C010020C3
:1044F000002110E00A4850F821000A4A52F8212011
:10450000904201D100207047054850F82100054A2B
:1045100042F82100491C0429ECDB0120F3E70000EC
:104520004030002050300020042806DA034951F8BA
:104530002010491C014A42F82010704740300020EA
:104540000FB4054B10B503A9044A029800F03CF8DB
:1045500010BC5DF814FB00001D470008140000208B
:1045600002480068C0F30220704700000CED00E034
:1045700010B5002804DB0A07130E054A135406E0A1
:104580000A07140E034A00F00F031B1FD45410BD7A
:1045900000E400E018ED00E0EFF311807047EFF366
:1045A00005807047EFF31080704702E008C8121FC3
:1045B00008C1002AFAD170477047002001E001C10C
:1045C000121F002AFBD170472DE9FF4F89B09B468F
:1045D0000446002506E025280BD05A460B99904743
:1045E000641C6D1C20780028F5D10DB02846BDE86C
:1045F000F08F0027B8460122474900E0074314F82E
:10460000013F203B02FA03F00842F7D120782E2820
:1046100019D114F8010F47F004072A280ED06FF0C3
:104620002F022078A0F1300109290CD808EB88016D
:1046300002EB410100EB0108641CF2E70A98641CDC
:1046400050F8048B0A9020780028CED0642808D037
:10465000692806D075281ED05A460B9990476D1CC4
:1046600058E00A994FF00A0901C90A91002802DAB4
:1046700040422D2102E0390504D52B218DF8201070
:10468000012103E0F90704D02021F7E78A4608AEAC
:104690000DE00021FAE70A994FF00A0901C90A91D1
:1046A000F7E74946FBF7BCFE303106F8011D00284C
:1046B000F7D1ADEB060000F12009780701D44FF0E7
:1046C0000108C84502DDA8EB090000E00020804693
:1046D000002706E008A85A46C05D0B9990476D1C5C
:1046E0007F1C5745F6DB04E030205A460B99904773
:1046F0006D1CB8F10001A8F10108F5DC05E016F821
:10470000010B5A460B9990476D1CB9F10001A9F1B4
:104710000109F4DC641C65E70928010013B50C46A7
:104720004FF0FF33012269460248FEF753FC009820
:104730001CBD00003803002001461448144A1278BA
:1047400030F81200134A1268101A124A10600F480B
:104750000F4A127820F812100D4A127830F8120021
:104760000C4A126810440B4A1060094A1278501C17
:10477000C21700EB5272D210A0EBC202044B1A70A7
:1047800004480068C0F3CF007047000030300020BC
:10479000A8000020AC000020FDF7DEF9FFF75EFA6C
:1047A000FEF786FFFEF7BCFEFEF778FEFEF7EAFF97
:1047B000FFF752F8FFF718F8FFF702F8FFF768F86D
:1047C00000F022F8FEF7CEFE00F03EF800BFFEE754
:1047D00070B50546FFF7E3FE48B9FFF7E3FE30B9D1
:1047E00008480068022805D1FFF7D6FE10B16FF027
:1047F000050404E0002415B1284601F02DF82046F8
:1048000070BD00007800002010B5FFF7C8FE48B961
:10481000FFF7C8FE30B90B480068022805D1FFF742
:10482000BBFE10B16FF0050409E00648006820B92E
:10483000012004490860002401E04FF0FF342046C5
:1048400010BD00007800002010B5FFF7A8FE48B9A1
:10485000FFF7A8FE30B90C480068022805D1FFF721
:104860009BFE10B16FF005040CE0074800680128BA
:1048700006D102200449086001F0D2F8002401E0CA
:104880004FF0FF34204610BD780000202DE9F0479E
:1048900086B080468946144600200490FFF77FFECC
:1048A00000285DD1FFF77EFE002859D12D48006811
:1048B000022803D1FFF770FE002851D1B8F1000F94
:1048C0004ED080261825002005900DF1140A471EB1
:1048D00044B3206808B1D4F800A0A06900B1A5696C
:1048E0002DB1382D03D8207900F0010018B1002037
:1048F00006B0BDE8F087606908B160698608A06805
:1049000040B1E0685C2805D3206918B1606908B13E
:10491000012708E0A06830B9E06820B9206910B923
:10492000002700E00027012F0CD12169A0684B4629
:104930003246CDE9005102905146404601F05CFEFE
:1049400004900DE067B904A8B2B24B465146CDE9D8
:104950000050404601F01EFE012801D000200490C6
:104960000498C5E7780000202DE9F04105460E4681
:104970001648076816480068001D00F0EDFD681C29
:1049800038B936B112480168091D124800F03AFEE4
:104990001AE07C190E4800684460BC4207D20C48FB
:1049A0000168091D0C48006800F012FE0CE0084880
:1049B0000168091D0948006800F00AFE08480068FF
:1049C000844201D206480460BDE8F0813C0000202A
:1049D00028000020FC080020300000202C000020CF
:1049E0005800002010B5044600F018FE2448006866
:1049F000401C234908602348006840B921480460EE
:104A00000846006801280DD100F010FA0AE01E489F
:104A1000006838B91B480068C06AE16A884201D85A
:104A20001848046019480068401C18490860084686
:104A3000006860641649E06A0968884202D914492E
:104A4000E06A0860E16A01EB8101124A02EB810031
:104A5000211D00F0D7FD00F00BFE0B48006868B187
:104A600008480068C06AE16A884207D24FF0805067
:104A700009490860BFF34F8FBFF36F8F10BD00006F
:104A800038000020280000204400002054000020AE
:104A9000400000204C04002004ED00E008B500F0C8
:104AA000BDFD12480068E8B9114800F081FD1148C9
:104AB00000F07EFD0E48104908600E480F4908605E
:104AC00000200F4B0F4A102100900A2001F010F92E
:104AD000064908600846006820B10BA10348006839
:104AE00000F07EFE00F0C4FD08BD00006C00002058
:104AF0001009002024090020640000206800002024
:104B00003809002088090020546D7251000000000F
:104B100010B516E000F082FD0C48C068C468201D86
:104B200000F01AFD0A480068401E0949086009485B
:104B30000068401E0749086000F09AFD204600F01A
:104B40005EF8044800680028E4D110BDE8080020A1
:104B5000380000203400002070B504460D46206C5B
:104B600070B1216CE0680844E0606168E0688842E8
:104B700001D32068E0602846226CE168FBF71EFB49
:104B800070BD2DE9F04104460F4615464FF0000870
:104B9000A66B206C40B9206860BB606801F040FEE5
:104BA00080460020606025E07DB93946226CA0680F
:104BB000FBF704FB216CA0680844A060D4E9011055
:104BC000884217D32068A06014E03946226CE06860
:104BD000FBF7F4FA216CE068401AE0602168E068B5
:104BE000884203D2216C6068401AE060022D01D136
:104BF00006B1761E701CA0634046BDE8F08110B57A
:104C0000044694F8590030B9206B00F04FFD20465F
:104C100000F04CFD1AE094F85900012803D1204619
:104C200000F044FD12E094F85900022801D101205F
:104C300000E0002050B900BF502080F31188BFF37E
:104C40004F8FBFF36F8F00BF00BFFEE710BD01465F
:104C50004A6A22B10A6B1268C2F1380000E00020F3
:104C6000704700000146084A126812680AB901221A
:104C700000E000220A600A6822B9034A1268D2687A
:104C8000106800E0002070476400002030B54FF449
:104C9000FA53174800F007042CB1C01D20F007009C
:104CA000134C041B1B1B0246124C22600024114DA6
:104CB0006C60D018083820F007000F4C20600024EA
:104CC0000D4D2D686C600C4D2D682C601146441AFA
:104CD0004C60094C24680C60084D4C682C60084DF1
:104CE0004C682C604FF00044064D2C6030BD000035
:104CF000E01000207C000020840000208C000020B8
:104D0000880000209000002000BFFFF701FF064848
:104D100000680128F9D94FF0805004490860BFF3BA
:104D20004F8FBFF36F8FF0E74C04002004ED00E0DD
:104D300010B504464CB1002060602060E0600023A4
:104D40001A461946204601F08FF810BD2DE9F041B2
:104D500006460D4617469846069C0DB9246000E0AD
:104D60002760E66325640121204601F031F884F8CC
:104D70004C80BDE8F0812DE9F05F82460F469046F9
:104D80009B460A9E0C9C4FEA8801A522206BFBF7EC
:104D900027FAA8F10100216B01EB800929F007092E
:104DA00009F0070008B9012000E0002050B900BF59
:104DB000502080F31188BFF34F8FBFF36F8F00BF78
:104DC00000BFFEE7002507E0795D04F1340041559E
:104DD000785D00B902E06D1C102DF5D300BF0021F5
:104DE00043200155382E00D33726E662E6640020C2
:104DF0002065201D00F0E9FB04F1180000F0E5FB40
:104E00002461C6F13800A06164620020606584F806
:104E100058005A465146484600F052FB20600B9815
:104E200008B10B980460BDE8F09F000010B50024A5
:104E300007E004EB84010F4A02EB810000F0B8FBAD
:104E4000641C382CF5D30C4800F0B2FB0B4800F082
:104E5000AFFB0B4800F0ACFB0A4800F0A9FB0A4886
:104E600000F0A6FB044809490860044808490860A6
:104E700010BD00004C040020AC080020C008002039
:104E8000D4080020E8080020FC0800202C000020A6
:104E90003000002010B50146164800E000680368A5
:104EA0008B42FBD30246436813448B4204D14368D0
:104EB0004C682344436001460A464B681344046827
:104EC000A34211D10C4C03682468A34208D04B685C
:104ED0000468646823444B6003681B680B6005E04A
:104EE000054B1B680B6001E003680B60884200D033
:104EF000016010BD7C000020840000202DE9F041FD
:104F000004460D4616461F464FF0000865602461B2
:104F1000B5420CD8F01BA169884202D34FF00108BA
:104F200011E0211D0948006800F052FB0BE0BE4271
:104F300004D2BD4202D34FF0010804E0211D044811
:104F4000006800F045FB4046BDE8F08168000020A5
:104F50006400002070B5054600F060FBA86B08B93E
:104F6000012400E0002400F083FB204670BD70B5F2
:104F7000054600F053FBA86BE96B884201D1012480
:104F800000E0002400F074FB204670BDF8B5054633
:104F90000F4616480068C068C468201D00F0DCFA9F
:104FA000E06901281DD1A06941192B463A462046E7
:104FB000FFF7A4FFA8B1002003462A46014600904F
:104FC000204601F0DBFD064656B900BF502080F3B5
:104FD0001188BFF34F8FBFF36F8F00BF00BFFEE795
:104FE00000BF2046616A8847F8BD000064000020C9
:104FF000F0B587B082E00398002811DA04AE56B904
:1050000000BF502080F31188BFF34F8FBFF36F8F25
:1050100000BF00BFFEE7D6E90020B168904700BF9F
:10502000039800286ADB059C606908B9012000E04C
:10503000002010B9201D00F08FFA02A800F0C0F87F
:10504000054603980A2857D2DFE800F00905073122
:10505000334F0608323400BF00BF00BF00BF0498C2
:10506000A269811803462A462046FFF747FFE8B1A8
:105070002046616A8847E069012817D10020009026
:105080000498A169421800231946204601F076FDD4
:10509000074657B900BF502080F31188BFF34F8FE8
:1050A000BFF36F8F00BF00BFFEE700BF25E000BF6A
:1050B00023E000BF0498A061A06908B1012000E0CE
:1050C000002050B900BF502080F31188BFF34F8FEC
:1050D000BFF36F8F00BF00BFFEE7A06941192B46E9
:1050E0002A462046FFF70AFF07E094F82C0010B983
:1050F000204600F0DBFA00E000BF00BF002203A959
:105100000448006801F070F800287FF474AF07B01D
:10511000F0BD00006C000020F8B505460C4600F01C
:10512000DBFC684600F04CF80646009820BB44B90A
:10513000B54206D801F064FC31462846FFF726FF49
:105140001CE03CB10E480068006808B9012000E08E
:1051500000200446A91B22460A48006800F056FBBE
:1051600001F04EFC50B94FF0805007490860BFF382
:105170004F8FBFF36F8F01E001F042FCF8BD0000DC
:10518000680000206C00002004ED00E00A49096876
:10519000096809B9012100E0002121B14FF0FF3178
:1051A000064A116006E004490968C968C868034AEC
:1051B00041681160704700002C000020580000205A
:1051C00070B5044601F084FA054607480068854238
:1051D00004D200F00BF80120206001E000202060E4
:1051E00001480560284670BD740000202DE9F84391
:1051F00032E024480068C068056822480068C0683A
:10520000C468201D00F0A8F92046616A8847E0695B
:10521000012821D1A0694619AE4207D966602461F0
:10522000211D1848006800F0D3F915E0002003465E
:105230002A4601460090204601F0A0FC074657B9D7
:1052400000BF502080F31188BFF34F8FBFF36F8FE3
:1052500000BF00BFFEE700BF0A480068006808B949
:10526000012000E000200028C3D00648D0F80080CC
:1052700005480068034908600348C0F80080BDE89D
:10528000F883000064000020680000200E480068D9
:10529000401C08B9012000E0002050B900BF502098
:1052A00080F31188BFF34F8FBFF36F8F00BF00BF34
:1052B000FEE700BF502080F31188BFF34F8FBFF38C
:1052C0006F8F00BF00BFFEE79400002008B500BF4D
:1052D0006846FFF7C7FC044620460099FFF71CFF0D
:1052E000FFF786FEF4E770B5044600F097F994F9ED
:1052F000455010E0606A08B9012000E0002038B98C
:1053000004F1240001F030FB18B100F0DFFA00E0F6
:1053100003E0681E45B2002DECDC00BFFF2084F8DE
:10532000450000F0A5F900F079F994F9445010E037
:10533000206908B9012000E0002048B904F11000FC
:1053400001F012FB08B100F0C1FA681E45B200E09E
:1053500001E0002DECDC00BFFF2084F8440000F0E9
:1053600087F970BD2DE9F04104464FF0000800F0C8
:10537000B3FB4648006808B9FFF788FC444800685A
:10538000204000286BD1D4B1083404F00700B0B13C
:1053900004F00700C0F10800044404F0070008B955
:1053A000012000E0002050B900BF502080F3118898
:1053B000BFF34F8FBFF36F8F00BF00BFFEE7002C1E
:1053C0004DD034480068844249D8334E3046056891
:1053D00001E02E462D686868A04202D228680028A5
:1053E000F7D12A480068854239D0306800F10808B2
:1053F000286830606868001B102819D92F1907F039
:10540000070008B9012000E0002050B900BF50207B
:1054100080F31188BFF34F8FBFF36F8F00BF00BFC2
:10542000FEE76868001B78606C603846FFF732FD65
:10543000184968680968081A16490860084600682B
:1054400016490968884203D2124800681349086067
:105450000F4968680968084368600020286001F007
:10546000CFFA08F0070008B9012000E0002050B989
:1054700000BF502080F31188BFF34F8FBFF36F8FB1
:1054800000BF00BFFEE74046BDE8F0818400002079
:1054900090000020880000207C0000208C0000206C
:1054A0000648006830B10549096801F15000096DEE
:1054B000491C016001480068704700002800002076
:1054C000001F4FF080730360001F21F00103036091
:1054D000001F034B0360143802602038704700003F
:1054E0008D52000870B50220FBF7B0F8164908800D
:1054F0000888FFF721F9144948800020FBF7A6F837
:105500000646FAF760FF05461049FAF7ECFE044636
:105510000F49FAF71AFF0C4948600120FBF796F88B
:105520000646FAF750FF05460A49FAF7DCFE04463C
:105530000749FAF70AFF044988600846FEF75CFB52
:105540000149087370BD0000203000200000F041C8
:1055500000F07F450000A04001460A69D1E9013012
:105560009860D1E9010358605068884201D1886889
:105570005060002008611068401E1060106870477D
:10558000034B0360034B0B608023136070470000E4
:10559000280A0020840A0020034B0360034B0B60A1
:1055A0004FF4807313607047840C0020E00C0020DF
:1055B00000F1080141604FF0FF31816000F1080106
:1055C000C1600161002101607047002101617047E5
:1055D00010B502460B685C1C0CB9106907E002F1BB
:1055E000080000E04068446824689C42FAD9446896
:1055F0004C604C68A160886041600A611468641C5A
:10560000146010BD42684A6093688B60936859606B
:105610009160086103685B1C0360704700BF502005
:1056200080F31188BFF34F8FBFF36F8F00BF0E4819
:105630000068401C0C49086008460068012812D127
:105640000A480068C0B208B9012000E0002050B943
:1056500000BF502080F31188BFF34F8FBFF36F8FCF
:1056600000BF00BFFEE770479400002004ED00E09B
:105670000D48006850B900BF502080F31188BFF377
:105680004F8FBFF36F8F00BF00BFFEE70648006873
:10569000401E054908600846006820B9002080F3D4
:1056A000118800BF00BF70479400002070B5064607
:1056B0003546002E3FD0083D2C461F4960680968DA
:1056C000084008B1012000E0002050B900BF502080
:1056D00080F31188BFF34F8FBFF36F8F00BF00BF00
:1056E000FEE7206808B9012000E0002050B900BFA3
:1056F000502080F31188BFF34F8FBFF36F8F00BF2F
:1057000000BFFEE70C4960680968084098B120684E
:1057100088B90949606809688843606000F0DCF96D
:105720000649606809680844044908602046FFF794
:10573000B1FB01F065F970BD9000002088000020E9
:1057400000204FF0E02108618861064800684FF4AE
:105750007A71B0FBF1F0401E4FF0E0214861072064
:10576000086170472400002070B5FAF711FD044667
:10577000102C16D304F1E02090F8F053154800786F
:10578000854201DB012000E0002050B900BF50201D
:1057900080F31188BFF34F8FBFF36F8F00BF00BF3F
:1057A000FEE70D48006800F4E0600C490968884293
:1057B00001D8012000E0002050B900BF502080F344
:1057C0001188BFF34F8FBFF36F8F00BF00BFFEE79D
:1057D00070BD0000980000200CED00E09C0000204F
:1057E000024600200BE0084B53F8303033B9064B2B
:1057F00043F8301003EBC0035A6002E0401C082855
:10580000F1D300BF704700000C0400202DE9F041E7
:1058100005460E4617462C46FFF700FF94F9440054
:10582000401C10B9002084F8440094F94500401C45
:1058300010B9002084F84500FFF71AFFA06B28B9C3
:105840003A46314604F1240000F062F82046FFF7A2
:105850004AFDBDE8F081000070B504460025D4B1D2
:105860001248006808B9012000E0002050B900BFCC
:10587000502080F31188BFF34F8FBFF36F8F00BFAD
:1058800000BFFEE700F028F900212046FFF76CF882
:1058900001F0B6F805463DB94FF080500449086064
:1058A000BFF34F8FBFF36F8F70BD0000600000200B
:1058B00004ED00E00349096801600349096841609B
:1058C00070470000500000203C00002001200149EA
:1058D000086070474C00002070B504460D4654B96E
:1058E00000BF502080F31188BFF34F8FBFF36F8F3D
:1058F00000BF00BFFEE70548016818312046FFF7EA
:1059000067FE01212846FFF72FF870BD2800002010
:1059100070B505460E46144655B900BF502080F3B9
:105920001188BFF34F8FBFF36F8F00BF00BFFEE73B
:105930000648016818312846FFF764FE0CB14FF0A5
:10594000FF3621463046FFF70FF870BD28000020D3
:105950002DE9F04706460F4634464FF00109002E68
:1059600055D0206D50B900BF502080F31188BFF38F
:105970004F8FBFF36F8F00BF00BFFEE7E06CB842F0
:1059800001D23D4600E0E56CE06AA8423FD0206DC0
:1059900001283CD11F480068844201D0012000E06A
:1059A000002050B900BF502080F31188BFF34F8F03
:1059B000BFF36F8F00BF00BFFEE7D4F82C80E56215
:1059C000A06900F0004010B9C5F13800A06108EBF3
:1059D0008801114A02EB81016069884201D10120EE
:1059E00000E0002098B1201DFFF7B6FD0B49E06AEA
:1059F0000968884202D90949E06A0860E16A01EB56
:105A00008101054A02EB8100211DFFF7FBFDBDE886
:105A1000F0870000280000204C04002040000020F7
:105A200010B586B000200590049003AA04A905A82B
:105A3000FFF7A6FD0022DDE904101346CDE90021A1
:105A400002901EA11F48039A00F0D6FD1E4908606F
:105A50000846006808B1012400E00024012C02D1AE
:105A600001F050F80446012C15D100BF502080F3FE
:105A70001188BFF34F8FBFF36F8F00BF4FF0FF3020
:105A8000124908600120124908600020114908608D
:105A900000F072F810E0601C08B1012000E0002066
:105AA00050B900BF502080F31188BFF34F8FBFF370
:105AB0006F8F00BF00BFFEE706B010BD49444C45E4
:105AC00000000000094D00085C0000205800002084
:105AD000440000203C00002002480068401C0149AE
