:020000040800F2
:10000000604100209901000809480008693A000889
:1000100005480008710E0008E158000800000000C3
:1000200000000000000000000000000001010008C6
:1000300091100008000000004501000875510008FB
:10004000B3010008B3010008B3010008B3010008C0
:10005000B3010008B3010008B3010008B3010008B0
:10006000B3010008B3010008B301000845100008FF
:10007000B3010008B3010008B301000855100008DF
:10008000B3010008B3010008B3010008B301000880
:10009000B3010008B3010008B3010008B301000870
:1000A000B3010008B3010008B3010008B301000860
:1000B000B3010008B301000835520008B30100087D
:1000C000B3010008B3010008B3010008B301000840
:1000D000B3010008D1580008B3010008B3010008BB
:1000E000B3010008B3010008B3010008DFF80CD029
:1000F00000F086FC00480047BD6600086041002013
:10010000224B19680868B0E8F00F80F30988BFF344
:100110006F8F4FF0000080F311884EF00D0E704786
:100120000000000006480068006880F3088862B696
:1001300061B6BFF34F8FBFF36F8F00DF00BF00BF0B
:1001400008ED00E0EFF30980BFF36F8F0F4B1A68E3
:1001500020E9F00F106008B54FF0500080F31188CF
:10016000BFF34F8FBFF36F8F07F0E0FD4FF000003C
:1001700080F31188BDE8084019680868B0E8F00FFE
:1001800080F30988BFF36F8F704700BF2C000020F9
:10019000EFF3058070470000064880470648004797
:1001A000FEE7FEE7FEE7FEE7FEE7FEE7FEE7FEE727
:1001B000FEE7FEE731520008ED000008202A04DBCC
:1001C000203A21FA02F00021704721FA02F3D040D0
:1001D000C2F12002914008431946704740EA0103EA
:1001E0009B0703D009E008C9121F08C0042AFAD2ED
:1001F00003E011F8013B00F8013B521EF9D27047B1
:10020000D2B201E000F8012B491EFBD27047002258
:10021000F6E710B513460A4604461946FFF7F0FF05
:10022000204610BD421E12F8013F002BFBD111F8F1
:10023000013B02F8013B002BF9D1704730B5054670
:100240002A460B4612F8010B13F8014B08B1A042E5
:10025000F8D01CB1002802D06D1CF1E7284630BD53
:10026000CAB2401E10F8011F8A4202D00029F9D1FB
:1002700000207047421C10F8011B0029FBD1801A96
:10028000704710B5044600E0401C0378002BFBD1FA
:1002900000E0401C521E04D311F8013B0370002BF8
:1002A000F7D100210170204610BDF0B480EA0102B0
:1002B000D40F4200B2EB410F02D20246084611466B
:1002C0004A0042D0C30DDDB2C1F3C752AD1A202D92
:1002D00035DAC1F3160141F4000204B15242C5F10E
:1002E000200602FA06F12A411044B3EBD05F23D076
:1002F000C4B1012DA0EBC35009DCF0BC4FF00042AB
:1003000002EAC352DBB200F5000000F066BA40001A
:1003100000F1807000EBC350A0F1807040EAD17012
:10032000490009E0490841EAC071A0EBC35000F55B
:100330000000400800EBC350F0BC00F045BA614239
:10034000012202EB4101001BF6E7F0BC704781F08F
:100350000041AAE780F00040A7E780EA010210B55B
:1003600002F00043400022D04A001FD0010E01EBF2
:100370001261C0F35600C2F3560240F4000042F48A
:100380000002A0FB022000047F39140400D0401CAE
:1003900050EA124001D44000491EC2B20C0604EBE0
:1003A000D010401C4008802A02D003E0002010BD7D
:1003B00020F00100002900DA0020184310BD30B4FD
:1003C00080EA010202F0004530F0004221F00040D6
:1003D00013D090B1C30DD40DC2F31601C0F31600B3
:1003E000E41A41F4000140F400027D34914201D34B
:1003F000641C00E04900002C02DA30BC0020704789
:100400004FF400000023914201D3891A03434008AE
:100410004FEA4101F7D151B1914202D14FF0004171
:1004200005E002D24FF0010101E06FF0010103EBA2
:10043000C450284430BC00F0C7B92DE9FE4F8046B7
:1004400081EA0300C00F0C46009021F0004123F028
:100450000045B8EB0200A94105D24046214690462E
:100460001C460B46024623F00040104347D0270DA0
:10047000C7F30A00C3F30A510290401A01904028C2
:100480006BDAC3F3130040F4801B0098924620B14E
:100490000023D2EB030A63EB0B0B01985946C0F122
:1004A0004002504600F06FF906460D465046594648
:1004B000019A00F077F910EB08006141002487EA07
:1004C000115284EAE7731A4340D0009A62B3019A4A
:1004D000012A4FEA075215DC001B61EB02014FF0C5
:1004E000004202EA0752CDE90042001C41F58011AA
:1004F00032462B4600F0AEF903B0BDE8F08F40461F
:100500002146F9E7001B61EB0201001C41F5801355
:1005100000185B412018A2F5001747EB030140EAE1
:10052000D570B6196D4111E06D084FEA360645EAFF
:10053000C0754FEA0752001B61EB0201001C41F538
:10054000801149084FEA30000019514132462B46CC
:1005500003B0BDE8F04F00F06EB9009801224000F2
:100560000023D0EB020263EBE073009821464FEAD0
:10057000E074B8EB000061EB0401E9E783F00043AD
:100580005BE781F0004158E72DE9FE4F81EA030463
:1005900004F0004421F0004100944FF0000B23F0E0
:1005A000004350EA01045ED052EA03045BD0C3F377
:1005B0000A54C1F30A552C44A4F2F3340194A0FB6D
:1005C0000254C1F3130141F48011C3F3130343F444
:1005D000801301FB024400FB034E840A970A44EA9D
:1005E000815447EA8357A4FB076802958D0A05FBEF
:1005F00007854FEA932C04FB0C542705029D4FEA14
:10060000065847EA1637B5EB08056EEB070C870E60
:10061000920E47EA811742EA8312A7FB0201B6EB6A
:100620000B0164EB00042B0D43EA0C335E1844EB22
:100630001C50DA465146E7FB0201C5F313044FEAAA
:100640000B3343EA14534FEA0432019C43EA060396
:10065000A4F10C040294009CCDE900B400F0FAF877
:1006600003B0BDE8F08F00200146F9E79623002291
:10067000114600F0B2B820F00040C10DC0F31600E2
:1006800040F400007F2901DA00207047962903DC3E
:10069000C1F19601C8407047963988407047000004
:1006A00030B5041E71F1000404DB4FF000444042F9
:1006B00064EB0101141E73F1000405DB1C464FF0CE
:1006C0000043524263EB0403994208BF904230BD9D
:1006D000002801DBC0F10040002901DBC1F100412D
:1006E00081427047002801DBC0F10040002901DB96
:1006F000C1F100418842704730B50B4601460020E9
:100700002022012409E021FA02F59D4205D303FAD3
:1007100002F5491B04FA02F52844151EA2F1010254
:10072000F1DC30BD2DE9F05F0546002092469B4686
:1007300088460646814640241BE0284641464746F7
:100740002246FFF73BFD53465A46C01A914110D34B
:1007500011461846224600F016F82D1A67EB0108DC
:100760004F4622460120002100F00DF817EB00094A
:100770004E41201EA4F10104DFDC484631462A46E2
:100780004346BDE8F09F202A04DB203A00FA02F13C
:10079000002070479140C2F1200320FA03F319436F
:1007A00090407047202A06DBCB17203A41FA02F02E
:1007B00043EAE07306E041FA02F3D040C2F12002BE
:1007C00091400843194670470029A8BF7047401C54
:1007D000490008BF20F00100704710B4B0FA80FC57
:1007E00000FA0CF050EA010404BF10BC704749B194
:1007F000CCF1200421FA04F411FA0CF118BF012104
:1008000021430843A3EB0C01CB1D4FEA00614FEAE3
:10081000102042BF002010BC704700EBC3501044B2
:100820000029A4BF10BC7047401C490008BF20F03D
:10083000010010BC704710B5141E73F1000408DAF3
:10084000401C41F1000192185B411A4301D120F094
:10085000010010BD2DE9F04D92469B4611B1B1FA51
:1008600081F202E0B0FA80F220329046FFF78BFF6F
:1008700004460F4640EA0A0041EA0B0153465A4635
:10088000084313D0114653EA010019D0C8F14002C1
:100890005046FFF793FC05460E46504659464246E1
:1008A000FFF771FF084305D0012004E020463946D8
:1008B000BDE8F08D0020054346EAE0762C4337433F
:1008C0000A986305E40AA0EB08000022FD0A44EA46
:1008D00047540A3002D500200146E9E70105101906
:1008E0006941DDE9084500196941BDE8F04DA2E71D
:1008F0002DE9F04D81EA030404F0004B21F000459E
:1009000014464FF0000A23F0004150EA050220D0BF
:1009100054EA01021DD0C5F30A570246C5F313037A
:10092000C1F31300C1F30A5640F4801543F4801359
:10093000A7EB0608101BD64608F2FD3873EB05003E
:1009400002D308F1010801E092185B41B8F1000FF1
:1009500003DA00200146BDE8F08D00204FF480113D
:10096000064684460EE0171B73EB050705D3121BE2
:1009700063EB050306434CEA010C49084FEA3000DB
:1009800092185B4150EA0107EDD152EA030012D000
:1009900082EA040083EA0501084305D0101BAB413D
:1009A00006D20122002306E000224FF0004302E0BD
:1009B0006FF0010253101AEB06004CEB085110EBDC
:1009C0000A0041EB0B01BDE8F04DFFF734BFC1F366
:1009D0000A52C1F3130140F2FF3341F480119A42ED
:1009E00002DA00200146704740F233439A42A2F2F5
:1009F000334202DC5242FFF7E1BBFFF7C4BE000006
:100A0000064C074D06E0E06840F0010394E807005B
:100A100098471034AC42F6D3FFF76CFB989D000862
:100A2000B89D000870B5044600252068806800F075
:100A3000010018B32068806820F0010021688860F8
:100A400001F058FB054613E001F054FB401B02285F
:100A50000ED92068806800F0010048B1A06A40F01B
:100A60001000A062E06A40F00100E062012070BD69
:100A70002068806800F001000028E5D10020F6E73A
:100A800070B505466C6AA06A00F05000E0B9A06A33
:100A900040F40070A0622068806800F46020B0F527
:100AA000602F0DD1207B58B9A06A20F48070A0621D
:100AB000A06A00F4805018B9A06A40F00100A0625A
:100AC000204600F0E5FD03E0206A016B28468847D8
:100AD00070BD70B505466C6AA06A40F04000A06227
:100AE000E06A40F00400E062204600F0D3FD70BDF3
:100AF00070B50446656A284600F0CBFD70BD000065
:100B000038B504460025002000902068806800F079
:100B1000010078BB2068806840F00100216888608F
:100B2000194800681949B0FBF1F0009002E0009804
:100B3000401E009000980028F9D101F0DBFA05462C
:100B400019E001F0D7FA401B022814D92068806808
:100B500000F0010078B9A06A40F01000A062E06ADD
:100B600040F00100E06200BF002084F8240000BFD4
:100B7000012038BD05E02068806800F001000028F1
:100B8000DFD00020F5E700002800002040420F00E1
:100B90000146024830F8110070470000A400002010
:100BA00010B503220349044800F070FE034802F028
:100BB00063FA10BDA4000020E0000020B401002072
:100BC0002DE9F047074689469046DDF820C0002110
:100BD000002200240026002500200446024601468B
:100BE00045E0002601E0491C761C614502D2585CB4
:100BF0002028F8D0614500D13BE0ACEB0100022891
:100C000007D3585C0D2804D1481C185C0A2800D171
:100C10002CE0585C0A2800D128E01EB16FF02B00B0
:100C2000BDE8F087585C3D2806D1601C04460228C8
:100C300002D96FF02B00F3E7585C7F2806DC585C84
:100C4000DFF8E4A01AF800007F2802D16FF02B0033
:100C5000E6E7585CDFF8D0A01AF80000402803DA75
:100C600014B16FF02B00DBE7521C00BF491C61453B
:100C7000B7D300BF1AB90020C8F80000D0E7D008E9
:100C800000EB40004FEA400A02F0070000EB400092
:100C90004000C01D0AEBD002121B0FB1914504D2D7
:100CA000C8F800206FF02900BAE7032400200646A8
:100CB00002463D4631E018780D2805D018780A28FC
:100CC00002D01878202800D125E01878DFF858A045
:100CD0001AF80000402801D1012000E00020241A69
:100CE0001878DFF844A01AF8000066F39F10064653
:100CF000501C024604280DD1002214B1300C05F816
:100D0000010B012C02D9300A05F8010B022C01D984
:100D100005F8016B00BF491E5B1C0029CBD1E81B05
:100D2000C8F8000000207BE7C29C00082DE9F04FC6
:100D300007468946099C00250026AC46A846AA46D7
:100D400000211CB900201060BDE8F08F0320B4FB27
:100D5000F0F04FF0030BB4FBFBFE0BFB1E4BBBF1A3
:100D6000000F02D04FF0010B01E04FF0000B00EB41
:100D70000B06B6F1804F05D34FF0FF3010606FF0D7
:100D80002900E1E7B600701C814500D327B9701C2B
:100D900010606FF02900D7E70320B4FBF0F000EB00
:100DA00040060025394629E013F801CB13F8018BE2
:100DB00013F801AB2D484FEA9C0B10F80B0001F81B
:100DC000010B4FEA0C1000EB281000F03F00DFF899
:100DD0009CB01BF8000001F8010B4FEA880000EB03
:100DE000AA1000F03F001BF8000001F8010B0AF008
:100DF0003F001BF8000001F8010BED1CB542D3D3F6
:100E0000A5422DD213F801CB681CA04202D213F8E0
:100E1000010B00E0002080461448CCF3850B10F84D
:100E20000B0001F8010B4FEA0C1000EB281000F04A
:100E30003F00DFF838B01BF8000001F8010B681C18
:100E4000A04207D23F2000EA88001BF8000001F80A
:100E5000010B02E03D2001F8010B3D2001F8010BE0
:100E6000C81B10600020087000BF6DE7829C00085E
:100E700000BFFEE700B585B000BF1248806940F0B2
:100E80000400104988610846806900F00400009061
:100E900000BF00BF002001900290039004908815CD
:100EA000019001200290002003900220049001A9EB
:100EB000054800F07FFF01221102034801F014F9F8
:100EC00005B000BD001002400008014010B501222D
:100ED0001102024801F008F910BD000000080140AD
:100EE00010B500224FF48071014801F0FDF810BDEB
:100EF0000008014000F08EFA1FA004F0C7FD4FF477
:100F000000722249224802F08AFA2148C06B006828
:100F1000006820F004001E49C96B0968086000F0F1
:100F2000C9F91CA004F0B2FD06E021A004F0AEFD5A
:100F30004FF4FA6006F0B2FD21A122A000F080FA81
:100F40000028F2D12BA004F0A1FD4FF4FA6006F0C6
:100F5000A5FD06E02DA004F099FD4FF4FA6006F01F
:100F60009DFD03F017FF0028F4D130A004F08EFDA2
:100F700003F0C4FE00BFFEE7455350205461736B7D
:100F80002053746172740D0A00000000FC010020FF
:100F9000FC030020436F6E6E656374204D51545402
:100FA000205365727665722E2E2E0D0A0000000009
:100FB0005443502052657472792E2E2E0D0A000073
:100FC0004F4B000041542B43495053544152543D20
:100FD00022544350222C226D717474732E68656301
:100FE0006C6F7564732E636F6D222C313838330D3E
:100FF0000A00000054435020436F6E6E65637420F6
:10100000537563636573730D0A0000004D515454AA
:1010100020436F6E6E656374204661696C2C20728C
:10102000657472792E2E2E0D0A0000004D51545415
:1010300020436F6E6E6563742053756363657373CD
:101040000D0A000010B5024800F064FD10BD00005C
:101050001001002010B5024800F05CFD10BD00003A
:101060008C04002030B590F840500124AC40C56B92
:101070006C60046863604468102C04D10468A2604A
:101080000468E16003E00468A1600468E26030BDC8
:101090007047000003F0BAFB44A20121084603F0A8
:1010A00097FC46A20121022003F092FC47A20121F5
:1010B000032003F08DFC47A20121042003F088FCEB
:1010C00000BF4FF0FF3245494548006807F0AEF9D0
:1010D000012864D141490868FFF7CDFA044602238C
:1010E00022460921012003F051FC3C494868FFF7E2
:1010F000C2FA0446012322460921022003F046FCDD
:10110000364908683749FFF728F90546FFF7B3FA6B
:101110000446032322460C21012003F037FC2F490B
:1011200048683049FFF719F90546FFF7A4FA044665
:10113000032322460B21022003F028FC2748007AD3
:1011400028B929A20721032003F042FC04E028A2C9
:101150000721032003F03CFC2048407A012805D1F8
:1011600025A20721042003F033FC18E01B48407A35
:10117000022805D123A20721042003F029FC0EE058
:101180001648407A032805D121A20721042003F044
:101190001FFC04E021A20721042003F019FC032016
:1011A00004F068FCC82006F079FC8AE7566F6C747E
:1011B0006167653A20202E20202056004375727208
:1011C000656E743A202E2020204100005472616325
:1011D0006B3A000053746174653A00003C3900209A
:1011E0000000002000007A44554E4F4343000000A9
:1011F0004F434320200000005741524E494E4721A3
:10120000000000004641554C542120200000000001
:101210004552524F52212020200000004E4F524D87
:10122000414C20200000000010B54FF0FF310A486B
:10123000006807F0AFF94FF400710848FEF7E7FFC8
:1012400000200749088000231A4619460248006812
:1012500006F02CFF10BD00001000002060390020B7
:10126000D200002070B50546002400BF00F04CF904
:1012700080B90DA10E48FEF7E1FF044654B13A21B2
:101280002046FEF7EDFF044614B1641C204670BDF5
:101290000020FCE7052006F001FC281EA5F1010155
:1012A0008DB2E3D100BFF2E74950442C00000000AA
:1012B0006039002010B5FFF7B7FF27A004F0E6FB68
:1012C00003E04FF4FA7006F0E9FB25A125A000F039
:1012D000B7F80028F5D125A004F0D8FB03E04FF4BF
:1012E000FA7006F0DBFB1EA123A000F0A9F800288D
:1012F000F5D125A004F0CAFB03E04FF4FA7006F024
:10130000CDFB17A123A000F09BF80028F5D125A064
:1013100004F0BCFB03E04FF4FA7006F0BFFB10A131
:1013200024A000F08DF80028F5D126A004F0AEFB33
:1013300003E04FF4FA6006F0B1FB25A126A000F00F
:101340007FF80028F5D12EA004F0A0FB40F6B830BD
:1013500006F0A4FB10BD0000312E2041540D0A0000
:101360004F4B000041540D0A00000000322E204374
:10137000574D4F44450D0A0041542B43574D4F44A0
:10138000453D310D0A000000332E204349504D5594
:10139000580D0A0041542B4349504D55583D300DCE
:1013A0000A000000342E2041542B43574448435038
:1013B0000D0A000041542B4357444843503D312C03
:1013C000310D0A00352E2043574A41500D0A0000C6
:1013D000474F54204950000041542B43574A415035
:1013E0003D22332D323031222C2232383235333700
:1013F0003133373233347A6869220D0A0000000035
:101400004553503832363620496E6974204F4B0DA3
:101410000A00000010B500224FF48051074800F088
:1014200063FEC82006F03AFB01221103034800F0D6
:101430005BFE4FF4FA6006F031FB10BD000C01407A
:1014400070B504460D46FFF7EFFE2046FEF712FF8B
:1014500086B24FF4FA7332462146134802F0AAFAD4
:1014600017E000F051F888B929461048FEF7E6FE6B
:1014700018B1FFF7D9FE002070BD0DA10B48FEF793
:10148000DDFE18B1FFF7D0FE0120F5E70A2006F0D7
:1014900005FB094801780078401E074A10700029B2
:1014A000DFD10120E8E70000FC03002060390020C4
:1014B0004552524F52000000D600002030B589B08E
:1014C00004460D46FFF7B0FE2A4609A101A804F024
:1014D00005FB0BA101A8FFF7B3FF30B94FF4FA7376
:1014E0002A462146074802F065FA09B030BD0000DF
:1014F00041542B43495053454E443D25640D0A0049
:101500003E000000FC03002010B540F6B83105484D
:10151000006807F03FF8012801D1002010BD01202C
:10152000FCE700000C00002072B600BFFEE70000E0
:1015300038B5024600230020009000BF92F8240036
:10154000012801D1022038BD012082F8240000BF0B
:101550004868072812D21068406B0C79641E04EBAF
:1015600084051F24AC40A0430D796D1E05EB850555
:101570000C68AC4020431468606327E048680D287D
:1015800012D21068006B0C79E41F04EB84051F2451
:10159000AC40A0430D79ED1F05EB85050C68AC4010
:1015A00020431468206311E01068C06A0C790D3C78
:1015B00004EB84051F24AC40A0430D790D3D05EBE1
:1015C00085050C68AC4020431468E06208680A286E
:1015D00012D31068C0680C780A3C04EB4405072459
:1015E000AC40A0430D780A3D05EB45058C68AC4046
:1015F00020431468E0600FE0106800690C7804EB89
:1016000044050724AC40A0430D7805EB45058C68E4
:10161000AC402043146820610868102802D0086894
:10162000112827D1174C1068A0421ED1106880687D
:1016300000F40000F0B91068806840F400001468FD
:10164000A0600868102815D10F4800680F4CB0FB47
:10165000F4F000EB80004000009002E00098401E93
:10166000009000980028F9D104E0906A40F0200032
:101670009062012300BF002082F8240000BF1846BA
:1016800061E70000002401402800002040420F00D4
:1016900070477047704700002DE9F041044600276D
:1016A00000250026A84614B90120BDE8F081A068F5
:1016B00010B1207D00B100BFA06A30B90020E06207
:1016C00084F82400204600F089F82046FFF7AAF9A4
:1016D0000746A06A00F01000002873D1002F71D1D6
:1016E000A06A20F4885040F00200A062E1696068BE
:1016F0000843217B40EA41000643A068B0F5807FA3
:1017000002D0A068012802D14FF4807000E00020D0
:101710000543207D012811D1207B38B9A069401EE6
:101720004FF4006141EA4030054307E0A06A40F011
:101730002000A062E06A40F00100E062206840689A
:1017400020F4694028432168486020688068214966
:101750000840304321688860A068B0F5807F02D0DF
:10176000A068012802D14FF4807000E00020B0F59D
:10177000807F03D1208A401E4FEA00582068C06A4B
:1017800020F4700040EA08002168C8622068806880
:1017900011490840B04208D10020E062A06A20F060
:1017A000020040F00100A06211E0A06A20F00200F7
:1017B00040F01000A062E06A40F00100E062012702
:1017C00005E0FFE7A06A40F01000A062012738465C
:1017D0006BE70000FDF7E1FFFE0E1FFF10B586B0BE
:1017E000044600200290039004900590224920684E
:1017F00088423ED100BF2148806940F400701F49F3
:1018000088610846806900F40070019000BF00BF45
:1018100000BF0846806940F004008861084680697E
:1018200000F00400019000BF00BF0E2002900320D2
:10183000039002A9124800F0BDFA1248124908604C
:10184000002048600021104881608021C16049006B
:1018500001618900416120218161C901C16100F0FC
:1018600027FA08B1FFF760FE00BF07482062446214
:1018700000BF06B010BD000000240140001002406F
:101880000008014008000240100100202DE9F0414D
:1018900004460D461646002757492068884203D063
:1018A00056492068884205D15348001D006800F45D
:1018B000702000E0002000287ED100BF94F82400B2
:1018C000012802D10220BDE8F081012084F8240023
:1018D00000BF2046FFF714F90746002F6DD1A06A1C
:1018E00040F60161884340F48070A062434920685B
:1018F000884209D14048001D006800F4702008B9F2
:10190000012002E0002000E0012078B1A06A20F46C
:101910008010A0622068406800F4806000B3A06A74
:1019200020F4005040F48050A06219E0A06A40F416
:101930008010A06230492068884203D02F49206877
:10194000884205D12C48001D006800F4806000E04A
:10195000002028B1A06A20F4005040F48050A0621A
:10196000A06A00F4805020B1E06A20F00600E06236
:1019700001E00020E06200BF002084F8240000BFE6
:101980001F48216A88621F48216AC8621E48216A6E
:1019900008636FF00200216808602068806840F4E6
:1019A000807021688860226802F14C0133462A4623
:1019B000206A00F0B1F901E01AE014E020688068C4
:1019C00000F46020B0F5602F06D12068806840F4F4
:1019D000A000216888600CE02068806840F48010D6
:1019E0002168886005E000BF002084F8240000E042
:1019F0000127384667E70000002401400028014025
:101A0000810A0008F10A0008D30A000801460022F2
:101A100091F82100022808D00420886300BF00202C
:101A200081F8200000BF012070470868006820F09E
:101A30000E000B6818600868006820F001000B6851
:101A4000186091F8403001209840CB6B586001201D
:101A500081F8210000BF002081F8200000BF10465F
:101A6000E2E7000070B50446002594F82100022842
:101A700003D00420A063012548E02068006820F01E
:101A80000E00216808602068006820F001002168CD
:101A900008601F492068884201D1012026E01C49C6
:101AA00014312068884201D110201FE018492831E4
:101AB0002068884201D1801518E015493C31206822
:101AC000884201D1801411E01149503120688842C8
:101AD00002D14FF4803009E00D496431206888421A
:101AE00002D14FF4801001E04FF0807008490839AE
:101AF0004860012084F8210000BF002084F8200005
:101B000000BF606B10B12046616B8847284670BDEE
:101B10000800024070B50446E06B0568206806685E
:101B200094F84010042088402840002846D006F051
:101B30000400002842D02068006800F0200028B986
:101B40002068006820F00400216808605749206878
:101B5000884201D1042027E054491431206888428A
:101B600001D1402020E0514928312068884201D12C
:101B7000001519E04D493C312068884202D14FF4EC
:101B8000804011E0494950312068884202D14FF429
:101B9000802009E0454964312068884202D14FF431
:101BA000800001E04FF08060404908394860E06AF9
:101BB00000287AD02046E16A884776E094F8401001
:101BC000022088402840A0B306F0020088B32068B5
:101BD000006800F0200040B92068006820F00A008A
:101BE00021680860012084F821003049206888427B
:101BF00001D1022028E02D4914312068884201D10A
:101C0000202021E0294928312068884201D140154F
:101C10001AE026493C312068884202D14FF4005036
:101C200012E0224950312068884203D14FF400303D
:101C30000AE017E01D4964312068884202D14FF460
:101C4000001001E04FF0007018490839486000BFEB
:101C5000002084F8200000BFA06A30B32046A16AAB
:101C6000884722E094F84010082088402840E0B1DE
:101C700006F00800C8B12068006820F00E00216856
:101C8000086094F8401001208840E16B4860012012
:101C9000A06384F8210000BF002084F8200000BF6A
:101CA000206B10B12046216B884770BD08000240B0
:101CB0000146002209B901207047164B0868C01A76
:101CC0001423B0FBF3F08000086412480838C8639E
:101CD000022081F821000868026843F6F070824310
:101CE000D1E901031843CB6818430B6918434B69CA
:101CF00018438B691843CB69184302430868026094
:101D000000208863012081F82100002081F8200054
:101D100000BFD1E7080002402DE9F04104460D461E
:101D200016461F464FF0000800BF94F82000012817
:101D300002D10220BDE8F081012084F8200000BF1C
:101D400094F8210001282CD1022084F821000020E1
:101D5000A0632068006820F00100216808603B460D
:101D6000324629462046FFF77DF9E06A30B1206807
:101D7000006840F00E00216808600BE020680068F1
:101D800020F00400216808602068006840F00A0024
:101D9000216808602068006840F001002168086040
:101DA00006E000BF002084F8200000BF4FF00208CA
:101DB0004046BFE72DE9F8470346002294466EE10E
:101DC0004FF0010808FA02F4D1F8008008EA040094
:101DD000A0427DD1DFF8DCA2D1F80480A8EB0A098B
:101DE000D0453AD014DCB8F1030F50D009DCB8F17B
:101DF000000F31D0B8F1010F1CD0B8F1020F49D15A
:101E000020E0B8F1110F18D0B8F1120F42D11EE046
:101E1000B9F5881F25D006DCB9F5803F20D0B9F58B
:101E2000801F37D11AE0B9F5001F18D0B9F5041F8B
:101E300030D117E0D1F80CC02DE0D1F80C8008F1BA
:101E4000040C28E0D1F80C8008F1080C23E0D1F84C
:101E50000C8008F10C0C1EE000BF00BF00BF00BFEB
:101E600000BF00BFD1F80880B8F1000F02D14FF0D9
:101E7000040C0BE0D1F80880B8F1010F03D14FF04A
:101E8000080C1C6102E04FF0080C5C6103E04FF0AD
:101E9000000C00E000BF00BFFF2801D8984601E019
:101EA00003F104084646FF2802D84FEA820803E0FF
:101EB000A2F108084FEA88084746D6F800804FF09C
:101EC0000F0909FA07F928EA09080CFA07F900E0EE
:101ED00088E048EA0908C6F80080D1F8048008F0D4
:101EE0008058B8F1805F7DD100BFDFF8CC81D8F891
:101EF000188048F00108DFF8C091C9F81880C8467A
:101F0000D8F8188008F00108CDF8008000BF00BFA5
:101F10004FEAB9384FEA920958F829504FEA8278C7
:101F20004FEA18794FF00F0808FA09F825EA080572
:101F3000DFF88881434502D14FF0000816E0DFF852
:101F40008081434502D14FF001080FE0DFF8748132
:101F5000434502D14FF0020808E0DFF86C814345A9
:101F600002D14FF0030801E04FF004084FEA8279F4
:101F70004FEA197908FA09F848EA0505DFF84C81B3
:101F80004FEA920948F82950D1F8048008F48018E3
:101F9000B8F5801F0AD1DFF83881D8F8008048EA08
:101FA0000008DFF82C91C9F8008009E0DFF82081F3
:101FB000D8F8008028EA0008DFF81491C9F80080FA
:101FC000D1F8048008F40018B8F5001F10D1DFF82C
:101FD000008108F10408D8F8008048EA0008DFF81A
:101FE000F09000E05AE009F10409C9F800800DE022
:101FF000DFF8DC8008F10408D8F8008028EA00083F
:10200000DFF8CC9009F10409C9F80080D1F8048008
:1020100008F40038B8F5003F0ED1DFF8B480A8F11D
:102020000408D8F8008048EA0008DFF8A490A9F175
:102030000409C9F800800DE0DFF89480A8F10408D5
:10204000D8F8008028EA0008DFF88490A9F1040994
:10205000C9F80080D1F8048008F48038B8F5803FD2
:102060000ED1DFF86C80A8F10808D8F8008048EAA3
:102070000008DFF85C90A9F10809C9F800800DE0BC
:10208000DFF84C80A8F10808D8F8008028EA00089A
:10209000DFF83C90A9F10809C9F80080521CD1F87A
:1020A000008028FA02F8B8F1000F7FF489AEBDE88D
:1020B000F8870000000011100010024000080140E5
:1020C000000C0140001001400014014008000140D4
:1020D0000804014010B5C26821EA020302EA0104C3
:1020E00043EA0443036110BD0AB1016101E00B043E
:1020F0000361704701480068704700001C00002021
:1021000070B504460CB9012070BD94F83D0028B9A3
:10211000002084F83C00204600F092F9242084F846
:102120003D002068006820F00100216808602068F8
:10213000006840F40040216808602068006820F4CE
:1021400000402168086000F07DFC05465C4960683D
:10215000884206D85B48854201D2012007E0002072
:1021600005E05948854201D2012000E00020012805
:1021700000D1C9E75548B5FBF0F62068406820F06B
:102180003F003043216848604D496068884201D86B
:10219000701C07E04FF4967070434FF47A71B0FBF7
:1021A000F1F0401C2168096A21F03F0108432168D1
:1021B000086243496068884214D8681E6168490013
:1021C000B0FBF1F0401CC0F30B00042801D2042046
:1021D0003DE0681E61684900B0FBF1F0401CC0F3AF
:1021E0000B0034E0A06838B9681E616801EB41015A
:1021F000B0FBF1F0401C0AE0681E616801EBC1020F
:1022000002EB0111B0FBF1F0401C40F48040C0F340
:102210000B0008B901201AE0A06848B9681E61687F
:1022200001EB4101B0FBF1F0401CC0F30B000CE0EE
:10223000681E616801EBC10202EB0111B0FBF1F015
:10224000401CC0F30B0040F4804040F40040216883
:10225000C9694CF6FF72914308432168C861D4E90B
:10226000070108432168096821F0C001084321687B
:102270000860D4E9031008432168896848F2FF32F6
:102280009143084321688860D4E905010843216827
:10229000C96821F0FF0108432168C8602068006810
:1022A00040F001002168086000202064202084F8AC
:1022B0003D000020206384F83E0000BF24E70000BA
:1022C000A086010080841E0000093D0040420F00EE
:1022D0002DE9F8430446894616461F46DDF820805E
:1022E000FFF708FF054694F83D0020287ED119230A
:1022F000012251492046009501F06BFC10B10220EB
:10230000BDE8F88300BF94F83C00012801D1022009
:10231000F6E7012084F83C0000BF2068006800F068
:10232000010028B92068006840F0010021680860B9
:102330002068006820F4006021680860212084F88B
:102340003D00102084F83E0000202064666267850E
:10235000608D20853948E0622B464246494620463A
:1023600001F0A4FB08B10120CAE700BF00200090E3
:1023700020684069009020688069009000BF00BF1D
:1023800044E02A464146204601F0FFFC50B1206C53
:10239000042805D12068006840F4007021680860B6
:1023A0000120ADE7606A007821680861606A401C1E
:1023B0006062608D401E6085208D401E20852068F3
:1023C0004069C0F3800070B1208D60B1606A007810
:1023D00021680861606A401C6062608D401E6085F3
:1023E000208D401E20852A46414600E022E02046FE
:1023F00001F0BCFB50B1206C042805D120680068B6
:1024000040F4007021680860012079E7208D0028E1
:10241000B7D12068006840F400702168086020206F
:1024200084F83D00002084F83E0000BF84F83C00A2
:1024300000BF65E7022063E7020010000000FFFF15
:1024400010B586B0044600200290039004900590D9
:1024500015492068884225D100BF1448806940F0A2
:102460000800124988610846806900F00800019060
:1024700000BF00BFC02002901220039003200590EF
:1024800002A90B48FFF796FC00BF0848C06940F45A
:1024900000100649C8610846C06900F400100190A8
:1024A00000BF00BF06B010BD005400400010024045
:1024B000000C014070B504460CB9012070BD4CF60B
:1024C000CC402168086045F2555021680860D4E985
:1024D000001048602168A0688860FFF70BFE054681
:1024E0000BE0FFF707FE401B272806D92068C068CD
:1024F00000F0030008B10320E0E72068C06800F0A6
:1025000003000028EDD14AF6AA20216808600020C7
:10251000D4E701464AF6AA200A68106000207047F6
:102520000348006803490978084401490860704776
:102530001C0000202400002010B50848006840F06E
:10254000100006490860032000F0E2F80F2000F0B8
:1025500007F800F05FF8002010BD000000200240E6
:102560002DE9F04188B004460027B846002600BF98
:102570002348C06940F004002149C8610846C06989
:1025800000F00400019000BF00BF02A903A800F002
:1025900031FA069F1FB900F055FA054602E000F037
:1025A00051FA45001748B5FBF0F0A0F101081648B4
:1025B0001649086040F2E7311448C160C0F8048051
:1025C000002101618160816100F00AFD064696B933
:1025D0000E4800F087FD06466EB91E2000F04AF84E
:1025E000102C07D2002221461E2000F053F8084884
:1025F000046000E00126304608B0BDE8F08100002C
:102600000010024040420F0000080040D0040020AB
:102610002000002008B500BF1448806940F0010088
:10262000124988610846806900F00100009000BFEF
:1026300000BF00BF0846C06940F08050C86108462E
:10264000C06900F08050009000BF00BF00220F2141
:10265000901E00F01FF800BF0549486820F0E060B8
:1026600040F00070486000BF08BD0000001002404C
:102670000000014001460846002809DB00F01F0366
:1026800001229A4043099B0003F1E023C3F8002193
:1026900000BF70472DE9F05F80460D4616460027C3
:1026A00003F030FA074639462A46334601F0070060
:1026B000C0F1070ABAF1040F02D94FF0040A01E091
:1026C000C0F1070AD14600F1040ABAF1070F02D29D
:1026D0004FF0000A01E0A0F1030AD4464FF0010ACE
:1026E0000AFA09FAAAF1010A0AEA020A0AFA0CFA33
:1026F0004FF0010B0BFA0CFBABF1010B0BEA030BD8
:102700004AEA0B042146404603F004FABDE8F09F74
:1027100000BF00F00702064B19684FF6FF0319408F
:10272000044B0B4343EA0221014B196000BF704781
:102730000CED00E00000FA05F8B50446002600257F
:10274000207800F0010000286BD000274348C069C2
:1027500000F0805070B900BF4048C06940F0805020
:102760003E49C8610846C06900F08050009000BF33
:1027700000BF01273A48006800F48070B0B93848BB
:10278000006840F4807036490860FFF7B3FC0646E5
:1027900006E0FFF7AFFC801B642801D90320F8BDD9
:1027A0002F48006800F480700028F2D02B48006A9F
:1027B00000F440752DB3A08800F44070A84220D0EA
:1027C0002648006A20F44075012026490860002050
:1027D00008602248056205F0010090B1FFF78AFC0D
:1027E000064608E0FFF786FC801B41F288318842EC
:1027F00001D90320D3E71948006A00F0020000283D
:10280000F0D01648006A20F440706168084313490C
:102810000862012F04D10846C06920F08050C861C9
:1028200000BF207800F00200022807D10B48406862
:1028300020F44040A168084308494860207800F02F
:102840001000102807D10548406820F48000E16896
:102850000843024948600020A1E700000010024040
:10286000007000404004424270B504460D460CB969
:10287000012070BD5A48006800F00700A8420ED23F
:102880005748006820F0070028435549086008466B
:10289000006800F00700A84201D00120E9E7207895
:1028A00000F0020002281DD1207800F00400042866
:1028B00005D14C48406840F4E0604A4948602078BF
:1028C00000F00800082805D14648406840F46050F0
:1028D000444948604348406820F0F000A16808433C
:1028E00040494860207800F0010078B36068012812
:1028F00006D13C48006800F4003090B90120B8E7E8
:102900006068022806D13748006800F0007040B9BE
:102910000120AEE73348006800F0020008B901204A
:10292000A7E73048406820F00300616808432D495C
:102930004860FFF7DFFB064609E0FFF7DBFB801B83
:1029400041F28831884202D9032092E707E0254806
:10295000406800F00C006168B0EB810FEDD12048B9
:10296000006800F00700A8420ED91D48006820F05A
:10297000070028431A4908600846006800F007006D
:10298000A84201D0012074E7207800F00400042858
:1029900007D11448406820F4E060E1680843114919
:1029A0004860207800F00800082808D10D484068E9
:1029B00020F46050216940EAC1000A49486000F0F3
:1029C00061F808494968C1F30311074A515CC840DE
:1029D0000649086006480068FFF7C2FD002048E786
:1029E00000200240001002407A8E000828000020DB
:1029F000200000200F2202600D4A526802F00302FC
:102A000042600B4A526802F0F0028260084A526843
:102A100002F4E062C260064A526802F46052D208D0
:102A20000261044A126802F007020A60704700005F
:102A3000001002400020024001480068704700007A
:102A40002800002000B5FFF7F7FF04494968C1F3EB
:102A50000221034A515CC84000BD00000010024042
:102A60008A8E000800B5FFF7E7FF04494968C1F303
:102A7000C221034A515CC84000BD00000010024062
:102A80008A8E000870B50021002200240023002057
:102A9000134D696801F00C05F5B1042D02D0082D25
:102AA00019D101E00F4819E00F4DC1F38346AB5D2A
:102AB00001F4803555B10A4D6D68C5F340450B4EA4
:102AC000725D084D5D43B5FBF2F402E0084D03FB77
:102AD00005F4204602E000BF024800BF00BF70BD01
:102AE0000010024000127A00688E0008788E0008FC
:102AF00000093D00F8B504460CB90120F8BD207866
:102B000000F00100002878D0F848406800F00C0080
:102B100004280CD0F548406800F00C00082811D1BA
:102B2000F248406800F48030B0F5803F0AD1EF48A9
:102B3000006800F4003000285FD0606800285CD195
:102B40000120DBE700BF6068B0F5803F06D1E748B1
:102B5000006840F48030E549086028E0606858B9B2
:102B6000E248006820F48030E049086008460068C8
:102B700020F4802008601AE06068B0F5A02F0BD127
:102B8000DA48006840F48020D849086008460068A8
:102B900040F4803008600AE0D448006820F48030B7
:102BA000D24908600846006820F48020086000BF11
:102BB000606888B1FFF79EFA054606E0FFF79AFACB
:102BC000401B642801D9032098E7C848006800F436
:102BD00000300028F2D010E0FFF78CFA054606E03E
:102BE000FFF788FA401B642801D9032086E7BF4815
:102BF000006800F400300028F2D1207800F00200D4
:102C0000022857D1B948406800F00C0050B1B748CD
:102C1000406800F00C00082818D1B448406800F45F
:102C2000803098B9B148006800F0020020B12069F6
:102C3000012801D0012061E7AC48006820F0F800CD
:102C4000616940EAC100A949086033E02069E8B140
:102C50000120A7490860FFF74DFA054606E0FFF797
:102C600049FA401B022801D9032047E79F48006822
:102C700000F002000028F2D09C48006820F0F80024
:102C8000616940EAC1009949086013E00020984951
:102C90000860FFF72FFA054606E0FFF72BFA401B06
:102CA000022801D9032029E79048006800F00200BB
:102CB0000028F2D1207800F0080008282DD1A06962
:102CC000B8B101208B490860FFF714FA054606E009
:102CD000FFF710FA401B022801D903200EE78348B2
:102CE000406A00F002000028F2D0012002F0C8F98A
:102CF00013E000207F490860FFF7FCF9054606E075
:102D0000FFF7F8F9401B022801D90320F6E67748BF
:102D1000406A00F002000028F2D1207800F00400A0
:102D2000042873D100277148C06900F0805070B941
:102D300000BF6E48C06940F080506C49C8610846C9
:102D4000C06900F08050009000BF00BF01276A48B2
:102D5000006800F48070B0B96748006840F4807083
:102D600065490860FFF7C6F9054606E0FFF7C2F9B6
:102D7000401B642801D90320C0E65F48006800F4C6
:102D800080700028F2D000BFE068012806D15748C3
:102D9000006A40F001005549086227E0E06858B930
:102DA0005248006A20F00100504908620846006A53
:102DB00020F00400086219E0E06805280BD14B48B8
:102DC000006A40F00400494908620846006A40F081
:102DD000010008620AE04548006A20F0010043490A
:102DE00008620846006A20F00400086200BFE0683C
:102DF000A0B1FFF77FF9054609E0FFF77BF9401B1B
:102E000041F28831884202D9032077E622E0374830
:102E1000006A00F002000028EFD012E0FFF76AF924
:102E2000054608E0FFF766F9401B41F28831884209
:102E300001D9032062E62D48006A00F00200002854
:102E4000F0D1012F05D12948C06920F080502749D1
:102E5000C86100BFE069C8B32448406800F00C00B6
:102E6000082860D0E069022848D10020204908667F
:102E7000FFF740F9054606E0FFF73CF9401B022842
:102E800001D903203AE61948006800F000700028D4
:102E9000F2D1206AB0F5803F07D11448406820F491
:102EA0000030A168084311494860D4E9080108438B
:102EB0000E49496821F4741108430C494860012007
:102EC0000B490866FFF716F9054607E03DE0FFF7F6
:102ED00011F9401B022801D903200FE603480068BE
:102EE00000F000700028F2D02FE000000010024037
:102EF0000000424280044242007000400020144919
:102F00000866FFF7F7F8054606E0FFF7F3F8401B01
:102F1000022801D90320F1E50E48006800F0007096
:102F20000028F2D111E0E069012800D1E6E5094866
:102F3000466806F48031206A814204D106F470119B
:102F4000606A814201D00120D8E50020D6E500006A
:102F500000004242001002407047704730B5024600
:102F60000B4600BF92F83C00012801D1022030BD81
:102F7000012082F83C0000BF022082F83D0010686A
:102F800044681068816824F070041868044310686D
:102F90004460104D1068A8420BD01068B0F1804F0B
:102FA00007D00D4D1068A84203D00C4D1068A84200
:102FB00005D121F08001586801431068816001202B
:102FC00082F83D0000BF002082F83C0000BF00BF37
:102FD000CDE70000002C0140000400400008004044
:102FE00010B504460CB9012010BD94F83D0028B975
:102FF000002084F83C00204600F026F8022084F8E7
:103000003D00211D206802F01DF9012084F84600D2
:1030100000BF84F83E0001213F20015540200155AA
:103020004120015500BF00BF012084F84200432029
:103030000155442001554520015500BF012084F869
:103040003D000020D0E7000008B5094A0168914220
:103050000DD100BF0749C96941F00201054AD1619C
:103060001146C96901F00201009100BF00BF08BD0F
:103070000004004000100240014691F83D00012884
:1030800001D001207047022081F83D00124B0868F2
:1030900098420BD00868B0F1804F07D00F4B0868FA
:1030A000984203D00E4B086898420CD1086880689B
:1030B00000F00702062A0CD00868006840F0010002
:1030C0000B68186005E00868006840F001000B68B4
:1030D00018600020D6E70000002C014000040040EA
:1030E00000080040014691F83D00012801D0012070
:1030F0007047022081F83D000868C06840F0010078
:103100000B68D860124B086898420BD00868B0F181
:10311000804F07D00F4B0868984203D00E4B0868C9
:1031200098420CD10868806800F00702062A0CD08B
:103130000868006840F001000B68186005E0086846
:10314000006840F001000B6818600020D0E7000024
:10315000002C014000040040000800402DE9F0412F
:1031600004460D46002700BF94F83C00012802D118
:103170000220BDE8F081012084F83C0000BF02205D
:1031800084F83D002068866826F0770626F47F469E
:10319000206886602868502833D00CDC202850D066
:1031A00004DC00284BD0102851D149E0302849D008
:1031B00040284CD139E060282DD0702807D0B0F5D8
:1031C000805F03D0B0F5005F41D10DE041E0D5E96B
:1031D00002136A68206802F06FF82068866846F07B
:1031E00077062068866034E0D5E902136A682068B3
:1031F00002F062F82068806840F4804021688860AE
:1032000027E0EA686968206802F06AF850212068BF
:1032100002F05DF81DE0EA686968206802F073F862
:103220006021206802F053F813E0EA6869682068BA
:1032300002F056F84021206802F049F809E000BF8A
:1032400000BF00BF2968206802F041F801E00127B3
:1032500000BF00BF012084F83D0000BF002084F8BB
:103260003C0000BF384684E7704710B5044620682C
:103270000069C0F34000D8B12068C068C0F34000C6
:10328000B0B16FF00200216808610120207720684A
:10329000806900F0030018B12046FFF7E5FF05E064
:1032A000204600F0ADF8204600F0ABF80020207773
:1032B00020680069C0F38000D8B12068C068C0F3FE
:1032C0008000B0B16FF0040021680861022020770F
:1032D0002068806900F4407018B12046FFF7C4FFF1
:1032E00005E0204600F08CF8204600F08AF8002027
:1032F000207720680069C0F3C000D8B12068C0689A
:10330000C0F3C000B0B16FF008002168086104206C
:1033100020772068C06900F0030018B12046FFF74D
:10332000A3FF05E0204600F06BF8204600F069F8A6
:103330000020207720680069C0F30010D8B1206811
:10334000C068C0F30010B0B16FF0100021680861D0
:10335000082020772068C06900F4407018B120462A
:10336000FFF782FF05E0204600F04AF8204600F013
:1033700048F8002020772068006900F0010058B16B
:103380002068C06800F0010030B16FF001002168D2
:103390000861204600F036F820680069C0F3C010CC
:1033A00058B12068C068C0F3C01030B16FF0800021
:1033B000216808612046FFF7CFFD20680069C0F34F
:1033C000801058B12068C068C0F3801030B16FF031
:1033D000400021680861204600F020F8206800695C
:1033E000C0F3401058B12068C068C0F3401030B13D
:1033F0006FF02000216808612046FFF7AEFD10BD88
:103400007047704710B5044603492068884201D1CF
:10341000FFF786F810BD0000000800407047F8B5BF
:1034200004460E46174694F8420020282ED106B1D5
:103430000FB90120F8BD01202063002060633A46E7
:103440003146204602F066F90546EDB9206B0128A9
:1034500019D100BF0020009020680068009020680B
:103460004068009000BF00BF00BF00BF21680C3162
:1034700051E8001F41F0100021680C3141E80002C2
:10348000002AF3D100E001252846D3E70220D1E746
:1034900038B505460C46184885422CD1B4F5007F56
:1034A00007D2224615491648FCF798FE0020144919
:1034B00008550020009069461248006804F046FF55
:1034C000009838B14FF080500F490860BFF34F8F1C
:1034D000BFF36F8F4FF4007208490748FFF79FFF53
:1034E0000548C06B0068006820F004000249C96B01
:1034F0000968086000BF38BDFC030020FC01002003
:10350000603900200C00002004ED00E0704700004E
:103510002DE9F84F0446206805682068C6682068D1
:1035200047694FF00009CA4605F00F09B9F1000FCD
:103530000AD105F0200038B106F0200020B1204665
:1035400001F0ECFFBDE8F88FB9F1000F7BD007F078
:10355000010018B906F49070002874D005F001003D
:1035600030B106F4807018B1606C40F00100606406
:1035700005F0040030B107F0010018B1606C40F0B4
:103580000200606405F0020030B107F0010018B1DC
:10359000606C40F00400606405F0080048B106F07B
:1035A000200010B907F0010018B1606C40F008006D
:1035B0006064606C002845D005F0200028B106F05A
:1035C000200010B1204601F0A9FF20684069C0F337
:1035D000801A606C00F0080010B9BAF1000F2CD00E
:1035E000204601F042FF2068406900F0400000B32F
:1035F00000BF00BF2168143151E8001F21F04000D6
:103600002168143141E80002002AF3D100BFE06BC9
:1036100050B17748E16B4863E06BFEF723FA88B15D
:10362000E06B416B88470DE02046FFF76FFF09E034
:1036300009E02046FFF76AFF04E02046FFF766FF37
:10364000002060647EE7206B012877D105F0100030
:10365000002873D006F010000028FAD000BF002028
:10366000009020680068009020684068009000BFCB
:1036700000BF2068406900F0400000285FD0E06B88
:10368000006840681FFA80F8B8F1000F55D0A08D8F
:10369000404552DDA4F82E80E06B8069202843D09D
:1036A00000BF00BF21680C3151E8001F21F4807079
:1036B00021680C3141E80002002AF3D100BF00BFAD
:1036C00000BF2168143151E8001F21F0010021687A
:1036D000143141E80002002AF3D100BF00BF00BF4F
:1036E0002168143151E8001F21F040002168143195
:1036F00041E80002002AF3D100BF202084F84200F4
:103700000020206300BF00BF21680C3151E8001F7A
:1037100021F0100021680C3141E80002002AF3D1A9
:1037200000BFE06BFEF772F902206063A08DE28DAE
:10373000801A81B22046FFF7ABFE03E742E0A08D7E
:10374000E18D401A1FFA80F8E08DD0B3B8F1000F78
:1037500037D000BF00BF21680C3151E8001F21F4B1
:10376000907021680C3141E80002002AF3D100BFBB
:1037700000BF00BF2168143151E8001F21F0010093
:103780002168143141E80002002AF3D100BF202053
:1037900084F842000020206300BF00BF21680C3184
:1037A00051E8001F21F0100021680C3141E80002AF
:1037B000002AF3D100BF0220606341462046FFF794
:1037C00067FEBFE605F0800030B106F0800018B15A
:1037D000204602F003F8B5E605F0400030B106F0EF
:1037E000400018B1204601F076FEABE600BFA9E626
:1037F0002F53000810B504460CB9012010BDA06974
:1038000000B100E000BF94F8410028B9002084F81E
:103810004000204600F02AF8242084F84100206867
:10382000C06820F400502168C860204601F0F4FE12
:103830002068006920F49040216808612068406990
:1038400020F02A00216848612068C06840F40050D8
:103850002168C86000206064202084F8410084F85A
:1038600042000020606300BFC8E7000010B586B0CA
:10387000044600200290039004900590454920687A
:10388000884252D100BF4448806940F48040424998
:1038900088610846806900F48040019000BF00BF45
:1038A00000BF0846806940F00400886108468069CE
:1038B00000F00400019000BF00BF481502900220F4
:1038C00003900320059002A93448FEF773FA4FF4E1
:1038D0008060029000200390049002A92F48FEF718
:1038E00069FA2F482F4908600020486000212D48C0
:1038F00081608021C16000210161416120218161DD
:10390000C901C161FEF7D4F908B1FDF70DFE00BF92
:103910002448E063446200BF002205212520FEF711
:10392000B9FE2520FEF7A6FE32E01F492068884236
:103930002ED100BF1848C06940F480201649C861E4
:103940000846C06900F48020019000BF00BF00BF9E
:103950000846806940F0080088610846806900F0E8
:103960000800019000BF00BF0815029002200390DC
:103970000320059002A90D48FEF71CFA4FF40060E1
:10398000029000200390049002A90848FEF712FA62
:1039900006B010BD00380140001002400008014090
:1039A000580002408C04002000480040000C0140F8
:1039B000704770472DE9F84F04460E461746994662
:1039C0004FF0000A94F8410020284AD106B117B9F7
:1039D0000120BDE8F88F00206064212084F84100B8
:1039E000FEF788FB8246A784E784A068B0F5805F75
:1039F00004D1206910B90025B04602E035464FF0E9
:103A000000081BE05346002280212046CDF800909C
:103A100001F014FF08B10320DBE745B9B8F8000056
:103A2000C0F308002168486008F1020803E0287824
:103A3000216848606D1CE08C401EE084E08C00280A
:103A4000E0D15346002240212046CDF8009001F0FD
:103A5000F5FE08B10320BCE7202084F841000020D7
:103A6000B7E70220B5E7704700BFFEE701460868E8
:103A70004069C0F38020B0B16FF480600A68506183
:103A800000200863202081F83D00002081F83E00DE
:103A9000086C40F00400086400BF002081F83C007E
:103AA00000BF012070470020FCE700002DE9F8432B
:103AB00004460D4617469846E66A082E04D0012EA5
:103AC00002D016F5803F06D12068006840F480706F
:103AD0002168086008E0206B122805D12068006882
:103AE00040F48070216808603B4600224FF00111CD
:103AF0002046CDF8008000F06CF860B120680068C6
:103B000000F48070B0F5807F02D14FF40070206423
:103B10000320BDE8F8832069B0F5804F04D105F09B
:103B2000FE002168086112E005F44070F02141EACE
:103B3000E0102168086143463A460B49204600F0F0
:103B4000A7F808B10120E4E7E8B22168086143461C
:103B50003A460549891F204600F09AF808B101202D
:103B6000D7E70020D5E700000800010070B5044643
:103B70000D46164625E02046FFF778FF08B10120E4
:103B800070BD681CE8B1FEF7B5FA801BA84200D8EA
:103B9000BDB920684069C0F3800090B9002020635F
:103BA000202084F83D00002084F83E00206C40F086
:103BB0002000206400BF002084F83C0000BF0120EA
:103BC000DEE720684069C0F380000028D3D00020E1
:103BD000D6E72DE9F04104460D4617461E46DDF8AE
:103BE000188038E0701CA8B3FEF784FAA0EB080038
:103BF000B04200D876BBC5F3074001280AD120683F
:103C00004069A9B20840A9B2884201D101200BE065
:103C1000002009E020688069A9B20840A9B2884262
:103C200001D1012000E00020B84214D1002020631F
:103C3000202084F83D00002084F83E00206C40F0F5
:103C40002000206400BF002084F83C0000BF012059
:103C5000BDE8F081FFE7C5F3074001280AD12068DD
:103C60004069A9B20840A9B2884201D101200BE005
:103C7000002009E020688069A9B20840A9B2884202
:103C800001D1012000E00020B842ABD00020DFE7E6
:103C90002DE9F04104460D4616461F4658E02068BF
:103CA0004069C0F38020E8B12068006840F40070EB
:103CB000216808606FF480602168486100202063FB
:103CC000202084F83D00002084F83E00206C40F065
:103CD0000400206400BF002084F83C0000BF0120E5
:103CE000BDE8F081701C90B3FEF704FAC01BB0422F
:103CF00000D866BBC5F3074001280AD12068406997
:103D0000A9B20840A9B2884201D101200BE00020ED
:103D100009E020688069A9B20840A9B2884201D1AF
:103D2000012000E0002090B900202063202084F8CA
:103D30003D00002084F83E00206C40F0200020640C
:103D400000BF002084F83C0000BF0120C8E7FFE767
:103D5000C5F3074001280AD120684069A9B208408C
:103D6000A9B2884201D101200BE0002009E02068BF
:103D70008069A9B20840A9B2884201D1012000E0BF
:103D8000002000288BD00020AAE770B504460D461D
:103D9000164625E02046FFF769FE08B1012070BDF8
:103DA000681CE8B1FEF7A6F9801BA84200D8BDB98F
:103DB00020684069C0F3C01090B900202063202023
:103DC00084F83D00002084F83E00206C40F0200084
:103DD000206400BF002084F83C0000BF0120DEE723
:103DE00020684069C0F3C0100028D3D00020D6E777
:103DF00000B585B000BF1348806940F0100011493C
:103E000088610846806900F01000009000BF00BF84
:103E1000002001900290039004904FF40050019014
:103E200001200290002003900220049001A906487E
:103E3000FDF7C0FF012251030348FEF755F905B015
:103E400000BD0000001002400010014010B501222A
:103E500051030248FEF748F910BD00000010014070
:103E600010B54FF400510448FEF734F94FF4FA70DE
:103E700003F014FE10BD00000010014010B5044610
:103E8000207B012802D1206802F0E8FA002020609F
:103E90006060A060207310BD0246002301230DE086
:103EA00002F07F000870D2092AB1087840F0800043
:103EB0000870491C01E0184670475B1C042BEFDDBD
:103EC0004FF0FF30F8E770B504460E460025206835
:103ED00098B901202073304602F00CFC2060206865
:103EE000E0B100206060A66003E000202168485532
:103EF0006D1CA068A842F8D810E00220207303E0EF
:103F00000020216848556D1CA068A842F8D8002000
:103F10006060A068B04201D20020206070BD000047
:103F20002DE9FF4F83B082468B469146159C0025B4
:103F3000002002900F2701904846FCF79BF90FFAEA
:103F400080F8B9F1000F03D1012007B0BDE8F08F70
:103F500008F10200384487B2109808B145F0020514
:103F6000129878B145F004051298FCF783F9C0B2B5
:103F700002901398FCF77EF901460298001D084450
:103F8000384487B2119820B1012804D0022808D102
:103F900004E000BF07E045F00C0504E045F014051F
:103FA00001E00220D1E700BF149808B145F02405D4
:103FB000BAF1000F02D0BBF1000F01D10320C4E71A
:103FC00045F0C0055046FCF755F906465846FCF743
:103FD00051F93044001D384487B239462046FFF776
:103FE00072FF206808B90420AFE739462068FCF763
:103FF0000EF910216268501C606020688154D4E979
:104000000023D118781FFFF747FF00B201900198F5
:10401000002804DA2046FFF731FF052095E76168A4
:1040200001980844606000216268501C606020684C
:10403000815404216268501C6060206881544D21C5
:104040006268501C60602068815451216268501C75
:1040500060602068815454216268501C6060206850
:1040600081546268501C6060206881540421626839
:10407000501C6060206881546168481C6060206842
:1040800045540698010A6268501C6060206881549B
:104090000698C1B26268501C606020688154C8F301
:1040A00007216268501C6060206881546268501C5F
:1040B0006060206800F80280D4E900128818424647
:1040C0004946FCF7DEF860684044606005F0040093
:1040D000B8B30026139808B938A013901298FCF7CB
:1040E000C9F886B2310A6268501C60602068815449
:1040F0006268501C606020688654D4E900128818F9
:1041000032461299FCF7BDF860683044606013983D
:10411000FCF7B0F886B2310A6268501C6060206813
:1041200081546268501C606020688654D4E9001293
:10413000881832461399FCF7A4F860683044606030
:1041400000BF05F08000C8B15046FCF793F886B276
:10415000310A6268501C6060206881546268501C9B
:10416000606020688654D4E90012881832465146AF
:10417000FCF787F860683044606000BF05F04000DD
:10418000C8B15846FCF776F886B2310A6268501C0E
:104190006060206881546268501C606020688654AA
:1041A000D4E90012881832465946FCF76AF860686C
:1041B0003044606000BF0020C7E60000000000003F
:1041C0002DE9FF5F8046174699460E9C0026B246B1
:1041D000B3460025B8F1000F03D1012004B0BDE8BB
:1041E000F09F0BE057F8250008B90220F6E757F8D2
:1041F0002500FCF73FF80644681CC5B24D45F1DBCD
:1042000009EB4900801C00EB060A0AF10501204673
:10421000FFF759FE206808B90320DFE782216268B2
:10422000501C606020688154D4E900028118504617
:10423000FFF732FE0FFA80FBBBF1000F04DA2046D5
:10424000FFF71CFE0420C9E76068584460604FEA2D
:1042500018216268501C6060206881546268501C9C
:104260006060206800F80280002524E057F82500EF
:10427000FCF700F80646C6F307216268501C606030
:10428000206881546268501C606020688654D4E9BC
:104290000023D01857F825103246FBF7F2FF60686C
:1042A000304460600198C1B26268501C6060206850
:1042B0008154681CC5B24D45D8DB00208EE7F0B5AF
:1042C00004460D462646012300201060002114E01C
:1042D000775C07F07F07106807FB03001060705CD5
:1042E00000F0800008B9481CF0BDDB01B3F5001FE9
:1042F00002D36FF00100F7E7491CA942E8DB4FF059
:10430000FF30F1E701464878022801D001207047CC
:10431000887810B18878012801D1C878F7E7FF20A4
:10432000F5E70000F8B50446FF2720780511012DB8
:1043300001DB0E2D01DD3846F8BD032D24D1002010
:1043400000906A460421601CFFF7B9FF2044461C18
:104350000098022803D3207800F0010008B1FF2064
:10436000EAE77078317840EA0120801C00998842A1
:1043700001D9FF20E0E706A1B01CFBF75FFF08B101
:104380000F2700E0032700E02F463846D4E700005F
:1043900024637265710000000EB50020009001904A
:1043A00002901C481C49086081151B48816000214F
:1043B000017301754FF40021C16100201649486066
:1043C000032115480161FDF767F908B1FDF7ACF865
:1043D0000120009001900620029069460E48FDF7EA
:1043E000A7F808B1FDF7A0F80220009001906946F7
:1043F0000948FDF79DF808B1FDF796F803200090F5
:10440000019069460448FDF793F808B1FDF78CF870
:104410000EBD000000240140E000002008B500BFF0
:104420000E48406940F001000C4948610846406967
:1044300000F00100009000BF00BF002205210B200A
:10444000FEF728F90B20FEF715F9002205210F20B1
:10445000FEF720F90F20FEF70DF908BD001002400D
:104460001CB500F0E8F9FFF7C3FCFCF703FD0022E0
:104470000C21012003F02FFD3049086000220C219F
:10448000012003F028FD2E49086000220C210120A4
:1044900003F021FD2B49086003220021012003F0D5
:1044A0001AFD29490860012003F004FD274908602E
:1044B000274A0021274802F0B1F927490860002067
:1044C000302103468022CDE9001024A1264804F0C3
:1044D00083F90020282103468022CDE9001023A182
:1044E000254804F079F90020182103468022CDE9FF
:1044F000001022A1244804F06FF900202021034677
:104500008022CDE9001021A1234804F065F90020A4
:10451000202103468022CDE9001020A1234804F089
:104520005BF90020182103464FF48062CDE90010AA
:104530001FA1224804F050F91CBD00000400002017
:1045400000000020080000200C00002010000020C7
:10455000448E0008695100081400002053656E73F2
:104560006F725461736B00002D51000850726F63BD
:104570006573735461736B00455000084469737030
:104580006C61795461736B00951000085361666526
:1045900074795461736B0000C150000857617463F3
:1045A00068646F675461736B00000000215A000853
:1045B000436F6D6D5461736B00000000F50E0008D1
:1045C00000B585B00020019002900390049000BFD8
:1045D0003748806940F01000354988610846806995
:1045E00000F01000009000BF00BF00BF08468069C7
:1045F00040F0200088610846806900F020000090AB
:1046000000BF00BF00BF0846806940F00400886119
:104610000846806900F00400009000BF00BF00BFA2
:104620000846806940F0080088610846806900F00B
:104630000800009000BF00BF00224FF400511D4849
:10464000FDF752FD00224FF480511B48FDF74CFD51
:1046500000224FF480711948FDF746FD4FF40050D9
:10466000019001200290002003900220049001A9F3
:104670001048FDF79FFB4FF48050019001200290FD
:10468000002003900220049001A90B48FDF792FB43
:104690004FF48070019001200290002003900220CE
:1046A000049001A90548FDF785FB05B000BD000099
:1046B0000010024000100140000C014000080140C1
:1046C00010B50B480B4908600B48486000210948A9
:1046D0008160C1604FF480410161002141618161CD
:1046E000C1610162FDF70CFD08B1FCF71DFF10BDB3
:1046F0000054004054010020801A060010B50748FD
:10470000074908600420486040F2E73104488160AE
:10471000FDF7D0FE08B1FCF707FF10BD00300040E8
:10472000A801002000B587B00020039004900590F8
:1047300006900190029015481549086041F61F4007
:1047400048600021124881606321C160002101613D
:104750008161FEF745FC08B1FCF7E6FE4FF480509E
:10476000039003A90A48FEF7F9FC08B1FCF7DCFE48
:10477000202001900020029001A90548FEF7EEFBE1
:1047800008B1FCF7D1FE07B000BD000000040040F6
:10479000B401002010B50B480B4908604FF4E1301C
:1047A0004860002108488160C16001610C214161BD
:1047B00000218161C161FFF71DF808B1FCF7B4FE6B
:1047C00010BD000000380140FC03002010B50B486C
:1047D0000B4908604FF4E1304860002108488160CF
:1047E000C16001610C21416100218161C161FFF75C
:1047F00001F808B1FCF798FE10BD00000048004029
:104800004404002000BFFEE700BFFEE770B50024AF
:104810000EE00021204600F06DF8002504E00020A5
:1048200000F0FCF8681CC5B2802DF8DB601CC4B237
:10483000082CEEDB70BD70B5002406E0002500E01A
:104840006D1CB5F57A7FFBD3641CB4F57A7FF5D384
:10485000AE2000F0D1F8D52000F0CEF8802000F096
:10486000CBF8A82000F0C8F83F2000F0C5F8D3200E
:1048700000F0C2F8002000F0BFF8402000F0BCF8C3
:10488000A12000F0B9F8C82000F0B6F8DA2000F056
:10489000B3F8122000F0B0F8812000F0ADF8CF207E
:1048A00000F0AAF8D92000F0A7F8F12000F0A4F851
:1048B000DB2000F0A1F8302000F09EF8A42000F0EA
:1048C0009BF8A62000F098F88D2000F095F81420B1
:1048D00000F092F8AF2000F08FF8FFF797FF70BD5F
:1048E00010B50246012000E050430B1EA1F101016A
:1048F000FAD110BD70B505460C4645F0B00000F089
:104900007BF8102141EA141000F076F804F00F0053
:1049100000F072F870BD00002DE9F04105460E462A
:104920001746721ED206110E6A1E5206100EFFF7AF
:10493000E1FF002409E0A7F12001134A02EB011175
:10494000085D00F06BF8601CC4B2082CF3DB721E2B
:10495000D206110E6A1E012303EB4202D0B2FFF70A
:10496000C9FF00240BE0A7F12001074A02EB011266
:1049700004F10801505C00F051F8601CC4B2082C2E
:10498000F1DBBDE8F0810000928E00082DE9F047D0
:1049900080460E4617461D46002415E0281B411E82
:1049A0000A20FFF79DFFB7FBF0F00A21B0FBF1F200
:1049B00001FB120000F130093019C1B24A464046ED
:1049C000FFF7AAFF601CC4B2AC42E7DBBDE8F0878A
:1049D0002DE9F04107460E461546002407E02A5D02
:1049E0003019C1B23846FFF797FF601CC4B2285D8A
:1049F0000028F4D1BDE8F0811CB5044600200190E8
:104A00008DF80540401E022301AA7821009002483B
:104A1000FDF75EFC1CBD0000540100201CB50446DF
:104A200007A0006801908DF805404FF0FF30022389
:104A300001AA782100900348FDF74AFC1CBD000044
:104A40004000000054010020F0B58BB00546002660
:104A500000242846FBF70EFCC7B20DB11C2F02DA6A
:104A600001200BB0F0BD06E0A85D01A9885500202B
:104A7000A855701CC6B2BE42F6DB002001A98855BD
:104A80000026002455E001A8805D2B2810D008DC0A
:104A9000202814D023282ED0252825D026283FD101
:104AA00030E02F2812D03D2833D03F2838D114E0F1
:104AB000281923A1FBF7B6FBE01CC4B236E0281985
:104AC00020A1FBF7AFFBE01CC4B22FE028191EA108
:104AD000FBF7A8FBE01CC4B228E028191BA1FBF7D8
:104AE000A1FBE01CC4B221E0281919A1FBF79AFB35
:104AF000E01CC4B21AE0281916A1FBF793FBE01CD6
:104B0000C4B213E0281914A1FBF78CFBE01CC4B25B
:104B10000CE0281911A1FBF785FBE01CC4B205E0ED
:104B200001A8805D2855601CC4B200BF00BF701C86
:104B3000C6B2BE42A7DB0020285500BF91E70000A7
:104B4000253242002532300025324600253346000A
:104B50002532350025323300253236002533440016
:104B60002DE9F04FC9B005460C4616461F460DF517
:104B7000A47898E8000F0020489055B14CB13F4808
:104B8000864206D32FB1B9F1000F02D0BAF1780FE7
:104B900003DA012049B0BDE8F08F402118A8FBF7E7
:104BA00036FB3846FBF766FB05903B4648AA40219A
:104BB000009018A8FCF704F8482106A8FBF727FB8B
:104BC000BBF1000F09D02EA033462FA248218DE85B
:104BD000310006A800F06AFF09E029A0334630A2A0
:104BE00048218DE81101039506A800F05FFF4021E0
:104BF00028A8FBF70CFB06A8FBF73CFB059018A8C0
:104C0000FBF738FB049028A8009006AA18A8DDE955
:104C1000041301F071FC00204890402138A8FBF7F4
:104C2000F6FA28A8FBF726FB059028AB48AA4021F6
:104C3000009038A8FCF77AF838A8FFF705FFBBF119
:104C4000000F0CD038A80EA12B461DA2CDE90046BE
:104C5000CDE902105146484600F028FF0CE038A884
:104C600007A12B46244ACDE901860094CDE9031023
:104C70005146484600F01AFF00208BE79554415DED
:104C8000736861310000000025640A25730A7072A0
:104C90006F64756374732F25730A25730000000019
:104CA00025640A25730A70726F64756374732F2507
:104CB000732F646576696365732F25730A25730006
:104CC00076657273696F6E3D2573267265733D70EC
:104CD000726F647563747325253246257326657477
:104CE0003D2564266D6574686F643D257326736980
:104CF000676E3D2573000000509D000800B595B01B
:104D00000020119012901390149002A801900FA00F
:104D10000FA312A23A21009002A800F0C7FE02A938
:104D200016A000F0B3FE11A8012301AA00210090F3
:104D30001420FFF745FA38B9129A91B21198FCF78E
:104D4000BDFB11A8FFF79AF815B000BD6431000053
:104D500059366E314A4E333239310000247379733B
:104D60002F25732F25732F7468696E672F70726FEC
:104D700070657274792F73657400000053756273E7
:104D8000637269626520546F7069633A2025730D00
:104D90000A00000030B5B3B000202F903090319061
:104DA00032900125A02107AA32A3CDE90032CDE936
:104DB000021031A33C4A3DA13FA0FFF7D1FE07AB53
:104DC0003AA22CA13FA000F061FE2FA80021029181
:104DD0000391CDE90410084601210B0225A2CDE97B
:104DE000001007A931A0FFF79BF800283BD1309AAB
:104DF00091B22F98FCF762FBFA20FCF733FA0446D5
:104E0000002C2CD02046FFF78DFA022827D120460F
:104E1000FFF778FA06281DD2DFE800F003080C102F
:104E2000141834A000F032FE002517E039A000F07D
:104E30002DFE13E042A000F029FE0FE04BA000F091
:104E400025FE0BE053A000F021FE07E05FA000F07C
:104E50001DFE03E068A000F019FE00BF00BF2FA8F0
:104E6000FFF70CF802E06EA000F010FE284633B009
:104E700030BD00006431000064565A3562585274E7
:104E800064554A32526E5635656C4A7455466C57B5
:104E9000526E42694D5870695348425855455255B3
:104EA0006354593D0000000000CF9D7459366E31A7
:104EB0004A4E333239310000323031382D31302D05
:104EC000333100004F6E654E45545F4465764C6942
:104ED0006E6B0D0A4E414D453A2025732C095052F8
:104EE0004F49443A2025732C094B45593A25730DF7
:104EF0000A000000546970733A09436F6E6E65636F
:104F000074696F6E207375636365737366756C0D7A
:104F10000A0000005741524E3A09436F6E6E6563B6
:104F200074696F6E206661696C65643A2050726FB7
:104F3000746F636F6C206572726F720D0A000000EF
:104F40005741524E3A09436F6E6E656374696F6ED6
:104F5000206661696C65643A20496E76616C6964AB
:104F600020636C69656E7469640D0A005741524E86
:104F70003A09436F6E6E656374696F6E206661698E
:104F80006C65643A20536572766572206572726F43
:104F9000720D0A005741524E3A09436F6E6E6563B7
:104FA00074696F6E206661696C65643A2057726F30
:104FB0006E6720757365726E616D65206F7220700B
:104FC000617373776F72640D0A0000005741524E8F
:104FD0003A2009636F6E6E656374696F6E20666157
:104FE000696C65642028746F6B656E20696E7661EC
:104FF0006C6964290D0A00004552523A09436F6EEC
:105000006E656374696F6E206661696C65643A20D1
:10501000556E6B6E6F776E206572726F720D0A003F
:105020005741524E3A094D5154545F5061636B657C
:1050300074436F6E6E656374204661696C65640DC0
:105040000A00000000BF0B4840680B49086009488F
:10505000806848600748007B0872022300220748E6
:10506000006803F023F8012000F004FD642002F042
:1050700015FDE8E7FC380020483900200400002036
:1050800008B508490968C9084FF47A72B1FBF2F112
:105090004143009100BF00BF00994A1E00920029C1
:1050A000F9D108BD2800002010B50320034908707D
:1050B000FEF7D6FEFBF714FF10BD0000B80000207D
:1050C000002403F027FC00BF642214491448006840
:1050D00003F0ACF9012814D1104800F003FC0F498B
:1050E0004872022300220F48006802F0DFFF02230B
:1050F00000220A490C48006802F0D8FF002403F09F
:1051000009FC022000F0B6FC642002F0C7FC641C1D
:105110000A2CD9D9FFF7C8FFD6E700005439002080
:10512000040000200000002008000020FBF738FDEC
:1051300000BF02F0B7F9002000F09CFC322002F022
:10514000ADFCF6E701464888B0F5487F01DA01205A
:1051500070474888B0F5966F01DD0020F8E70148F8
:105160000078F5E7B400002000BF012001F0F8FA54
:10517000FBE7000010B500BF502080F31188BFF39B
:105180004F8FBFF36F8F00BF03F0CAFB18B14FF012
:1051900080500449086000BF002080F3118800BFE0
:1051A00010BD000004ED00E000B593B0282109A86F
:1051B000FBF72DF8142104A8FBF729F80020009034
:1051C000019002900390092009904FF480300A90DA
:1051D00000200B9001200D900F9002201090C10331
:1051E00011914FF4E011129109A8FDF783FC08B169
:1051F000FCF79AF90F2004900220059000200690F9
:105200004FF48060079000200890022104A8FDF769
:105210002BFB08B1FCF788F9022000908003029074
:105220006846FDF789FA08B1FCF77EF913B000BDB6
:105230007047000010B50248FEF717F810BD0000D7
:10524000D004002010B50268184B984208D0B0F185
:10525000804F05D0164B984202D0164B984203D18E
:1052600022F070024B681A43104B984208D0B0F1FC
:10527000804F05D00E4B984202D00E4B984203D17E
:1052800022F44072CB681A4322F080034C6943EA4F
:10529000040202608B68C3620B688362034B98420E
:1052A00001D10B6903630123436110BD002C014050
:1052B000000400400008004030B50C46816821F42D
:1052C0007F4142EA032525432943816030BD0A46D8
:1052D000816821F0700142F0070319438160704733
:1052E00030B50B461446026A056A25F001050562D1
:1052F000816921F0F00141EA041122F00A021A4307
:105300008161026230BD30B50B461446026A056AFF
:1053100025F010050562816921F4704141EA0431EC
:1053200022F0A00242EA03128161026230BD70B530
:1053300005466C6A0020E085E0842046FEF7E6F82A
:1053400070BD70B506460025746A20684069C0F3D8
:10535000C01594F84100212805D125B10020E08432
:10536000204600F0C8F820684069C0F3801594F822
:105370004200222805D125B10020E085204600F01A
:1053800074F8606C40F0100060642046FEF7BEF8D0
:1053900070BD70B505466C6A2868006800F0200092
:1053A000002842D1E08500BF00BF21680C3151E8E0
:1053B000001F21F4807021680C3141E80002002AAE
:1053C000F3D100BF00BF00BF2168143151E8001FB6
:1053D00021F001002168143141E80002002AF3D1D4
:1053E00000BF00BF00BF2168143151E8001F21F049
:1053F00040002168143141E80002002AF3D100BFC7
:10540000202084F84200206B01280ED100BF00BF8D
:1054100021680C3151E8001F21F0100021680C3187
:1054200041E80002002AF3D100BF00206063206B36
:10543000012804D1A18D2046FEF72AF802E020467B
:10544000FEF7B6FA70BD70B505466C6A0120606360
:10545000206B012805D1A08D41082046FEF718F8E1
:1054600002E02046FEF7A5FA70BD00BF00BF02684B
:105470000C3252E8002F22F4907102680C3242E89C
:105480000013002BF3D100BF00BF00BF026814322D
:1054900052E8002F22F001010268143242E80013A2
:1054A000002BF3D100BF016B01290ED100BF00BF5B
:1054B00002680C3252E8002F22F0100102680C3210
:1054C00042E80013002BF3D100BF202180F84210E6
:1054D00000210163704710B504462068C06820F0C1
:1054E00040002168C860202084F841002046FEF773
:1054F000BAFA002010BD00BF00BF02680C3252E8AB
:10550000002F22F0C00102680C3242E80013002B89
:10551000F3D100BF202180F841107047F8B5044650
:1055200094F84200222875D1A068B0F5805F0CD1B4
:10553000206950B90025A66A20684068C0F30800B9
:105540003080A06A801CA06215E0A56A0026A068D1
:10555000B0F5805F03D0A06828B9206918B9206829
:105560004068287004E02068406800F07F002870E0
:10557000A06A401CA062E08D401E80B2E085002839
:1055800046D12068C06820F020002168C8602068EB
:10559000C06820F480702168C8602068406920F0ED
:1055A000010021684861202084F8420000206063E7
:1055B000206B012826D10020206300BF00BF216896
:1055C0000C3151E8001F21F0100021680C3141E836
:1055D0000002002AF3D100BF2068006800F010002C
:1055E00010280AD100BF00200090206800680090B9
:1055F00020684068009000BF00BFA18D2046FDF7E5
:1056000047FF02E02046FEF7D3F90020F8BD01E095
:105610000020FBE70220F9E770B50446216809691C
:1056200021F44051E2681143226811612269A168A6
:105630001143626941EA02052168C96841F20C62BE
:10564000914329432268D1602168496921F440715E
:10565000A2691143226851612D4A2168914202D109
:10566000FDF700FA01E0FDF7EDF900EBC00101EBF9
:10567000001162689200B1FBF2F100EBC00202EB94
:10568000001263689B00B2FBF3F26423B2FBF3F2F7
:1056900002EBC20303EB0212A1EB8201322202EB06
:1056A00001116422B1FBF2F101F0F00100EBC00244
:1056B00002EB001263689B00B2FBF3F26423B2FBBF
:1056C000F3F201EB021200EBC00101EB0011636881
:1056D0009B00B1FBF3F100EBC00303EB0013666822
:1056E000B600B3FBF6F36426B3FBF6F303EBC30695
:1056F00006EB0313A1EB8301322303EB01116423B7
:10570000B1FBF3F101F00F0111442268916070BD0B
:105710000038014077B581B0044615460298A06272
:10572000A58500206064222084F842002848E16BAF
:1057300088622848E16BC8622748E16B0863002053
:10574000E16B486302AE32682368191D2B46E06B9B
:10575000FCF7E2FA00BF002000902068006800908B
:1057600020684068009000BF00BF206970B100BF92
:1057700000BF21680C3151E8001F41F4807021689E
:105780000C3141E80002002AF3D100BF00BF00BF86
:105790002168143151E8001F41F0010021681431E3
:1057A00041E80002002AF3D100BF00BF00BF21681A
:1057B000143151E8001F41F040002168143141E8E4
:1057C0000002002AF3D100BF002004B070BD000029
:1057D000935300084754000843530008014691F8CA
:1057E0004100212828D18868B0F5805F0BD1086975
:1057F00048B90A6A1088C0F308000B685860086A44
:10580000801C086205E00B6A581C086218780B6857
:105810005860C88C401E80B2C88458B90868C068F7
:1058200020F080000B68D8600868C06840F0400035
:105830000B68D860002070470220FCE72DE9F0419A
:1058400004460D4617469846069E34E0701C88B301
:105850002EB1FCF74FFCA0EB0800B0422BD900BFE3
:1058600000BF21680C3151E8001F21F4D07021687D
:105870000C3141E80002002AF3D100BF00BF00BF95
:105880002168143151E8001F21F001002168143112
:1058900041E80002002AF3D100BF202084F8410033
:1058A00084F8420000BF002084F8400000BF0320BD
:1058B000BDE8F081FFE7206800682840A84201D1D8
:1058C000012000E00020B842C0D00020F0E7000036
:1058D00010B50248FDF71CFE10BD0000FC030020BF
:1058E00000BFFEE72DE9F05F04464A4800780A2829
:1058F00007DA48480078401C464908700020BDE897
:10590000F09F2568666844480768D0F80480D0F89E
:1059100010A0D0F80C904148007820B1012815D093
:10592000022858D144E039462846FAF7D1FE09D377
:1059300041462846FAF7D6FE04D349463046FAF7E0
:10594000D1FE02D201203549087048E05146384660
:10595000FAF7FDFC83462946FAF7C4FE11D35146F7
:105960004046FAF7A2FC83462946FAF7B1FE08D36F
:1059700051464846FAF799FC83463146FAF7A8FEA5
:1059800003D202202549087011E039462846FAF76B
:10599000A9FE0CD841462846FAF79AFE07D8494690
:1059A0003046FAF795FE02D800201C49087016E030
:1059B00039462846FAF796FE0CD841462846FAF7AB
:1059C00087FE07D849463046FAF782FE02D8002003
:1059D0001249087003E000201049087000BF00BFA2
:1059E0000E48007820B1012807D002280DD107E029
:1059F000FEF72CFAFBF76AFA07E0FEF731FA04E04B
:105A0000FEF72EFAFBF76CFA00BF00BF03480078E0
:105A100075E70000D0000020BC000020B800002086
:105A200000BF00F00BF810B10348FCF772FD4FF413
:105A3000FA7002F033F8F4E7A8010020002110E02A
:105A40000A4850F821000A4A52F82120904201D118
:105A500000207047054850F82100054A42F821000F
:105A6000491C0429ECDB0120F3E700001C3900206D
:105A70002C390020042806DA034951F82010491C6B
:105A8000014A42F8201070471C3900200FB4054B22
:105A900010B503A9044A029800F02AF910BC5DF879
:105AA00014FB000041640008180000200FB41CB56E
:105AB0000246002007AC00290BD0491ECDE9002189
:105AC000054B6A462146069800F012F9009A00211B
:105AD00011701CBC5DF814FB1F6400080FB4084B68
