:020000040800F2
:10000000B82D002021020008AF260008ED1F0008CF
:10001000AD260008E1050008FD2B000800000000E7
:10002000000000000000000000000000890100083E
:100030008306000800000000CD010008B129000877
:100040003B0200083B0200083B0200083B0200089C
:100050003B0200083B0200083B0200083B0200088C
:100060003B0200083B0200083B0200084D06000866
:100070003B0200083B0200083B0200083B0200086C
:100080003B0200083B0200083B0200083B0200085C
:100090003B0200083B0200083B0200083B0200084C
:1000A0003B0200083B0200083B0200083B0200083C
:1000B0003B0200083B020008612A00083B020008DE
:1000C0003B0200083B0200083B0200083B0200081C
:1000D0003B0200083B0200083B0200083B0200080C
:1000E0003B0200083B0200083B02000800F002F857
:1000F00000F03AF80AA090E8000C82448344AAF188
:100100000107DA4501D100F02FF8AFF2090EBAE885
:100110000F0013F0010F18BFFB1A43F0010318473B
:10012000EC5000000C510000103A24BF78C878C190
:10013000FAD8520724BF30C830C144BF04680C60ED
:10014000704700000023002400250026103A28BF35
:1001500078C1FBD8520728BF30C148BF0B60704739
:100160001FB51FBD10B510BD00F045F91146FFF7D2
:10017000F7FF02F00FFE00F063F903B4FFF7F2FFA0
:1001800003BC00F06BF90000224B19680868B0E866
:10019000F00F80F30988BFF36F8F4FF0000080F3FA
:1001A00011884EF00D0E70470000000006480068F0
:1001B000006880F3088862B661B6BFF34F8FBFF363
:1001C0006F8F00DF00BF00BF08ED00E0EFF3098094
:1001D000BFF36F8F0F4B1A6820E9F00F106008B55E
:1001E0004FF0500080F31188BFF34F8FBFF36F8F34
:1001F00003F0C6FC4FF0000080F31188BDE8084012
:1002000019680868B0E8F00F80F30988BFF36F8FB2
:10021000704700BF1C000020EFF30580704700000E
:100220000948804709480047FEE7FEE7FEE7FEE78A
:10023000FEE7FEE7FEE7FEE7FEE7FEE704480549C6
:10024000054A064B704700005D2A0008ED000008D3
:10025000B8270020B82D0020B8290020B829002098
:10026000032A40F2308010F0030C00F0158011F8E2
:10027000013BBCF1020F624498BF11F801CB00F8BA
:10028000013B38BF11F8013BA2F1040298BF00F80E
:1002900001CB38BF00F8013B11F0030300F0578099
:1002A000083AC0F0088051F8043B083A51F804CBF2
:1002B000A0E80810F5E7121D5CBF51F8043B40F8B8
:1002C000043BAFF30080D20724BF11F8013B11F8C3
:1002D00001CB48BF11F8012B24BF00F8013B00F807
:1002E00001CB48BF00F8012B704702F0FF0343EA3F
:1002F000032242EA024200F05EB84FF0000200B56D
:10030000134694469646203922BFA0E80C50A0E838
:100310000C50B1F12001BFF4F7AF090728BFA0E8E6
:100320000C5048BF0CC05DF804EB890028BF40F8B2
:10033000042B08BF704748BF20F8022B11F0804FF4
:1003400018BF00F8012B704770477047704710B511
:10035000203AC0F00B80B1E81850203AA0E81850BD
:10036000B1E81850A0E81850BFF4F5AF5FEA027C7E
:1003700024BFB1E81850A0E8185044BF18C918C0ED
:10038000BDE810405FEA827C24BF51F8043B40F88E
:10039000043B08BF7047D20728BF31F8023B48BF73
:1003A00011F8012B28BF20F8023B48BF00F8012BB1
:1003B00070474FF000020429C0F0128010F0030CC7
:1003C0003FF49DAFCCF1040CBCF1020F18BF00F854
:1003D000012BA8BF20F8022BA1EB0C01FFF78FBF68
:1003E0005FEAC17C24BF00F8012B00F8012B48BF55
:1003F00000F8012B7047754600F02CF8AE4605005A
:100400006946534620F00700854618B020B5FFF72F
:1004100015FFBDE820404FF000064FF000074FF0F9
:1004200000084FF0000B21F00701AC46ACE8C00912
:10043000ACE8C009ACE8C009ACE8C0098D4670471B
:1004400010B50446AFF300802046BDE81040FFF72A
:1004500094BE00000048704758270020014918202A
:10046000ABBEFEE7260002007047000070B50446F0
:1004700000688168C943C90717D1816821F001016B
:10048000816000F099FD05460AE000BF00F094FD90
:10049000401B022804D920688068C043C00706D0EA
:1004A00020688068C043C007F0D0002070BDA06AFB
:1004B00040F01000A062E06A40F00100E06201201C
:1004C00070BD10B50146406A826A12F0500F05D027
:1004D000006A026BBDE8104008461047816A41F48B
:1004E0000071816201688968C1F3424107290CD11A
:1004F000017B51B9816A21F480718162816AC904EA
:1005000003D4816A41F00101816200F0E7F910BD76
:1005100010B5406A816A41F040018162C16A41F0D0
:100520000401C16200F0DCF910BD10B5406A00F0B2
:10053000D6F910BDF8B5002604460096006881681B
:10054000C943C9072DD0816841F001018160164877
:1005500016490068B0FBF1F000E0401E0090002852
:10056000FBD100F029FD054616E000BF00F024FD98
:10057000401B022810D920688068C043C0070BD0F8
:10058000A06A40F01000A062E06A40F00100E06262
:1005900084F824600120F8BD20688068C043C0074B
:1005A000E4D10020F8BD00001800002040420F00F8
:1005B000014931F8100070479400002010B5032263
:1005C0000449054800F064FABDE81040034801F012
:1005D000F9BA000094000020BC0000209001002027
:1005E000FEE7000030B50F4885B0816941F0040195
:1005F000816180694FF4807400F004000490002051
:1006000002900120CDE900400220074D0390694689
:10061000284600F0D3FB01222146284600F0C6FC04
:1006200005B030BD00100240000801400122110257
:10063000014800F0BBBC00000008014000224FF45C
:100640008071014800F0B2BC00080140014800F090
:10065000A5BA0000EC00002030B590F8405001240D
:10066000AC40C56B6C60046863604368102B036822
:1006700003D099600068C26030BD9A600068C160B4
:1006800030BD704702F014F8012135A2084602F08F
:10069000E4F837A20121022002F0DFF838A201219C
:1006A000032002F0DAF838A20121042002F0D5F884
:1006B000374D384C4FF0FF373A463649286803F03B
:1006C0008FFC01283DD1206804F09EF802460223E9
:1006D0000921012002F0A0F8606804F095F80246B4
:1006E00001230921022002F097F82B4E20683146A1
:1006F00004F0F2F804F088F8024603230C210120EC
:1007000002F08AF83146606804F0E6F804F07CF8FC
:10071000024603230B21022002F07EF8207AB8B1B2
:100720001EA20721032002F098F8607A012811D058
:10073000022811D0032811D01AA20721042002F0A8
:100740008CF8032002F0F2FAC82003F065F9B3E751
:1007500017A2E6E718A2F0E71AA2EEE71CA2ECE760
:10076000566F6C746167653A20202E202020560059
:1007700043757272656E743A202E2020204100006D
:10078000547261636B3A000053746174653A0000FF
:10079000000000203427002000007A444F4343200B
:1007A000200000004E4F524D414C20200000000020
:1007B000554E4F43430000005741524E494E47218A
:1007C000000000004641554C54212020000000004C
:1007D0004552524F522120202000000072B6FEE701
:1007E000F8B50024009490F824202546012A12D060
:1007F000012280F824204A681F23072A0DD20668A8
:10080000776B521E02EB820293409F430B6893402A
:100810001F43776319E00220F8BD06680D2A0AD24B
:10082000376BD21F02EB820293409F430B689340C9
:100830001F43376309E0F76A0D3A02EB82029340E7
:100840009F430B6893401F43F7620A6807230668BB
:100850000A2A0AD3F7680A3A02EB420293409F43FE
:100860008B6893401F43F76008E0376902EB420250
:1008700093409F438B6893401F4337610A68102A57
:1008800001D0112A20D1124B02689A4217D19368E5
:100890001B0219D4936843F400039360096810297C
:1008A00012D10C490C4A0968B1FBF2F101EB81014C
:1008B000490000E0491E00910029FBD104E0816A53
:1008C00041F020018162012480F824502046F8BDC7
:1008D000002401401800002040420F00704770477C
:1008E000704700002DE9F0414FF0000704003D463D
:1008F0007ED0A06A002628B9E66284F824602046EB
:1009000000F07EF82046FFF7B1FDA16AC90600D4C9
:1009100020B1A06A40F01000A06269E0A16A21F451
:10092000885141F00201A1626268E169237B0A43B8
:1009300047EA43010A43A1684FF48077B94209D0DE
:10094000012907D05FF0000194F814C0BCF1010F39
:1009500002D00AE03946F7E7F3B1A36A43F0200377
:10096000A362E36A43F00103E3622368D3F804C09F
:100970002CF4694C4CEA010CC3F804C021688B6864
:10098000DFF870C003EA0C0313438B60A168B9421F
:100990000BD0012909D00CE0DFF85CC0A3690CEB97
:1009A00043330B4343F40061DFE7218A0D05A5F5CE
:1009B00080152168CB6A23F470032B43CB62216836
:1009C00089680E4B1940914208D1E662A16A21F074
:1009D000020141F00101A162BDE8F081A06A20F0AE
:1009E000020040F01000A062E06A40F00100E06206
:1009F0000120F1E7FDF7E1FF00E0FFFFFE0E1FFF22
:100A000070B586B0002605460096019602960396BC
:100A100000681A4988422FD11949886940F400704A
:100A20008861886900F400700490886940F00400CF
:100A300088618869694600F0040004900E200090E7
:100A4000032001900F4800F0B9F9104C0E48C4E99A
:100A500000068020C4E902604000206180006061DF
:100A60002020A061C001E061204600F041F908B1FA
:100A7000FFF7B4FE2C62656206B070BD0024014031
:100A8000001002400008014008000240EC00002075
:100A90002DE9F047894604463B4900683B4F0E1D4F
:100AA0009046884201D0B84207D1306810F4702FC8
:100AB00003D001252846BDE8F08794F824000128DA
:100AC0000CD0012084F824002046FFF733FD0500F8
:100AD0004FF0000004D084F82400EBE70220EAE79E
:100AE000A16A40F60162914341F48071A1622168DC
:100AF000B94218D1326812F4702F14D0A16A41F4AF
:100B00008011A1623168490505D5A16A21F400511F
:100B100041F48051A162A16AC9040AD5E16A21F0B9
:100B20000601E16206E0A26A22F48012A26249682C
:100B3000E9E7E06284F82400216A15488862216AA6
:100B40001448C862216A1448086321686FF00200E3
:100B500008602068816841F48071816021684346A3
:100B60004A464C31206A00F0F1F820688168C1F3F0
:100B700042410729816803D041F48011816099E7DF
:100B800041F4A001FAE700000024014000280140E0
:100B9000C30400082B050008110500082DE9F05FCB
:100BA000C16B0C6801680B68D0F840C0042202FADF
:100BB0000CF2494DDFF824A1494E4A4FDFF828B125
:100BC000DFF828E122422CD05A072AD50A6892067B
:100BD00003D40A6822F004020A600168A94201D124
:100BE000042219E0514501D1402215E0B14202D161
:100BF0004FF4806210E0B94202D14FF480420BE022
:100C0000594502D14FF4802206E0714502D14FF4DC
:100C1000800201E04FF080622F4908394A60C16AC2
:100C20003BE04FF0020808FA0CF818EA040F4FF006
:100C300000094FF0010235D05FEA837832D50B68A6
:100C40009B0605D40B6823F00A030B6080F8212073
:100C50000168A94201D1022219E0514501D12022A7
:100C600015E0B14202D14FF4007210E0B94202D156
:100C70004FF400520BE0594502D14FF4003206E028
:100C8000714502D14FF4001201E04FF00072124999
:100C900008394A6080F82090816A00291AD0BDE89E
:100CA000F05F0847082505FA0CF5254212D01B070E
:100CB00010D50B6823F00E030B6090F84010C36B47
:100CC00002FA01F15960826380F8212080F82090B7
:100CD000016BE2E7BDE8F09F080002401C00024003
:100CE0003000024044000240580002406C000240C4
:100CF00030B528B308C8134914221944B1FBF2F1E6
:100D00008900C16310498163022141771A6843F663
:100D1000F0718A43D0E900142143D0E902452C4305
:100D200021430469214344692143846921431143D8
:100D3000196000214163012242770177084630BDE6
:100D4000012030BDF8FFFDBF0000024070B5044631
:100D500090F82000002501280CD0012084F8200004
:100D600094F821600020012E06D084F8200002258E
:100D7000284670BD022070BD022684F82160A06361
:100D80002068066826F0010606602046FFF764FC2E
:100D9000E06A00282068016802D041F00E0106E0F8
:100DA00021F0040101602068016841F00A0101603E
:100DB0002068016841F001010160D9E72DE9F84F91
:100DC000DFF8B8910024A9F1040B23460F2709F19D
:100DD000040AABF1040EC9E00125A5402A40AA424D
:100DE0007DD1674ED1F804C0ACEB0608B44532D0D3
:100DF00014DCBCF1030F3AD009DCBCF1000F2AD09F
:100E0000BCF1010F1CD0BCF1020F31D11DE0BCF1CF
:100E1000110F17D0BCF1120F2AD119E0B8F5881FB5
:100E200019D006DCB8F5803F15D0B8F5801F1FD16A
:100E300011E0B8F5001F0ED0B8F5041F18D10AE074
:100E4000CB6815E0CB681B1D12E0CB6808330FE0C0
:100E5000CB680C330CE08B682BB1012B4FF00803EF
:100E600003D0456104E0042302E0056100E00023B3
:100E7000FF2A01D8064601E000F104064FEA840586
:100E800001D9A5F12005D6F8008007FA05FC28EA6B
:100E90000C0803FA05F548EA0508C6F800804D6815
:100EA000ED0062D5374DAE6946F00106AE61AD6921
:100EB00024F0030605F001050095334D06EB050C03
:100EC000DCF80850A607360F07FA06F825EA0805E9
:100ED000DFF8B880404503D14FF0000817E044E048
:100EE000DFF8AC80404502D14FF001080FE0DFF899
:100EF000A480404502D14FF0020808E0DFF8988056
:100F0000404502D14FF0030801E04FF0040808FA11
:100F100006F848EA0508CCF808804D68D9F8006062
:100F2000ED024D4601D5164300E096432E604D6814
:100F3000DAF80060AD02554601D5164300E096434D
:100F40002E604D68DBF80060AD035D4601D51643A9
:100F500000E096432E604D68DEF80060ED037546B4
:100F600001D5164300E096432E60641C0D682A46A6
:100F7000E5407FF431AFBDE8F88F00000804014080
:100F80000000111000100240000001400008014064
:100F9000000C01400010014000140140C26821EA29
:100FA00002030A4043EA0241016170470AB101614C
:100FB00070470904FBE700000148806870470000A3
:100FC0000C00002070B5040025D094F83D000025E9
:100FD00020B984F83C50204600F04EF9242084F8D3
:100FE0003D002068016821F001010160206801686E
:100FF00041F4004101602068016821F40041016072
:1010000000F092FB4D4A6168914201D84C4900E0E2
:101010004C49884201D2012070BD4B492368B0FB86
:10102000F1F15E6826F03F060E435E60636893420E
:1010300006D94FF4967359434FF47A73B1FBF3F129
:101040002368491C1E6A26F03F0631431962616815
:10105000914210D84900401EB0FBF1F2521CC2F37D
:101060000B02042A01D2042022E0B0FBF1F0401C64
:10107000C0F30B001CE0A268F2B301EBC10303EB69
:101080000116431EB3FBF6F35B1C43F480431B05C0
:1010900049D092B301EBC10202EB0111401EB0FB3B
:1010A000F1F0401CC0F30B0040F4804040F40040DD
:1010B0002168CA694CF6FF739A431043C861D4E9AA
:1010C000071001432068026822F0C002114301604A
:1010D000D4E9030101432068826848F2FF339A4350
:1010E00011438160D4E9050108432168CA6822F0F0
:1010F000FF021043C86001E00EE016E020680168BE
:1011000041F0010101602564202084F83D00256341
:1011100084F83E50002070BD01EB4106431EB3FB36
:10112000F6F35B1CB3E70120C2E701EB4101401E6F
:10113000B0FBF1F0401CC0F30B00B7E7A086010044
:1011400080841E0000093D0040420F002DE9F84F49
:101150001F4690468A460446DDF82890FFF72CFF8C
:10116000054694F83D0020287FD1192301224049EB
:101170002046009500F0CCFF002876D194F83C0082
:10118000012872D0012084F83C0020680168C9075A
:1011900003D1016841F0010101602068016821F478
:1011A00000610160212084F83D00102084F83E0099
:1011B00000262664C4F824806785608D20852D482C
:1011C000E0622B464A465146204600F027FF90B980
:1011D000206841698069009036E02A4649462046E9
:1011E00001F03CF850B1206C042804D1206801685B
:1011F00041F4007101600120BDE8F88F606A216848
:1012000000780861606A401C6062618D491E6185DA
:10121000218D491E89B2218522685369DB435B0712
:101220000BD451B100781061606A401C6062608D1F
:10123000401E6085208D401E20852A464946204656
:1012400000F03AFF0028CED1208D0028C5D154F8F7
:101250003D0B016841F400710160202004F81E0973
:10126000E67766770020C7E7FFE70220C4E70000C3
:10127000020010000000FFFF10B586B000210091B1
:1012800001910291039100680F4988421AD10F4CD5
:10129000A06940F00800A061A069694600F008005C
:1012A0000490C02000901220019003200390084871
:1012B000FFF784FDE06940F40010E061E06900F4AC
:1012C0000010049006B010BD005400400010024011
:1012D000000C014070B5040011D021684CF6CC40E0
:1012E0000860216845F255500860D4E9000141606A
:1012F0002168A0688860FFF75FFE05460DE00120C9
:1013000070BD00BFFFF758FE401B272805D9206895
:10131000C068800701D0032070BD2068C0688007C6
:10132000F0D121684AF6AA200860002070BD00684C
:101330004AF6AA2101600020704700000248816837
:1013400002781144816070470C000020074810B5F6
:10135000016841F010010160032000F0A7F80F20A0
:1013600000F006F800F050F8002010BD0020024008
:1013700030B505461F4887B0C16941F00401C1611D
:10138000C06906A900F00400009001A800F0ACF9C3
:101390000498B0B100F0C8F940001749174AB0FBF3
:1013A000F1F11748491E0260416040F2E732002126
:1013B000C0E903218160816100F0C2FB040003D019
:1013C00015E000F0B1F9E8E70D4800F023FC040057
:1013D0000DD11E2000F03CF8102D07D20022294626
:1013E0001E2000F043F80748056000E0012407B024
:1013F000204630BD0010024040420F00000800406F
:1014000068020020100000200F4808B5816941F0F3
:1014100001018161816901F001010091C16941F01F
:101420008051C161C069002200F0805000900F21FE
:10143000901E00F01BF80548416821F0E06141F082
:101440000071416008BD0000001002400000014032
:10145000002809DB00F01F020121914040098000B3
:1014600000F1E020C0F8001170470000F0B40E4B0E
:101470001B680C46C3F30223C3F10705042D00D9F2
:101480000425191D072901D2002300E0DB1E0126D7
:1014900006FA05F1491E214099409E40761E1640ED
:1014A0003143F0BC01F04EBC0CED00E0064900F009
:1014B000070208684FF6FF03184040EA0220034A7B
:1014C00010430860704700000CED00E00000FA05D2
:1014D0002DE9F84305460078354CC00754D0E06943
:1014E0000026C00008D4E06940F08050E061E06967
:1014F000012600F0805000902E480168C90512D4E2
:101500000168804641F480710160FFF755FD074690
:1015100005E000BFFFF750FDC01B642823D8D8F8B2
:101520000000C005F6D5206A10F4407021D0A988CB
:1015300001F4407181421CD0206A1F49012220F42D
:1015400040700A6000220A602062C00711D0FFF7D5
:1015500033FD074641F2883808E000BFFFF72CFD55
:10156000C11B414502D90320BDE8F883206A8007EA
:10157000F4D5206A696820F44070084320621EB1E7
:10158000E06920F08050E0612878800705D5606828
:10159000A96820F44040084360602878C00605D55B
:1015A0006068E96820F48000084360600020DBE7A1
:1015B0000010024000700040400442422DE9F04714
:1015C0000F46050061D0434E306800F00700B84276
:1015D00009D2306820F0070038433060306800F0EE
:1015E0000700B84251D128683B4C810712D540070B
:1015F00003D5606840F4E06060602878000703D598
:10160000606840F4605060606068A96820F0F00095
:10161000084360602878C00728D06868012810D087
:101620002168022810D0890700292EDA616821F08C
:10163000030101436160FFF7BFFC804641F2883936
:101640000DE021688903EFE78901EDE7FFF7B4FCBE
:10165000A0EB0801494502D90320BDE8F087606886
:10166000696800F00C00B0EB810FEFD1306800F03A
:101670000700B8420BD9306820F0070038433060CB
:10168000306800F00700B84201D00120E5E7287873
:10169000400705D56068E96820F4E06008436060B1
:1016A0002878000706D56068296920F4605040EA70
:1016B000C100606000F058F86168084AC1F3031186
:1016C000515CC8400649086006480068FFF750FEB4
:1016D0000020C2E70020024000100240F64B000844
:1016E00018000020100000200F2202600C4A5368EE
:1016F00003F003034360536803F0F003836053680F
:1017000003F4E063C36052684FF4E06303EAD2027B
:1017100002610448006800F007000860704700009C
:101720000010024000200240044805490068496852
:10173000044AC1F30221515CC840704718000020E0
:1017400000100240064C000804480549006849683A
:10175000044AC1F3C221515CC84070471800002000
:1017600000100240064C00080E4A51680E4801F075
:101770000C03042B11D0082B0FD10C48C1F3834369
:10178000C903C05C0AD55168084AC1F34041921EA2
:10179000515C054A5043B0FBF1F07047044948439F
:1017A000704700000010024000127A00E64B00086B
:1017B00000093D002DE9F84F040070D02078C04D9D
:1017C000C00749D06868C0F38100012807D0686865
:1017D000C0F38100022809D16868C00306D52868D3
:1017E000800339D560680028E7D035E06068B0F53F
:1017F000803F0BD010B1B0F5A02F11D0286820F495
:1018000080302860286820F4802002E0286840F4B6
:1018100080302860606890B1FFF7CEFB06460AE092
:10182000286840F480202860F0E700BFFFF7C4FB81
:10183000801B642873D828688003F7D50CE0FFF775
:10184000BBFB064605E000BFFFF7B6FB801B642824
:10185000F0D828688003F7D420789A4E80074FF09C
:1018600001094FF0000839D5686810F00C0F07D057
:101870006868C0F38100022809D16868C00306D4F3
:101880002868800714D52069012808D110E0206954
:10189000B0B1C6F80090FFF78FFB074605E00AE1FC
:1018A000FFF78AFBC01B0228C4D828688007F7D539
:1018B0002868616920F0F80040EAC10028600DE066
:1018C000C6F80080FFF778FB074604E0FFF774FBDB
:1018D000C01B022823D828688007F7D42078000787
:1018E0002CD57948A169D9B1C0F80090FFF764FB05
:1018F000074604E0FFF760FBC01B02280FD8686AA8
:101900008007F7D571484FF4FA510068B0FBF1F049
:10191000009000BF0098411E0091FAD20EE080E0D6
:10192000C0F80080FFF748FB074604E0FFF744FBE0
:10193000C01B022875D8686A8007F7D42078400752
:1019400060D5E8690027C00008D4E86940F08050FD
:10195000E861E869012700F0805000905C48016868
:10196000C90513D40168834641F480710160FFF713
:1019700023FB824606E000BFFFF71EFBA0EB0A0038
:1019800064284ED8DBF80000C005F5D5E0680128D2
:101990000AD008B1052813D0286A20F00100286277
:1019A000286A20F0040002E0286A40F00100286262
:1019B000E06841F2883B98B1FFF7FEFA82460BE0FF
:1019C000286A40F004002862EEE700BFFFF7F4FA4F
:1019D000A0EB0A0159455AD8286A8007F6D50CE0D1
:1019E000FFF7EAFA824605E0FFF7E6FAA0EB0A0104
:1019F00059454CD8286A8007F6D41FB1E86920F011
:101A00008050E861E06988B36968C1F38101022907
:101A100044D00228C6F8608004D0FFF7CDFA04460F
:101A200038E034E0FFF7C8FA074604E0FFF7C4FAED
:101A3000C01B02282BD828688001F7D4206AB0F593
:101A4000803F05D16868A16820F4003008436860D1
:101A5000D4E908010843696821F4741108436860F7
:101A6000C6F86090FFF7A8FA044606E025E000BF3C
:101A7000FFF7A2FA001B022809D828688001F7D5D1
:101A80001BE000BFFFF798FA001B022802D90320D1
:101A9000BDE8F88F28688001F4D40EE00128F7D063
:101AA0006868226A00F48031914204D1616A00F4CE
:101AB0007010884201D00120EAE70020E8E700002A
:101AC0000010024000004242800442421800002000
:101AD000007000407047704770B590F83C20012AB4
:101AE00026D0012480F83C40022280F83D20036883
:101AF0005A689D6822F070060A6832435A600D4B9E
:101B000002689A4208D0B2F1804F05D00A4B9A423F
:101B100002D00A4B9A4204D1496825F08003194348
:101B2000916080F83D40002180F83C10084670BD6F
:101B3000022070BD002C014000040040000800405D
:101B400010B5040003D094F83D0010B107E0012067
:101B500010BD002084F83C00204600F01FF8022051
:101B600084F83D00211D206800F080FF012084F8EA
:101B7000460084F83E0084F83F0084F8400084F872
:101B8000410084F8420084F8430084F8440084F85B
:101B9000450084F83D00002010BD000008B5006835
:101BA0000649884208D10648C16941F00201C16175
:101BB000C06900F00200009008BD00000004004071
:101BC0000010024090F83D10012901D0012070471B
:101BD000022180F83D1000680B49884208D0B0F11E
:101BE000804F05D00949884202D00949884204D172
:101BF000816801F00701062903D0016841F0010165
:101C00000160002070470000002C014000040040EB
:101C10000008004090F83D10012901D001207047D4
:101C2000022180F83D100168CA6842F00102CA60D2
:101C300000680B49884208D0B0F1804F05D00949AF
:101C4000884202D00849884204D1816801F0070126
:101C5000062903D0016841F00101016000207047AE
:101C6000002C0140000400400008004070B504460C
:101C700090F83C000025012817D0012684F83C602C
:101C8000022084F83D002068826822F0770222F466
:101C90007F4282600868502838D00DDC20284FD061
:101CA00005DC90B3102811D14AE0022070BD302825
:101CB00046D040280AD13BE060282FD070280DD0B4
:101CC000B0F5805F03D0B0F5005F12D0012584F835
:101CD0003D60002084F83C00284670BDCB68D1E907
:101CE0000121206800F0F8FE2068816841F077014A
:101CF00009E0CB68D1E90121206800F0EDFE206801
:101D0000816841F480418160E1E719E0CA6849686F
:101D1000206800F0F3FE5021206806E0CA68496898
:101D2000206800F0FCFE6021206800F0DFFECEE7B6
:101D3000CA684968206800F0E1FE40212068F4E7A5
:101D4000226801461046F0E7704770B50446006807
:101D500001694FF00005C943890715D4C168C9431B
:101D6000890711D4E91E016101202077206880696C
:101D70008007204602D0FFF7E7FF04E000F098F864
:101D8000204600F096F8257720680169C943490785
:101D900017D4C168C943490713D46FF00401016126
:101DA000022020772068806910F4407F204602D00E
:101DB000FFF7CAFF04E000F07BF8204600F079F856
:101DC000257720680169C943090716D4C168C9434A
:101DD000090712D46FF00801016104202077206800
:101DE000C0698007204602D0FFF7AEFF04E000F094
:101DF0005FF8204600F05DF8257720680169C94347
:101E0000C90617D4C168C943C90613D46FF01001BD
:101E10000161082020772068C06910F4407F2046C7
:101E200002D0FFF791FF04E000F042F8204600F0F6
:101E300040F8257720680169C943C90708D1C168FE
:101E4000C943C90704D1891E0161204600F032F858
:101E500020680169C943090609D4C168C943090654
:101E600005D46FF0800101612046FFF733FE206842
:101E70000169C943490609D4C168C943490605D463
:101E80006FF040010161204600F01EF820680169F2
:101E9000C94389060BD4C168C943890607D46FF0CA
:101EA000200101612046BDE87040FFF714BE70BDFF
:101EB0007047704700680349884201D1FFF73EBA76
:101EC0007047000000080040704770B5040004D05F
:101ED00094F84100002510B106E0012070BD84F89F
:101EE0004050204600F024F8242084F84100206867
:101EF000C16821F40051C160204600F023FE206833
:101F0000016921F4904101612068416921F02A01B1
:101F100041612068C16841F40051C16065642020BE
:101F200084F8410084F842006563002070BD000021
:101F300070B586B000240094019402940394036861
:101F40002648254E022103220515B3421ED183697E
:101F500043F480438361836903F48043049383697A
:101F600043F00403836180691D4E00F00400049077
:101F70000802CDE90001039269463046FEF71EFFD4
:101F8000CDE9005469463046029420E0154EB34234
:101F90001FD1C36943F48023C361C36903F4802361
:101FA0000493836943F0080383618069CDE900519C
:101FB00000F00800CDE903200B4D69462846FEF7E6
:101FC000FDFEE814CDE90004694628460294FEF7B8
:101FD000F5FE06B070BD0000003801400010024060
:101FE0000008014000480040000C0140FEE7016885
:101FF0004A69D24352050FD46FF480624A610021CE
:1020000040F8301F202242738173026942F00402BB
:10201000026101730120704700207047F8B5044643
:10202000C06A1E460D461746082807D0012805D06D
:1020300010F5803F02D0206B122804D1206801687F
:1020400041F480710160134600224FF001112046D7
:10205000009600F05DF840B120680068C00502D528
:102060004FF4007020640320F8BD2069B0F5804F64
:102070000ED00620216800EAD51040F0F00008617B
:1020800033463A460B49204600F08AF878B902E018
:1020900005F0FE0000E0E8B221680861054933461A
:1020A0003A46891F204600F07BF80028DCD001204A
:1020B000F8BD00000800010070B516460D46044644
:1020C0001EE02046FFF793FF08B1012070BD681C99
:1020D00016D0FEF771FF801BA84200D885B9206892
:1020E0004069C04340070BD5002044F8300F202141
:1020F0006173A073216941F0200121612073E4E73D
:1021000020684069C0434007DBD4002070BD000058
:102110002DE9F047984617460D460446C1F3074699
:10212000DDF820902AE000BFB8F1FF3F26D0FEF78F
:1021300043FFA0EB0901414502D8B8F1000F1DD1C2
:102140002068012E16D0806925EA00000004000CEA
:1021500012D00020B84211D1002044F8300F2021C5
:102160006173A073216941F0200121612073012076
:10217000BDE8F0874069E7E70120EBE72068012E22
:102180000AD0806925EA00000004000C06D0002077
:10219000B842C9D00020EBE74069F3E70120F7E738
:1021A0002DE9F047984616460D4604464FF00009C3
:1021B0004FF0200AC1F3074723E020684069C0437D
:1021C000400515D42068016841F400710160216860
:1021D0006FF480604861C4F8309084F83DA084F8C2
:1021E0003E90216C41F00401216484F83C9021E090
:1021F000701C06D0FEF7E0FEA0EB0800B04203D84A
:1022000016B1012F1FD021E02068012F15D0806961
:1022100025EA00000004000C18D000BF44F8309FED
:1022200084F80DA084F80E90216941F0200121610D
:1022300084F80C900120BDE8F087406925EA000091
:102240000004000CEAD12068406901E02068806940
:1022500025EA00000004000CAFD1ECE770B516468B
:102260000D4604461EE02046FFF7C1FE08B10120DE
:1022700070BD681C16D0FEF79FFE801BA84200D8D8
:1022800085B920684069C04300060BD5002044F89A
:10229000300F20216173A073216941F02001216179
:1022A0002073E4E720684069C0430006DBD40020C7
:1022B00070BD000030B50F4885B0816941F0100154
:1022C000816180694FF4005400F0100004900020F8
:1022D00002900120CDE900400220074D039069469D
:1022E0002846FEF76BFD012221462846FEF75EFEDA
:1022F00005B030BD00100240001001400122510322
:102300000148FEF753BE00000010014010B54FF425
:1023100000510448FEF742FEBDE810404FF4FA7049
:1023200001F07ABB001001403EB500211B4800912E
:102330000191194A02910260921582600173017540
:102340000324D2020461C2614160FEF7CBFA08B1F6
:10235000FEF744FA012000900190062002906946A1
:102360000E48FEF73DFA08B1FEF738FA0220009059
:10237000019069460948FEF733FA08B1FEF72EFAD4
:102380000094694605480194FEF72AFA002801D016
:10239000FEF724FA3EBD000000240140BC000020EE
:1023A000094808B5416941F00101416140690022D5
:1023B00000F00100009005210B20FFF757F8BDE861
:1023C00008400B20FFF744B8001002407CB500F035
:1023D00082F9FFF76FFFFEF705F900220C210120BB
:1023E00001F054FC1D4C00220C216060012001F022
:1023F0004DFC20601A4A00211A4800F03DFDA06003
:1024000000243020CDE900042346802216A119487B
:1024100001F0BCFE2820CDE900040023802216A193
:10242000184801F0B3FE1820CDE9000400238022F3
:1024300015A1184801F0AAFE2025CDE9005400237B
:10244000802215A1174801F0A1FECDE90054002318
:10245000802215A1184801F099FE7CBD00000020E3
:10246000C04B0008A929000853656E736F72546150
:10247000736B00007129000850726F6365737354A9
:1024800061736B00C9280008446973706C617954EA
:1024900061736B0085060008536166657479546149
:1024A000736B0000192900085761746368646F67D3
:1024B0005461736B00000000E12C00082DE9F0432B
:1024C00085B0002425480094019402940394816906
:1024D00041F010018161816901F01001049181696D
:1024E00041F020018161816901F02001049181693D
:1024F00041F004018161816901F004010491816965
:1025000041F0080181618069DFF8548000F0080023
:102510004FF400550490002229464046FEF746FD40
:10252000DFF840906F11002239464846FEF73EFD25
:102530000095022601250396CDE9015469464046DF
:10254000FEF73CFC00970396CDE9015469464846E6
:10255000FEF734FC05B0BDE8F08300000010024037
:1025600000100140000801400D4810B50B49016002
:102570000C49416000214FF480428160C0E90312A0
:1025800041618161C1610162FEF71CFD002803D039
:10259000BDE81040FEF722B910BD00000054004015
:1025A00030010020801A0600094810B50749016073
:1025B0000421416040F2E7318160FEF78BFE002884
:1025C00003D0BDE81040FEF709B910BD003000404F
:1025D0008401002010B586B00024174800940194AF
:1025E00002940394049413490594016041F61F4139
:1025F000C0E901146321C0E903148461FFF7A0FA64
:1026000008B1FEF7EBF84FF48050009069460A4895
:10261000FFF72CFB08B1FEF7E1F82020CDE9040418
:1026200004A90548FFF758FA002801D0FEF7D6F8AC
:1026300006B010BD00040040900100200C4810B509
:102640000A4901604FF4E1314160002181600C22B0
:10265000C160C0E904128161C161FFF736FC002846
:1026600003D0BDE81040FEF7B9B810BD00380140F6
:10267000D80100200C4810B50A4901604FF4E1313F
:102680004160002181600C22C160C0E904128161B7
:10269000C161FFF71AFC002803D0BDE81040FEF727
:1026A0009DB810BD0048004020020020FEE7FEE774
:1026B00070B500240021204600F068F800250020B5
:1026C00000F0EEF86D1CEDB2802DF8D3641CE4B27E
:1026D000082CEFD370BD10B500204FF47A720021A2
:1026E000491C9142FCD3401C9042F8D3AE2000F02C
:1026F000C7F8D52000F0C4F8802000F0C1F8A82069
:1027000000F0BEF83F2000F0BBF8D32000F0B8F88E
:10271000002000F0B5F8402000F0B2F8A12000F051
:10272000AFF8C82000F0ACF8DA2000F0A9F81220C9
:1027300000F0A6F8812000F0A3F8CF2000F0A0F868
:10274000D92000F09DF8F12000F09AF8DB2000F08D
:1027500097F8302000F094F8A42000F091F8A6201B
:1027600000F08EF88D2000F08BF8142000F088F82F
:10277000AF2000F085F8BDE81040FFF799BF024692
:10278000012000E05043491EFCD2704710B50C46B2
:1027900040F0B00000F074F8102040EA141000F08F
:1027A0006FF804F00F00BDE8104000F069B80000B9
:1027B0002DE9F0410746CE004000083E801E154638
:1027C0004FF0FF38F1B2C0B2FFF7E0FF114800242C
:1027D00000EB05152819A0F5805090F8000E00F0C8
:1027E0005FF8641CE4B2082CF4D308EB4700F1B2A4
:1027F000C0B2FFF7CBFF00242819A0F5805090F855
:10280000080E00F04DF8641CE4B2082CF4D3BDE8C7
:10281000F08100000E4C00082DE9F04700241D4611
:102820001646884681460A2713E0291B0A20491EBE
:10283000FFF7A5FFB6FBF0F0B0FBF7F107FB1102C5
:1028400008EB0400C1B248463032FFF7B1FF641C08
:10285000E4B2AC42E9D3BDE8F0872DE9F04115467A
:102860000E460746002406E03019C1B23846FFF78D
:102870009FFF641CE4B22A5D002AF5D1BDE8F08117
:102880001CB5002101918DF80500481E009002231F
:1028900001AA78210148FEF759FC1CBD3001002037
:1028A0001CB507A10223096801918DF805004FF0BE
:1028B000FF30009001AA78210248FEF747FC1CBDBA
:1028C00040000000300100200A4C0B4D0B4E6068A8
:1028D0002860A0686860207B2872022300220649D5
:1028E000306801F06FFA012000F020FA642001F056
:1028F00093F8ECE704270020402700200400002084
:10290000044910B503200870FFF700FDBDE8104032
:10291000FDF794BEA4000020002401F09DFC114DA1
:10292000114E124F64221049286801F059FB01280A
:102930000CD10D4800F064F97072022300220A499C
:10294000386801F03FFA002401F086FC022000F014
:10295000EDF9642001F060F8641C0A2CE2D9FFF75D
:10296000CFFFDFE7040000204C27002000000020FC
:10297000FDF724FE00F0F0FE002000F0D7F9322031
:1029800001F04AF8F6E700004088B0F5487F01D230
:1029900001207047B0F5966F01D9002070470148BB
:1029A000407870479C000020012000F00FFAFBE700
:1029B00010B5502080F31188BFF34F8FBFF36F8F96
:1029C00001F050FC18B104494FF08050086000201D
:1029D00080F3118810BD000004ED00E030B593B025
:1029E00028216846FDF789FC14210AA8FDF785FC1B
:1029F00000250F9509200121109500901195129541
:102A00004FF4803004910691CDE901050224CDE90F
:102A100007404FF4E01009906846FEF7CBFE08B17E
:102A200072B6FEE70AA90F2081E831004FF48060FA
:102A3000CDE90D0502210AA8FEF7C0FD08B172B666
:102A4000FEE74FF4004011900F940FA8FEF740FDF1
:102A5000002801D072B6FEE713B030BD7047000009
:102A60000148FFF772B9000068020020F0B5026863
:102A7000164B174C174D4FF08047984205D0B8427F
:102A800003D0A04201D0A84203D122F070064A68C8
:102A90003243984205D0B84203D0A04201D0A842A8
:102AA00003D122F44074CA6822434C6922F08002A8
:102AB000224302608A68C2620A688262984201D137
:102AC0000969016301214161F0BD0000002C014052
:102AD000000400400008004010B5846842EA032268
:102AE00024F47F440A432243826010BD826822F0AE
:102AF00070020A4342F007018160704710B5036A13
:102B0000046A24F001040462846924F0F00444EAB5
:102B1000021423F00A020A438461026210BD10B558
:102B2000036A046A24F010040462846923F0A00399
:102B300024F4704444EA023243EA011182610162E2
:102B400010BD000070B5044600680169E26821F418
:102B50004051114301612169A0680843616908433C
:102B60002168CA6841F20C639A430243CA60206834
:102B70004169A26921F44071114341611E492068F5
:102B8000884202D1FEF7E0FD01E0FEF7CDFD00EB4B
:102B9000C00101EB0012606864218000B2FBF0F319
:102BA000B3FBF1F36FF018067343B2FBF0F5B2FB21
:102BB000F0F605EB8305322303EB0515B5FBF1F5C4
:102BC000B6FBF1F605F0F00505EB0615B2FBF0F6E5
:102BD000B2FBF0F0B0FBF1F06FF01802504306EBDF
:102BE000800003EB0010B0FBF1F0216800F00F0053
:102BF0002844886070BD000000380140FEE70000F6
:102C00002DE9F05F354C61780A2904D2491C6170C6
:102C10000020BDE8F09FD0E900A93048001DD0E9B0
:102C20000051D0E9036B2078884628B1002701289D
:102C300013D002283BD12BE02946504601F018FE64
:102C400009D34146504601F013FF04D331464846AC
:102C500001F00EFF2CD2012018E05946284601F061
:102C600039FF514601F004FF0FD35946404601F0A9
:102C70009BFC514601F0FCFD07D35946304601F05C
:102C800093FC494601F0F4FD02D2022020700FE0CF
:102C90002946504601F0ECFE0AD84146504601F064
:102CA000E7FD05D83146484601F0E2FD00D827701F
:102CB000207820B1012807D002280CD107E0FFF7C7
:102CC0001DFBFDF7B3FC06E0FFF720FB03E0FFF779
:102CD0001DFBFDF7B3FC20789BE70000A40000205B
:102CE0004FF4FA7400F00AF810B10348FEF71FFB26
:102CF000204600F091FEF5E7840100200A4A10B555
:102D0000002002F1100100BF52F8203051F820409D
:102D1000A34201D1002010BD41F82030401C0428FE
:102D2000F2DB012010BD000014270020042805D28A
:102D3000034951F82020521C41F820207047000020
:102D4000142700200907090E002804DB00F1E02009
:102D500080F80014704700F00F0000F1E02080F8C8
:102D6000141D704730B50A49084C0A784D6834F88C
:102D7000123024F81200EB1A1844521C486002F07A
:102D800007020A70C0F3CF0030BD0000F426002017
:102D90009C000020FEF7DAFAFFF720FEFFF78EFB1B
:102DA000FFF7FEFAFFF7C0FAFFF7DEFBFFF746FC7E
:102DB000FFF710FCFFF7F8FBFFF75CFC00F020F8D2
:102DC000FFF704FB00F038F8FEE7000010B5EFF362
:102DD000058149B9EFF3108131B908490968022921
:102DE00005D1EFF3118111B16FF0050403E0002468
:102DF00008B100F011FE204610BD00006C0000205C
:102E0000EFF3058058B9EFF3108040B9094908681D
:102E1000022801D030B109E0EFF3118030B16FF03A
:102E20000500704701200860002070474FF0FF3018
:102E3000704700006C00002010B5EFF3058060B90A
:102E4000EFF3108048B90B490868022802D0012826
:102E500006D00BE0EFF3118040B16FF0050010BD1C
:102E60000220086000F040FE002010BD4FF0FF304F
:102E700010BD00006C000020F0B585B04FEA0103E2
:102E80004FF00004EFF305810394A1BBEFF3108131
:102E900089BB21490968022902D1EFF3118151BB95
:102EA00048B3802618218DF8104004AD42B317684E
:102EB00007B13D4697691FB139467F1E382F02D2B0
:102EC0001779FF0702D0002005B0F0BD576907B1A0
:102ED000BE08D2F808C0BCF1000F0DD0D4685C2C3D
:102EE00018D312693AB137B18DE806103246294637
:102EF00001F079F903900DE0D7685FB912694AB91A
:102F000003AACDE90012B2B2294601F03FF9012827
:102F100000D003940398D7E76C0000202DE9F0411E
:102F2000134C0F46054666692068001D00F044FCFE
:102F3000681C07D137B12168BDE8F0410D48091D73
:102F400000F08ABC20683544B5424560216805D24E
:102F5000A068BDE8F041091D00F066BC6068091D6D
:102F600000F062FC206B854200D22563BDE8F08151
:102F70001C000020A00700202DE9F041054600F0CC
:102F800077FC2D4C2069401C206120682B4F10B12C
:102F9000E06930B32BE025602069012827D10026A5
:102FA00006EB860007EB800000F030FC761C382E24
:102FB000F6D3234800F02AFC2148143000F026FC08
:102FC0001F48283000F022FC1D483C3000F01EFC59
:102FD0001B48503000F01AFC194860601430A060A3
:102FE00005E02068E96AC06A884200D82560E06A86
:102FF000401CE0626864E86AA169884200D9A06167
:1030000000EB800007EB8000291D00F025FC00F09C
:103010004FFCE06900280CD02068E96AC06A884249
:1030200007D208494FF080500860BFF34F8FBFF3BD
:103030006F8FBDE8F08100001C000020F00200202E
:103040005007002004ED00E038B500F011FC104CF2
:10305000A068C8B90F4800F0D9FB0E48143000F042
:10306000D5FB0C482060143060600A4B00202833E8
:10307000009003F1500210210A2000F02BFEA06006
:1030800010B105A100F092FCBDE8384000F010BC82
:1030900058000020B4070020546D72510000000059
:1030A00030B4026C0B46002A0BD0C1681144C160D9
:1030B0004468A14201D30168C16030BC1846FDF7E5
:1030C000CFB830BC70472DE9F041856B17460446F8
:1030D0000026026C82B1C7B1E068FDF7C1F8E16873
:1030E000206C091AE1602268914202D26168081AD4
:1030F000E060022F16D017E02068A8B9606801F0E0
:1031000015F90646002060600EE0A068FDF7A8F8FB
:10311000216CA0680844A0606168884204D32068DC
:10312000A06001E005B16D1E6D1CA5633046BDE8D1
:10313000F08110B5044690F8590058B101280CD020
:1031400002280FD0502080F31188BFF34F8FBFF3B8
:103150006F8FFEE7206B00F0BFFB2046BDE81040FC
:1031600000F0BABB10BD00000F4841F27071420779
:1031700005D0C01D0C4A20F00700821A891A0B4A9C
:1031800000230144C2E900030839103A21F0070185
:1031900011604B600B600B1AC0E9001393604FF095
:1031A00000405360D0607047840F002080000020F2
:1031B000144E154CA6F29C474FF08058DFF84C9007
:1031C00012E000BF00F054FBF068C568281D00F055
:1031D000F3FA2069401E2061E068401EE06000F0C4
:1031E00067FB2846FFF7A5FFE0680028EAD13868AA
:1031F0000128F9D9C9F80080BFF34F8FBFF36F8F53
:10320000F2E700008C0700201C00002004ED00E025
:1032100070B51D46049C51B1C4F80020C4E90F01EB
:103220000121204600F08AFD84F84C5070BD2460D6
:10323000F4E72DE9F0470E46DDE90984174682469A
:1032400091009946089DA522206BFDF74EF86FF07E
:103250000301206B01EB8701084420F00707780782
:1032600007D0502080F31188BFF34F8FBFF36F8FCB
:10327000FEE72218315C82F83410315C11B1401C39
:103280001028F6D3002684F84360382D00D3372564
:10329000E562C4E91356201D00F0C3FA04F11800DA
:1032A00000F0BFFA2461C5F138006462A061666570
:1032B00084F858604A465146384600F03BFA206090
:1032C000B8F1000F01D0C8F80040BDE8F087000059
:1032D00030B5114900E011460A688242FBD34B68C1
:1032E0005C18844203D1406818444860084643682B
:1032F0001C18944209D1084C103C2468A24209D001
:1033000052681A4442600A6812680260814200D022
:10331000086030BD0460F9E78000002070B500242B
:1033200041600B4D0061914206D8D11A82699142E9
:1033300006D2011D686807E09A4203D2994201D380
:10334000012403E0011D286800F06EFA204670BDDC
:103350005800002010B5044600F08AFAA06B28B18E
:103360005FF0000400F0A4FA204610BD0124F9E744
:1033700030B589B0304D55E00498002806DADDE913
:103380000601059A9047049800284BDB069C60696B
:1033900010B1201D00F010FA02A800F0B9F80246A2
:1033A00004980A283ED2DFE800F00505053D2637DF
:1033B00005053D260598A169034601442046FFF70F
:1033C000ADFF00B3616A20468847E069012829D132
:1033D000002000900598A169002342181946204654
:1033E00001F0AEF878B9502080F31188BFF34F8F09
:1033F000BFF36F8FFEE70598A06128B181181346CF
:103400002046FFF78BFF0DE0502080F31188BFF3BB
:103410004F8FBFF36F8FFEE794F82C0010B9204652
:1034200000F05AFA002204A9A86800F0D9FD00288B
:10343000A2D109B030BD0000580000202DE9FC41A8
:103440000F46054600F094FB01A800F061F8044621
:10345000019818B100F0E2FFBDE8FC81224EAFB147
:1034600070680068A8B30027291B3A46B06800F0CE
:10347000B1FA00F0D3FF0028EED11C494FF0805084
:103480000860BFF34F8FBFF36F8FE5E7A542EBD81E
:1034900000F0C4FF30682746C068C468201D00F0F3
:1034A0008BF9E069012810D1A0692B4641193A46F1
:1034B0002046FFF733FF40B100200346014600904D
:1034C0002A46204601F03CF820B1616A2046884730
:1034D000C2E707E0502080F31188BFF34F8FBFF39E
:1034E0006F8FFEE70127BFE75800002004ED00E0E2
:1034F00006484168096829B14168C968C9684968CE
:10350000016370474FF0FF31FAE700001C00002014
:1035100070B5054600F0A0FE064E044630698442B0
:1035200003D200F009F8012000E0002028602046C6
:10353000346170BD58000020F8B5194D1FE0C06817
:10354000C4680668201D00F037F9616A2046884784
:10355000E069012813D1A0693044B04206D9246142
:103560006060211D286800F05FF908E00020034634
:10357000014600903246204600F0E2FF38B128684C
:1035800001680029DBD16968C5E90010F8BD502049
:1035900080F31188BFF34F8FBFF36F8FFEE70000FA
:1035A0005800002008484068401C4FF0500080F34D
:1035B000118804D0BFF34F8FBFF36F8FFEE7BFF3C7
:1035C0004F8FBFF36F8FFEE788000020074C206805
:1035D000016841B1C0680021D0F80000FFF72EFF5C
:1035E000FFF7C6FEF3E701210020F7E758000020AF
:1035F0002DE9F041044600F03BF994F9455004F1FF
:10360000240609E0606A48B1304600F0CFFE08B1F8
:1036100000F030FA6D1E6DB2002DF3DC4FF0FF3676
:1036200084F8456000F044F900F022F994F9445020
:1036300004F1100709E0206948B1384600F0B6FEF1
:1036400008B100F017FA6D1E6DB2002DF3DC84F89E
:103650004460BDE8F04100F02BB900002DE9F041D5
:103660000546002700F084FA314E306808B9FFF7AC
:103670007BFDF06805424BD1C5B3083568070ED015
:1036800005F00700C0F108000544680707D0502086
:1036900080F31188BFF34F8FBFF36F8FFEE72DB319
:1036A0007068854234D82248103001460C6801E029
:1036B00020460C466168A94202D221680029F7D150
:1036C00031688C4224D0076821680160606808373F
:1036D000411B10290FD96019420708D0502080F3F0
:1036E0001188BFF34F8FBFF36F8FFEE710E041608B
:1036F0006560FFF7EDFD61687068401A7060B26840
:10370000904200D2B060F06801430020C4E900019B
:1037100000F084FE780707D0502080F31188BFF3B3
:103720004F8FBFF36F8FFEE73846BDE8F081000092
:103730007000002010B5031F4FF080741C601B1F29
:1037400021F001011960191F024B0B601439403838
:103750000A6010BDA535000870B50220FCF728FFEF
:10376000114C2080FFF7FEFA60800020FCF720FF5C
:1037700001F06AF80D4901F0AFF80D4D294600F04F
:1037800081FF60600120FCF713FF01F05DF809493B
:1037900001F0A2F8294600F075FFA0602046FFF76F
:1037A000F3F8207370BD0000042700200000F041F2
:1037B00000F07F450000A040D0E9013201699A6025
:1037C000D0E901235A604A68824201D182684A6086
:1037D000002202610868401E086008687047000007
:1037E000034B036003F15C000860802010607047A9
:1037F000CC080020044B036003F15C0008604FF428
:103800008070106070470000280B002000F1080154
:103810004FF0FF32C0E90112C16001610021016077
:10382000704700210161704730B50B685A1C02D007
:1038300000F1080202E0026904E0224654682568AB
:103840009D42FAD953684B6099608A605160086163
:103850000168491C016030BD42684A6093688B6012
:1038600093685960916008610168491C0160704764
:10387000502080F31188BFF34F8FBFF36F8F0A4939
:103880004868401C486001280CD10848006810F0C6
:10389000FF0F07D0502080F31188BFF34F8FBFF385
:1038A0006F8FFEE7704700008800002004ED00E005
:1038B0000849486828B1401E486001D180F311884A
:1038C0007047502080F31188BFF34F8FBFF36F8F85
:1038D000FEE700008800002070B5002827D0144DB6
:1038E000A0F108046168E868014207D1502080F324
:1038F0001188BFF34F8FBFF36F8FFEE722683AB195
:10390000502080F31188BFF34F8FBFF36F8FFEE716
:103910008143616000F02CF9606869680844686060
:103920002046FFF7D5FCBDE8704000F077BD70BDC4
:10393000700000204FF0E020002101618161054905
:103940004FF47A720968B1FBF2F1491E4161072117
:10395000016170471800002010B5FCF75DFC1149AB
:1039600010280ED300F1E02090F8F0030A7890427E
:1039700007D2502080F31188BFF34F8FBFF36F8FB2
:10398000FEE709480068896800F4E060884207D9CA
:10399000502080F31188BFF34F8FBFF36F8FFEE786
:1039A00010BD0000880000200CED00E010B5084BB1
:1039B000002200BF53F832401CB1521C082AF9D330
:1039C00010BD43F8321003EBC201486010BD000087
:1039D000B002002070B515460E460446FFF748FFBA
:1039E00094F944100020491C01D184F8440094F952
:1039F0004510491C01D184F84500FFF759FFA06B21
:103A000028B92A46314604F1240000F051F8204636
:103A1000BDE87040FFF7ECBD10B5020014D00F48B0
:103A2000806B38B1502080F31188BFF34F8FBFF304
:103A30006F8FFEE700F09CF800211046FFF76EFA4A
:103A400000F0ECFC002807D105494FF080500860D9
:103A5000BFF34F8FBFF36F8F10BD00001C0000201D
:103A600004ED00E002498A6A0260496941607047DA
:103A70001C00002001490120486270471C00002002
:103A800010B50C4650B1094909681831FFF7CCFE52
:103A90002046BDE810400121FFF740BA502080F3D6
:103AA0001188BFF34F8FBFF36F8FFEE71C0000201C
:103AB00070B514460D4668B10A4909681831FFF718
:103AC000CBFE0CB14FF0FF3521462846BDE87040D3
:103AD000FFF724BA502080F31188BFF34F8FBFF354
:103AE0006F8FFEE71C00002030B587B000240394E0
:103AF00005AA04A903A80494FFF772FEDDE90301F7
:103B00000094CDE90110002315A11748059A00F093
:103B10006AFB164D002868631FD000F0E1FC012805
:103B200009D0401C19D1502080F31188BFF34F8F6A
:103B3000BFF36F8FFEE7502080F31188BFF34F8FE4
:103B4000BFF36F8F4FF0FF3028630120E8616C6195
:103B500007B0BDE8304000F045B807B030BD000008
:103B600049444C4500000000B13100081C00002011
:103B70000248816B491C8163704700001C000020D3
:103B8000164810B5816B11B10121416210BD0021B1
:103B900041628169124A01E0B9B1491E01EB81031A
:103BA00052F82330002BF7D001EB810302EB8302A4
:103BB00002F1080453685B685360A34201D15B685B
:103BC0005360DA680260816110BD502080F3118873
:103BD000BFF34F8FBFF36F8FFEE700001C00002084
:103BE000F00200201CB5264908780190FF200870DB
:103BF00008788DF800009DF800009DF8002000F086
:103C0000F000904207D0502080F31188BFF34F8F0F
:103C1000BFF36F8FFEE79DF800001A4B00F05000D5
:103C200018700720986005E09DF8002052008DF87C
:103C30000020401E9DF800201206F5D4986003284D
:103C400007D0502080F31188BFF34F8FBFF36F8FE1
:103C5000FEE74FF440709860019808700A480168C8
:103C600041F470010160016841F070410160FFF7AB
:103C700061FE00205860FCF799FA00201CBD00008E
:103C800000E400E08800002020ED00E0F8B51746D1
:103C90000E46050014D0DEB105FB06F05030FFF7EC
:103CA000DDFC04000AD0002084F8460004F1500234
:103CB0003B46314628460094FFF7AAFA2046F8BD55
:103CC000502080F31188BFF34F8FBFF36F8FFEE753
:103CD0000020E3E738B5049D18B153B1CAB181B1F2
:103CE00020E0502080F31188BFF34F8FBFF36F8F18
:103CF000FEE7502080F31188BFF34F8FBFF36F8F23
:103D0000FEE7502080F31188BFF34F8FBFF36F8F12
:103D1000FEE739B1502080F31188BFF34F8FBFF316
:103D20006F8FFEE750241C46012384F846302B4653
:103D30000094FFF76DFA204638BD000070B50D46BF
:103D4000040025D0FFF794FDD4E90F20216802FB81
:103D5000001161600021A1632168A1600A46D4E9D5
:103D60000F01401E00FB0121E16021464FF0FF30B2
:103D700001F8440F487004F110008DB1FFF746FDC3
:103D800004F12400FFF742FDFFF792FD012070BD12
:103D9000502080F31188BFF34F8FBFF36F8FFEE782
:103DA00021690029F0D000F001FB0028ECD0044983
:103DB0004FF080500860BFF34F8FBFF36F8FE3E782
:103DC00004ED00E02DE9FF4782B01D468A464FF022
:103DD0000008040003D0BAF1000F08D011E0502011
:103DE00080F31188BFF34F8FBFF36F8FFEE7206C16
:103DF00038B1502080F31188BFF34F8FBFF36F8F1E
:103E0000FEE7022D0AD1E06B012807D0502080F395
:103E10001188BFF34F8FBFF36F8FFEE700F00EFAEC
:103E20003F4F4FF000094FF0805648B9049838B121
:103E3000502080F31188BFF34F8FBFF36F8FFEE7E1
:103E4000FFF716FDA06BE16B884207D3022D05D06A
:103E50000498D0B1B8F1000F1AD01EE02A4651469E
:103E60002046FFF730F9616A19B104F1240000F02F
:103E70009DFA20B13E60BFF34F8FBFF36F8FFFF706
:103E800017FD012006B0BDE8F087FFF711FD22E025
:103E90006846FFF7E7FD4FF00108FFF709FDFFF760
:103EA00067FEFFF7E5FC94F94400401C01D184F85B
:103EB000449094F94500401C01D184F84590FFF7E7
:103EC000F7FC04A9684600F027F930B12046FFF757
:103ED0008FFB00F0A3FA0020D4E7FFF7C9FCA06B2A
:103EE000E16B884213D1FFF7E3FC04F11000049961
:103EF000FFF7C6FD2046FFF77BFB00F08FFA002896
:103F00009ED13E60BFF34F8FBFF36F8F98E7FFF7EF
:103F1000CFFC2046FFF76CFB00F080FA90E7000032
:103F200004ED00E02DE9F0471F4690468946040065
:103F300003D0B9F1000F08D011E0502080F31188B0
:103F4000BFF34F8FBFF36F8FFEE7206C38B1502067
:103F500080F31188BFF34F8FBFF36F8FFEE7022FFF
:103F60000AD1E06B012807D0502080F31188BFF3FD
:103F70004F8FBFF36F8FFEE7FFF7EEFC5020EFF39C
:103F8000118680F31188BFF34F8FBFF36F8FA06B43
:103F9000E16B884206D3022F04D0002086F31188FB
:103FA000BDE8F08794F945503A4649462046FFF768
:103FB0008AF8681C04D06D1C84F845500120EDE798
:103FC000606A0028FAD004F1240000F0EFF900281C
:103FD000F4D0B8F1000FF1D00121C8F80010EDE7DE
:103FE0002DE9F747002683B08A46040003D0BAF1D2
:103FF000000F08D011E0502080F31188BFF34F8FDD
:10400000BFF36F8FFEE7206C38B1502080F311882A
:10401000BFF34F8FBFF36F8FFEE700F00FF9DFF8AC
:10402000F4804FF000094FF0805748B9059838B137
:10403000502080F31188BFF34F8FBFF36F8FFEE7DF
:10404000FFF716FCA56BC5B151462046FFF728F8CF
:104050006D1EA563206950B104F1100000F0A6F9AF
:1040600028B1C8F80070BFF34F8FBFF36F8FFFF711
:104070001FFC012006B0BDE8F087059808B11EB10D
:1040800006E0FFF715FC27E06846FFF7EBFC01268A
:10409000FFF70EFCFFF76CFDFFF7EAFB94F9440015
:1040A000401C01D184F8449094F94500401C01D192
:1040B00084F84590FFF7FCFB05A9684600F02CF852
:1040C000002820460AD0FFF793FA00F0A7F920460F
:1040D000FFF740F90028B3D00020CBE7FFF73AF90B
:1040E00090B104F124000599FFF7CAFC2046FFF7C0
:1040F0007FFA00F093F90028A2D1C8F80070BFF34E
:104100004F8FBFF36F8F9BE72046FFF771FA00F0E8
:1041100085F995E704ED00E02DE9F0410C46050036
:1041200011D0C4B1FFF7A4FB174B5A696E68206821
:10413000911B471C17D02F689B6A9F4219D096424B
:1041400017D8012410E0502080F31188BFF34F8F5F
:10415000BFF36F8FFEE7502080F31188BFF34F8FBE
:10416000BFF36F8FFEE70024FFF7A2FB2046BDE8F8
:10417000F081884205D9401A20602846FFF772FC7A
:10418000F1E700202060DCE71C0000202DE9FF5F44
:104190008346DDE90E87994616468A469000FFF76A
:1041A0005DFA05001CD05C20FFF758FA040014D01B
:1041B0000020256384F85900CDE90240CDE900874D
:1041C0004B46324651465846FFF733F82046FEF735
:1041D000D3FE012004B0BDE8F09F2846FFF77CFB2A
:1041E0004FF0FF30F6E7F0B585B0DDE90B640A9DCE
:1041F000A6B1DCB15C2700972663022684F85960DB
:10420000002604AFCDE90246CDE90057FFF711F8CB
:104210002046FEF7B1FE049805B0F0BD502080F3B3
:104220001188BFF34F8FBFF36F8FFEE7502080F3ED
:104230001188BFF34F8FBFF36F8FFEE70548C16949
:1042400019B1806B18B1002070470120704702201F
:10425000704700001C0000200148406970470000C2
:104260001C0000202DE9F0412E4C0027A06B40B12E
:10427000206A401C2062606A00B101273846BDE810
:10428000F0816669761C666113D16068006838B198
:10429000502080F31188BFF34F8FBFF36F8FFEE77D
:1042A0006068A1686160A060A06A401CA062FFF71E
:1042B0001FF9206BDFF87080864209D360680068C0
:1042C00080B16068C068C568686886420DD22063A6
:1042D0002068C06A00EB800158F821000128CAD983
:1042E0000127C8E74FF0FF30F1E7281DFFF764FA18
:1042F000A86A18B105F11800FFF75EFAE86AA1692B
:10430000884200D9A06100EB800108EB8100291DE3
:10431000FFF7A2FAE86A2168C96A8842CED301276A
:10432000CCE700001C000020F002002070B5040063
:104330004FF0000133D01B4D2868844207D0502035
:1043400080F31188BFF34F8FBFF36F8FFEE7206DAF
:1043500038B1401E2065E36CE26A9A421FD040B13A
:104360001DE0502080F31188BFF34F8FBFF36F8F94
:10437000FEE7201DFFF720FAE06CE062C0F1380094
:10438000A061E06AA969884200D9A861064900EBEA
:10439000800001EB8000211DFFF75EFA0121084635
:1043A00070BD00001C000020F002002070B5C06845
:1043B000C46854B104F118000646FFF7FDF9144D26
:1043C000A86B50B13146134815E0502080F3118896
:1043D000BFF34F8FBFF36F8FFEE7201DFFF7ECF9A0
:1043E000E06AA969884200D9A8610B4900EB800006
:1043F00001EB8000211DFFF72FFAE06A2968C96AE6
:10440000884202D90120686270BD002070BD0000A2
:104410001C00002078070020F00200202DE9F04762
:104420002C4D00242746A86B38B1FFF721FAA86B62
:10443000401EA863A86B40B146E0502080F311886D
:10444000BFF34F8FBFF36F8FFEE72969224E012024
:10445000D1B3A6F5916980463068E0B1F068C468D0
:1044600004F11800FFF7A8F9201DFFF7A5F9E06A8D
:10447000A969884200D9A86100EB800109EB81009D
:10448000211DFFF7E9F9E06A2968C96A8842E3D388
:10449000C5F82480E0E70CB1FFF72AF82C6A4CB18C
:1044A0004FEA0806FFF7DEFE00B16E62641EF9D126
:1044B00000202862686A38B1084901273807086077
:1044C000BFF34F8FBFF36F8FFFF7F2F93846BDE8A8
:1044D000F08700001C0000207807002004ED00E0B9
:1044E00010B586B0FEF7B0FD114CA068B8B1002041
:1044F0000390049005AA04A903A8FFF77BF9DDE95E
:10450000032102208DE8070000230AA10B48059A29
:10451000FFF769FEE06010B106B0012010BD502029
:1045200080F31188BFF34F8FBFF36F8FFEE700005A
:1045300058000020546D722053766300CD3500087A
:104540002DE9FF411E46134602000A9D4FF0000070
:1045500016D0144CA768002F0FD0CDE9001302929B
:10456000062917DAFFF76AFE02284FF000030FD082
:1045700000226946A068FFF725FC04B0BDE8F08181
:10458000502080F31188BFF34F8FBFF36F8FFEE78A
:104590002A46EEE70023324669463846FFF7C2FC5A
:1045A000EBE700005800002090EA010F48BF81F0BF
:1045B000004100F19682421A3CBF801A89184FEAE6
:1045C000D0524FF07F4C1CEA410FA2EBD15318BFE1
:1045D0009CEA026F00F03B804FF0004C4CEA002058
:1045E0004CEA012121FA03FC10EB0C0C1ED202F163
:1045F000FF325FEA1C2040EBC25038BF70471CF00E
:104600007F0F4FEA400C18BFBCF17F4F38BF704797
:10461000C3F12003994008BF20F00100BCF17F4F97
:1046200038BF7047A0F1C04000F01DBA4FEA3C000F
:10463000000A40EBC25028BF1CF0FF0F4FEA400CAD
:10464000E6D018BFBCF17F4F38BF7047EAE79CEA5D
:10465000026F05D010EA5C0F08BF00F00040704701
:1046600010B500F0BAF900BF64FBBE3E401058BF61
:10467000C0F14040491058BFC1F140418142EFF3C1
:10468000008070474FF47F0C1CEAD0121EBF1CEA5A
:10469000D11392EA0C0F93EA0C0F00F0858090EA98
:1046A000010F48BF42F4807240F4000C41F4000056
:1046B0002CF07F4120F07F4000B58142A2EB030245
:1046C0000FF2081CACEB504EC0F100009EF800E069
:1046D0004FEA4E0E00FB0EFC38BF49004FEA2C1C7F
:1046E00002F5FA020CFB0EF34FEACE1E4FEA112C34
:1046F0004FEAC1210EEB635E42EB22420EFB0CFC43
:104700004FEA1C5300FB03114FEA112C4FEA013111
:104710000EFB0CFC4FEADC4C00FB0C11C14228BF25
:1047200009184CEB03335DF804EB10EB410143EB4C
:10473000C250B2F57C0F38BF704729D512F0F00F88
:104740001CBF00F1C04000F0004070470081828330
:104750008485868788898B8C8D8E8F919293959690
:1047600097999A9C9D9FA0A2A3A5A7A8AAACAEB01A
:10477000B2B3B5B7B9BCBEC0C2C5C7C9CCCED1D41F
:10478000D7D9DCDFE2E6E9ECF0F3F7FAFE0000004F
:104790004FEA400C0CF1807CBCF17E4F28BF704783
:1047A000B0F1C04000F05FB990EA010F0CEAD113FC
:1047B00048BF42F48072624538BF634507D213F4A4
:1047C0007F0F16D080EA010000F00040704710B55E
:1047D00000F003F9097EFC3E00F005B880EA010014
:1047E00000F00040704780EA010000F0004000F057
:1047F0003AB912F47F0F04BF0248704780EA010003
:1048000000F031B90000C07FC10DD1F19E0206DB7E
:104810004FEA002343F0004323FA02F070470042BE
:1048200007D54FEA4001B1F1FE4F02D24FF0000030
:10483000704710B500F0D1F84992248000207047ED
:104840006FEA200070470000B0FA80F310FA03F21C
:10485000C3F19D030AD0D90501EB1220530638BFDE
:10486000704700F1010008BF20F001007047000010
:1048700050EA010C00F113801CF5000F58BFBCF585
:10488000000F01D48842704707D710F5000F58BFBA
:1048900011F5000F15D488427047894270471CF506
:1048A000000F04D5BCF5000FF7D5814270474FF0DB
:1048B000807C1CEB400F38BF1CEB410F01D28142C2
:1048C000704710B500F089F8922449004FF000506D
:1048D0004FF08051FFF7CABE4FF47F0C1CEAD01294
:1048E0001EBF1CEAD11392EA0C0F93EA0C0F00F0E2
:1048F000478090EA010F48BF42F480724FF0004CAD
:104900004CEA00204CEA012102EB0302A0FB011358
:10491000A2F50002002918BF43F001035B0028BF85
:104920004FEA330342EB22425FEA132C4CEBC250B6
:104930002EBFBCEB436FB2F57C0F70474FEA036CA0
:10494000BCF1004F08BF20F00100B2F57C0F38BF6A
:1049500070470BD582F0FF0212F5803FC8BF704749
:1049600000F1C040D8BF00F00040704700F5000CD7
:104970005FEA4C0C48BF7047B0F1C04000F073B81C
:1049800090EA010F0CEAD11348BF42F480726245ED
:1049900038BF634504D280EA010000F00040704750
:1049A00010B500F01AF800BF8900013E00F007B80A
:1049B00000F009B85FEA410C5FEA1C6C08D080EA9D
:1049C000010000F050B85FEA400C5FEA1C6CF6D1C1
:1049D0004FF00040A0F5800070470EF1020E2EF05F
:1049E000030E5EF8044B244204D44FEA4102B2F1B4
:1049F0007F4F11D84FEA4003B3F17F4F0CD80ED14F
:104A00004FEAD07CB2F17F4F0CEB4C0C0CF1020C56
:104A100008BF4CEBD17C04E04FF0080C01E04FEAFA
:104A2000D17C0CEB4C0324FA03F404F00704B4F13A
:104A3000040C06D20EEB840CBDE810404CF0010CC7
:104A40006047DFE80CF0070802024FF00040A0F5D5
:104A5000800010BD0846420018BFD2F1807288BFA6
:104A600000F0004010BDFF2141EAD050C005704762
:104A700051EA000C00F113801CF5000F58BFBCF583
:104A8000000F01D48142704707D711F5000F58BFBE
:104A900010F5000F15D481427047894270471CF50C
:104AA000000F04D5BCF5000FF7D5884270474FF0D2
:104AB000807C1CEB410F38BF1CEB400F01D28842B9
:104AC000704780EA010081EA000180EA0100FFF7F7
:104AD000F8BE000090EA010F48BF81F000413FF5A9
:104AE0006AAD421A04D882F00042A0EB02001144E1
:104AF0004FEAD0524FF07F4C1CEA410FA2EBD1534A
:104B000018BF9CEA026F4AD04FF0004C4CEA0020DC
:104B10004CEA012121FA03FCB0EB0C0C0FD412F08B
:104B2000FE0F36D05FEA4C001DD5001240EBC2509C
:104B300038BF70471CF03F0F18BF70470BE0A2F161
:104B400001025FEA1C2040EBC25038BF70471CF0E6
:104B50007F0F18BF7047C3F12003994014BF401E58
:104B600020F00100704780084FEA122308BF704709
:104B7000B0FA80FCA2EB0C02CCF1280C60FA0CF02D
:104B800093EA122F04BF00EBC25070474FEAC37084
:104B90007047130A5FEADC1008BF7047F6E79CEA2B
:104BA000026F04D010EA5C0F08BF0020704710B5F8
:104BB000FFF713FF40DFF63E81F000407047000032
:104BC000005200080000000000000000000000008B
:104BD00000000000000200001800000000000000BB
:104BE00000000000010202030405060708090A0B81
:104BF0000C0D0E0F1010000000000000000001025C
:104C00000304060708090000000001020304000075
:104C10000000000000000000000000000000000094
:104C200000F8000000000000003330000000001019
:104C30000C06100C0600000000000000000040C040
:104C40007840C0784000043F04043F040400007032
:104C500088FC08300000001820FF211E0000F0082A
:104C6000F000E018000000211C031E211E0000F0CF
:104C70000888700000001E21232419272110101617
:104C80000E00000000000000000000000000000016
:104C900000E0180402000000000718204000000295
:104CA0000418E00000000040201807000000404009
:104CB00080F0804040000202010F0102020000006B
:104CC00000F0000000000101011F010101000000CF
:104CD00000000000000080B0700000000000000034
:104CE00000000000000000010101010101010000BD
:104CF0000000000000000030300000000000000054
:104D0000000080601804006018060100000000E048
:104D100010080810E000000F102020100F000010F5
:104D200010F8000000000020203F2020000000704C
:104D30000808088870000030282422213000003044
:104D40000888884830000018202020110E0000003C
:104D5000C02010F8000000070424243F240000F8BD
:104D60000888880808000019212020110E0000E0A2
:104D7000108888180000000F112020110E00003844
:104D80000808C83808000000003F0000000000705C
:104D9000880808887000001C222121221C0000E0E5
:104DA00010080810E0000000312222110F0000005E
:104DB00000C0C00000000000003030000000000013
:104DC0000080000000000000806000000000000083
:104DD000804020100800000102040810200040401C
:104DE000404040404000040404040404040000085F
:104DF0001020408000000020100804020100007014
:104E000048080808F0000000003036010000C030FB
:104E1000C828E810E0000718272423140B0000001E
:104E2000C038E0000000203C23020227382008F8A8
:104E3000888888700000203F202020110E00C0309C
:104E4000080808083800071820202010080008F873
:104E500008080810E000203F202020100F0008F86C
:104E60008888E8081000203F20202320180008F838
:104E70008888E8081000203F200003000000C030B0
:104E800008080838000007182020221E020008F831
:104E900008000008F808203F210101213F200008F8
:104EA00008F8080800000020203F20200000000033
:104EB0000808F8080800C08080807F00000008F81B
:104EC00088C028180800203F20012638200008F854
:104ED000080000000000203F20202020300008F8BB
:104EE000F800F8F80800203F003F003F200008F8D5
:104EF00030C00008F808203F200007183F00E010ED
:104F000008080810E0000F10202020100F0008F8FB
:104F100008080808F000203F210101010000E0100E
:104F200008080810E0000F18242438504F0008F833
:104F3000888888887000203F2000030C3020007093
:104F40008808080838000038202121221C00180891
:104F500008F8080818000000203F2000000008F8AA
:104F600008000008F808001F202020201F000878F3
:104F7000880000C83808000007380E010000F80853
:104F800000F80008F800033C0700073C030008187D
:104F900068808068180820302C03032C30200838E3
:104FA000C800C83808000000203F2000000010089A
:104FB0000808C838080020382621202018000000E2
:104FC00000FE020202000000007F40404000000C92
:104FD00030C000000000000000010638C0000002E0
:104FE0000202FE000000004040407F000000000080
:104FF00004020202040000000000000000000000A3
:10500000000000000000808080808080808000029E
:10501000020400000000000000000000000000008A
:105020008080808000000019242222223F2008F87E
:10503000008080000000003F112020110E000000C1
:10504000008080800000000E112020201100000050
:1050500000808088F800000E112020103F20000002
:10506000808080800000001F222222221300008006
:1050700080F0888888180020203F20200000000051
:10508000808080808000006B94949493600008F886
:10509000008080800000203F210000203F20008011
:1050A0009898000000000020203F20200000000011
:1050B00000809898000000C08080807F000008F881
:1050C000000080808000203F24022D302000000856
:1050D00008F8000000000020203F20200000808011
:1050E000808080808000203F20003F20003F808023
:1050F000008080800000203F210000203F20000031
:10510000808080800000001F202020201F008080E1
:1051100000808000000080FFA12020110E00000010
:10512000008080808000000E112020A0FF80808001
:1051300080008080800020203F21200001000000AE
:105140008080808080000033242424241900008083
:1051500080E0808000000000001F20200000808090
:10516000000000808000001F202020103F20808051
:1051700080000080808000010E30080601008080E1
:105180000080008080800F300C030C300F00008006
:105190008000808080000020312E0E312000808031
:1051A00080000080808080818E7018060100008061
:1051B0008080808080000021302C2221300000007F
:1051C0000000807C020200000000003F4040000020
:1051D0000000FF00000000000000FF0000000002CF
:1051E000027C800000000040403F000000000006FC
:1051F00001010202040400000000000000000000A1
:1052000064656661756C745461736B002C520008A0
:1052100000000020BC00000028010008E85200083F
:10522000BC000020FC2C000044010008000000002D
:10523000000000000000000001000000100000005D
:105240000000000000127A000000000000000000D2
:10525000000000000000000000000000000000004E
:10526000000000000000000000000000000000003E
:10527000000000000000000000000000000000002E
:10528000000000000000000000000000000000001E
:10529000000000000000000000000000000000000E
:1052A00000000000000000000000000000000000FE
:1052B0000000000000000000AAAAAAAA0000000046
:1052C00000000000000000000000000000000000DE
:1052D00000000000CDCCAC410000F0410000000017
:0852E0000000A040CDCC4C3FC2
:04000005080000ED02
:00000001FF
